S00F000050726F6A6563742E737265633E
S214080000282A0720450B0800410B0800410B08006A
S214080010410B0800410B0800410B080000000000D7
S214080020000000000000000000000000810F08002B
S214080030410B080000000000BD0F0800F90F08007B
S214080040410B0800410B0800410B0800410B080053
S214080050410B0800410B0800410B0800410B080043
S214080060410B0800410B0800000000005908080072
S2140800707508080091080800AD0808000000000090
S21408008000000000410B0800410B0800410B080067
S214080090410B0800410B0800410B0800410B080003
S2140800A0410B080000000000410B0800410B080047
S2140800B0410B0800410B0800410B0800410B0800E3
S2140800C0410B0800410B0800410B0800410B0800D3
S2140800D0410B0800410B0800410B0800410B0800C3
S2140800E0410B0800410B0800410B0800410B0800B3
S2140800F0410B080008B50548054B191A062900D80B
S21408010008BD044A002AFBD09047F9E7503D08008E
S214080110533D08000000000008B50748074B191AA9
S2140801208A1002EBD273591000D108BD044A002A7F
S214080130FBD09047F9E700BF503D0800503D080047
S2140801400000000010B5064C237843B9FFF7D2FF2D
S214080150044810B10448AFF300800121217010BD97
S214080160C808072000000000503D080008B5084BE6
S2140801701BB108480849AFF300800848016811B168
S214080180074A02B19047BDE80840FFF7C5BF00BF61
S21408019000000000503D0800CC080720503D08002D
S2140801A00000000010B54FF43D40C0F2015040F684
S2140801B04563C0F2080398474FF000004FF03E0131
S2140801C040F66912C0F20802904740F6D914C0F209
S2140801D00804A0470028FCD040F6E910C0F2080042
S2140801E080474FF4C061C4F20E0143F60173C2F2B1
S2140801F00D038B6240F6F914C0F20804A0470028E5
S214080200FCD04FF0100040F6C902C0F20802904732
S21408021040F67D40C0F20800804710BD38B54FF064
S214080220250040F60923C0F2080398474FF000045B
S214080230C4F20C0420464FF4F441C0F6032144F2FD
S2140802404022C0F20F024FF0080340F2A945C0F260
S2140802500805A84720464FF000014FF440124FF01B
S214080260010340F21155C0F20805A84720464FF092
S214080270000140F2F142C0F20802904720464FF0D3
S2140802800A0140F23953C0F20803984720464FF057
S21408029000010A4640F20153C0F20803984738BDE9
S2140802A010B54FF00004C4F20C04204640F2315357
S2140802B0C0F20803984720464FF00A0140F245521C
S2140802C0C0F208029047014643F6D040C0F2080044
S2140802D041F2B153C0F20803984710BD2DE9F84320
S2140802E00C46904648BB002A2BDD8F1840F61C2685
S2140802F0C2F2070640F61425C2F207056FEA01099E
S21408030007EB090000F0010930682B68984704F1EC
S2140803100104BC4219D10DE030682B682146984785
S21408032004F10104214630682A68904704F1010464
S214080330BC42F1D14046BDE8F8834FF0FF30BDE837
S214080340F8834FF00000BDE8F883B9F1000FE3D05A
S21408035030682A682146904704F10104BC42DBD184
S214080360E8E700BF2DE9F8430D46904600F1FF3058
S214080370022824D832B340F61C26C2F2070640F6F6
S2140803801827C2F207074FF0000402F1FF3909F0F8
S214080390010930683B68095D9847A0421ADA14E0FC
S2140803A030683B68295D984700280EDB04F1010495
S2140803B030683A68295D904700281DDA05E04FF056
S2140803C0FF3404E04FF0000401E04FF0FF3420460D
S2140803D0BDE8F88304F10104A045F8D0B9F1000F90
S2140803E0DED030683A68295D90470028EDDB04F1D6
S2140803F00104A045D4D1EAE704F10104A045CFD111
S214080400E5E700BF10B541F65023C4F20E034FF4DB
S21408041000425A604FF00B0040F60924C0F2080468
S214080420A0474FF00C00A0474FF00D00A0474FF034
S2140804300E00A0474FF03B004FF0605140F23D647D
S214080440C0F20804A0474FF055004FF06051A0478F
S2140804504FF056004FF06051A0474FF068004FF03D
S2140804607901C2F60001A0474FF05C004FF0010189
S214080470C2F60001A0474FF46060C4F20E004FF4C5
S21408048040714FF0006240F23D73C0F2080398478F
S2140804904FF02B004FF00061A0474FF02A004FF0B6
S2140804A00061A04710BD00BF30B44FF001040460DF
S2140804B04FF00004446040F20225C0F82051C0F80E
S2140804C00441C0F8144145684FEA4202B1FBF2F114
S2140804D001F1FF324FEA02614FEA034303F4702248
S2140804E042EA11410D434560204630BC704700BFC4
S2140804F043684FEA011101F0100213434360704746
S214080500436819434FEAC212D3B219434160704791
S21408051010B4446822434FEA016101F07064224334
S2140805204FEA037303F040510A43426010BC704719
S2140805304FF00203036070474FF0010303FA01F11E
S214080540016170470F2904D801F1140150F8210001
S21408055070474FF0000070470AB141667047016661
S214080560704700BF4264B1F1805F16D004D8C9B1A5
S214080570B1F1006F15D109E0B1F1405F12D0B1F1C9
S214080580605F0FD0B1F1205F0BD17047036F016F2A
S2140805900B4023EA0203036703E0036F42EA030102
S2140805A001674260704700BF41647047F8B504466B
S2140805B00D4616461F4640F2A953C0F20803984750
S2140805C020462946069A40F25953C0F2080398472F
S2140805D00FB1256500E065650EB1256300E065632B
S2140805E025612560F8BD00BF70B504460D46164661
S2140805F040F2A953C0F2080398472046294606F059
S214080600010240F25953C0F20803984716F00A0F41
S21408061014BF2562656216F0020F02D0C4F8805037
S21408062004E016F0080F18BFC4F88050656125600E
S21408063070BD00BFC06C7047806C7047F0B583B063
S2140806400D464FEA501606F5001101F207724FEAFA
S214080650422605F0F044B4F1205F42D006D8B4F143
S214080660006F0AD0B4F1805F64D120E0B4F1405F37
S21408067046D0B4F1605F5DD142E000F01F074FF04E
S214080680010404FA07F730464FF000613A4640F294
S2140806906553C0F2080398473046394605EA04020F
S2140806A040F25953C0F208039847204644E000F049
S2140806B01F004FF0010404FA00F730464FF080514F
S2140806C03A4640F26553C0F2080398473046394622
S2140806D005EA040240F25953C0F208039847204638
S2140806E02AE000F01F024FF00104304604FA02F137
S2140806F02A4640F2E953C0F20803984720461BE012
S21408070000F01F024FF0010405F0605305EA0401EB
S2140807100091304604FA02F1B3F1605F14BF00227C
S2140807200122C5F3800340F2AD55C0F20805A8477C
S214080730204601E04FF0000003B0F0BDF0B583B0EE
S21408074007460E46154602F0F044B4F1205F36D050
S21408075006D8B4F1006F0AD0B4F1805F4DD11AE024
S214080760B4F1405F33D0B4F1605F46D12FE04FF06C
S2140807700061324640F26553C0F20803984738468F
S214080780314605F0010240F25953C0F20803984773
S2140807904FF0010033E04FF08051324640F2655387
S2140807A0C0F2080398473846314605F0010240F281
S2140807B05953C0F2080398474FF001001FE040F273
S2140807C0E953C0F2080398474FF0010017E005F018
S2140807D0605205F00100009038463146B2F1605F7D
S2140807E014BF00220122C5F3800340F2AD54C0F2C4
S2140807F00804A0474FF0010001E04FF0000003B0E6
S214080800F0BD00BFF8B504460E4640F23563C0F2A8
S214080810080398470546204640F23961C0F20801A9
S2140808208847054014D00B4C274654F80C0CB042A9
S2140808300AD154F8081C294206D022683046904748
S21408084054F8083C25EA030504F11004002DEBD102
S214080850F8BD00BFF008072008B54FF46060C4F282
S2140808600E004FF00B0140F60503C0F20803984748
S21408087008BD00BF08B54FF48050C4F20E004FF014
S2140808800C0140F60503C0F20803984708BD00BFF0
S21408089008B54FF49050C4F20E004FF00D0140F624
S2140808A00503C0F20803984708BD00BF08B54FF413
S2140808B0A050C4F20E004FF00E0140F60503C0F239
S2140808C00803984708BD00BF4FF4C063C4F20E0380
S2140808D01A6B22F0700108431863986E10F0080F20
S2140808E007D010E000F1FF33906E10F0080F38D0F4
S2140808F009E04FF400604FF4C062C4F20E02916E35
S21408090011F0080FEED04FF4C061C4F20E010A6B66
S21408091022F0030343F002000863896E11F0080F03
S21408092009D04FF00000704703F1FF33916E11F0C5
S214080930080F13D009E04FF400634FF4C062C4F206
S2140809400E02906E10F0080FEED04FF000007047C1
S2140809504FF0010070474FF001007047013BF0D19F
S214080960F9E7581ECBD1F3E788B14FF4C061C4F25B
S2140809700E01086A4FF6FC72CFF6C86202404FF0C6
S2140809800203C0F2371342EA0300086270474FF4C6
S214080990C063C4F20E031A6A22F45C1020F0030245
S2140809A042F45C1040F001024FEA016142EA11404D
S2140809B018624FF4C062C4F20E02936E13F0010F71
S2140809C0FBD04FF4C061C4F20E01086A40F09B7277
S2140809D042F480330B6270474FF4C063C4F20E03D0
S2140809E0986E00F4803070474FF4C063C4F20E036C
S2140809F04FF000529A6270474FF4C063C4F20E0379
S214080A00986E00F0020070472C2835D81F2817D893
S214080A104FF4C061C4F20E018A694FF0010303FA6D
S214080A2000F31A4093422AD04FF0010101FA00F071
S214080A304FF4C062C4F20E0210614FF00000704717
S214080A404FF4C063C4F20E03D3F80821A0F12000C7
S214080A504FF0010101FA00F10A40914212D04FF01E
S214080A60010303FA00F04FF4C062C4F20E02C2F8A3
S214080A7000014FF0000070474FF0010070474FF03C
S214080A80000070474FF00000704700BF10B44FF0EA
S214080A90AC0303600A684C68B2FBF4F34FEA13131E
S214080AA003F1FF344FF6FE7294420CD8036289684D
S214080AB0416040F20223C0F820314FF05002026035
S214080AC04FF0000001E04FF0010010BC704700BF77
S214080AD0436913F0020F03D0C1614FF0000070475E
S214080AE04FF00100704700BF436913F0010F04D0B0
S214080AF0806908704FF0000070474FF0010070479B
S214080B00436913F0020F07D04FEAC1514FEAD1529A
S214080B10C2614FF0000070474FF00100704700BFF9
S214080B20436913F0010F08D080694FEAC0524FEAB4
S214080B30D2530B604FF0000070474FF0010070472B
S214080B40FEE700BF38B540F20003C2F2070343F6DB
S214080B505052C0F208029A4203D0404840498142A7
S214080B6004D3404B404A9A4225D342E03F4D404C7E
S214080B70631B23F003054FF0000340F20002C2F2A5
S214080B80070243F65051C0F2080105F10400C5F308
S214080B9080045D589D5003F10403834255D1E0E775
S214080BA05D589D5003F104035C589C5003F1040300
S214080BB08342F5D1D5E72F4D2F49481B20F0030473
S214080BC040F6C803C2F20703E2184FF00001501BB4
S214080BD0A0F10400C0F3800445F8041F95422DD107
S214080BE007E005F10403696005F1080559609542B8
S214080BF0F7D140F20005C0F2080525F0604222F061
S214080C007F014FF46D40CEF20000816005F160442C
S214080C10B4F5801F07D24FF46D43CEF200039D68EB
S214080C2045F000529A6041F26551C0F208018847C3
S214080C3041F2F940C0F208008047FEE7002CD0D009
S214080C4045F8041F9542CCD1D3E7002CA8D05C58B1
S214080C509C5003F104038342A2D182E7C808072008
S214080C6000000720240A0720C808072004000720D9
S214080C70CB080720C40807201F0A07204FF4C063C4
S214080C80C4F20E03186B00F00301032900F2B180CA
S214080C90DFE801F002144F4F41F61020C4F20E00B0
S214080CA0416911F0800F40F20003C2F2070314BF37
S214080CB04FF400424FF4FA421A609AE04FF4C063C9
S214080CC0C4F20E03186A10F0807F09D04FF4D85388
S214080CD0C0F2B70340F20002C2F20702136088E0CF
S214080CE04FF41061C0F23D0140F20002C2F2070262
S214080CF011604FF4C063C4F20E03186A00F0700166
S214080D00102902D0202974D109E04FF49050C0F27F
S214080D107A0040F20001C2F20701086069E04FF469
S214080D20D853C0F2B70340F20002C2F207021360BB
S214080D305FE04FF4C062C4F20E02136A13F0807FBD
S214080D4009D04FF4D851C0F2B70140F20002C2F2FF
S214080D500702116027E04FF41060C0F23D0040F231
S214080D600001C2F2070108604FF4C062C4F20E0226
S214080D70136A03F07000102802D0202813D109E067
S214080D804FF49053C0F27A0340F20000C2F2070014
S214080D90036008E04FF4D851C0F2B70140F20002F1
S214080DA0C2F2070211604FF4C063C4F20E03186B58
S214080DB000F00301022913D14FF4C061C4F20E01FA
S214080DC0886A896A40F20003C2F20703C0F30A4041
S214080DD01A6800FB0220C9B2B0FBF1F21A6008E0FC
S214080DE04FF4E053C0F64E6340F20002C2F2070228
S214080DF013604FF4C062C4F20E02106B00F070016C
S214080E0070290ED140F20003C2F2070318684AF6AA
S214080E10AB22CAF6AA22A2FB00014FEA51001860CC
S214080E2070474FF4C063C4F20E031A6B40F200001A
S214080E30C2F20700C2F30211036823FA01F3036043
S214080E40704700BF45F29F23C0F2571398420CD84C
S214080E504FF42060C4F20E004FF0000101604FF41A
S214080E604063C4F20E03196070474CF67F41C0F227
S214080E70062188420CD84FF42063C4F20E034FF4C0
S214080E80807119604FF44062C4F20E021160704718
S214080E904BF23F73C0F2283398420CD84FF42061C7
S214080EA0C4F20E014FF400720A604FF44060C4F2B8
S214080EB00E000260704742F67F71C0F2A641884273
S214080EC04FF42060C4F20E0094BF4FF440724FF403
S214080ED0806202604FF44063C4F20E031A607047E3
S214080EE040F65413C2F20703196841B940F6541382
S214080EF0C2F2070342F62822C2F207021A6040F638
S214080F005411C2F207010B68181808601846704793
S214080F104FF0FF30704700BF4FF400534B604FF060
S214080F20000070474FF00100704700BF4FF0000008
S214080F30704700BF43685A684A6042688A605A68C1
S214080F409160596041600861016801F10101016022
S214080F50704700BF436882689A60816843684B6040
S214080F6001694A68824204BF82684A604FF00003FB
S214080F700361086800F1FF320A600868704700BF1E
S214080F80064B19680868B0E8F00F80F309884FF038
S214080F90000080F311884EF00D0E7047CC0907202C
S214080FA0EFF311804FF0A00181F3118870474FF0DE
S214080FB0000000BF80F31188704700BFEFF3098078
S214080FC00C4B1A6820E9F00F10602DE908404FF026
S214080FD0A00080F3118800F0F1F84FF0000080F3CD
S214080FE01188BDE8084019680868B0E8F00F80F373
S214080FF009887047CC09072008B54EF60453CEF288
S21408100000034FF080521A6040F6A170C0F2080044
S214081010804741F22D01C0F2080188474FF00000D2
S21408102040F6B573C0F20803984708BD2DE9F84F97
S21408103040F6C813C2F207031868002840F0B380C9
S21408104040F6D413C2F20703186800F101001860CE
S2140810501968002939D140F65C12C2F207021368F3
S214081060186830B140F6A175C0F20805A84700BF59
S214081070FDE740F65C13C2F20703196840F6D8127B
S214081080C2F2070210681860116040F6D012C2F269
S2140810900702116801F1010111601B68186838B968
S2140810A040F20403C2F207034FF0FF3018600CE06A
S2140810B040F65C12C2F207021168CB68D86842682C
S2140810C040F20401C2F207010A6040F6D412C2F2E6
S2140810D00702116840F20403C2F207031868814247
S2140810E069D340F65C12C2F2070211680B687BB13E
S2140810F040F65C14C2F207042068C268D4686368C5
S21408110040F6D411C2F20701086883421AD912E0E1
S21408111040F20403C2F207034FF0FF301860BDE840
S214081120F88F3468E268D46863684846C2F20700F5
S21408113001688B421CD940F20402C2F2070213600F
S214081140BDE8F88F40F65577C0F2080740F66018F5
S214081150C2F2070840F6641BC2F2070B40F6357A5F
S214081160C0F2080A40F65C16C2F2070640F6D41922
S21408117004F104052846B847A36A13B104F1180019
S214081180B847E16AD8F80020914288BFC8F800102E
S21408119001EB81000BEB80002946D04733681968BD
S2140811A00029BED1B4E740F65811C2F207010A6812
S2140811B002F101020A60BDE8F88F00BF08B540F6E4
S2140811C0C813C2F207031868A8B940F66011C2F23D
S2140811D007010A6802EB82034FEA830040F66411AF
S2140811E0C2F207010A5852BB40F66013C2F2070360
S2140811F0186888B909E040F6DC11C2F207014FF01A
S2140812000100086008BD1A6872B940F6A173C0F2FA
S2140812100803984700BFFDE740F66013C2F20703CD
S21408122040F66411C2F207011A6802F1FF3018602E
S2140812301A6802EB820051F82020002AE3D040F614
S2140812406013C2F20703196801EB810040F66412C6
S214081250C2F2070202EB800359684868586003F137
S2140812600802904204BF406858605B68D96840F638
S214081270CC10C2F20700016008BD00BFF0B583B00D
S21408128004460D464FF0000301934FF40060C4F285
S2140812900E0084420DD14FF40066C4F20E0640F6E6
S2140812A0E927C0F2080730462946B8470028FAD189
S2140812B02BE04FF40041C4F209018C420FD14FF4E1
S2140812C00046C4F2090640F62137C0F20807304641
S2140812D001A9B8470028FAD1019828702BE04FF4E6
S2140812E04042C4F2090294420FD14FF44044C4F27B
S2140812F0090440F62136C0F20806204601A9B04780
S2140813000028FAD1019B2B702AE04FF00001C4F2A6
S2140813100A018C420FD14FF00004C4F20A0440F6CA
S2140813202136C0F20806204601A9B0470028FAD19F
S2140813300198287014E04FF48042C4F20A029442DE
S2140813400ED14FF48044C4F20A0440F62136C0F2A7
S2140813500806204601A9B0470028FAD1019B2B7041
S21408136003B0F0BD70B50C464FF40063C4F20E032C
S21408137098420FD14FF40065C4F20E0540F6D12608
S214081380C0F2080628462146B0470028FAD14FF092
S214081390010070BD4FF40041C4F2090188420FD124
S2140813A04FF40045C4F2090540F60136C0F20806B7
S2140813B028462146B0470028FAD14FF0010070BDF4
S2140813C04FF44042C4F2090290420FD14FF4404510
S2140813D0C4F2090540F60136C0F20806284621463A
S2140813E0B0470028FAD14FF0010070BD4FF0000357
S2140813F0C4F20A0398420FD14FF00005C4F20A055A
S21408140040F60136C0F2080628462146B0470028AE
S214081410FAD14FF0010070BD4FF48041C4F20A01C2
S21408142088420FD14FF48045C4F20A0540F60136CB
S214081430C0F2080628462146B0470028FAD14FF0E1
S214081440010070BD4FF0000070BD00BF30B585B01C
S2140814504FF0080040F60925C0F20805A8474FF4E3
S2140814600064C4F20E0440F61C23C2F207031C6094
S21408147040F61820C2F2070041F26532C0F20802B0
S214081480026040F61421C2F2070141F27D23C0F241
S21408149008030B604FF43D40C0F2015000904FF433
S2140814A0E13201924FF4006102914FF00800A8471C
S2140814B02046694640F68D25C0F20805A84740F242
S2140814C00805C2F207052C68A0684FF0000141F233
S2140814D01364C0F20804A0472B6858684FF0000150
S2140814E0A04705B030BD00BF08B540F2A124C0F241
S2140814F00804A047FDE700BF08B540F2A513C0F2F0
S2140815000803984740F20540C0F20800804741F2B9
S2140815104D41C0F20801884740F21D22C0F2080279
S214081520904741F2E943C0F2080398470146002075
S2140815300246034600F0E6BD70B5084B084C002589
S214081540E01A841003EB8406043D1CB172599047D8
S214081550013CF9E7BDE8704002F0EEBB443D0800E8
S214081560483D080038B50E4D0E4B0024E81A851085
S214081570AC4205D00B4951F8242090470134F7E7D0
S21408158002F0D0FB0849094A541AA5100024AC42B8
S21408159005D0054B53F8240080470134F7E738BDDB
S2140815A0303D0800303D0800303D0800383D080052
S2140815B00FB407B5064904AB086853F8042B8168CE
S2140815C0019300F0E1F8BDE80E4004B0704700BF94
S2140815D0080007200EB403B503AB53F8042B816844
S2140815E0019300F0D1F8BDE80C4003B0704700BF87
S2140815F010B50023934203D0CC5CC4540133F9E7FA
S21408160010BD82180346934202D003F8011BFAE77E
S214081610704700290CBF022200224FF4806300F0B6
S21408162001B800002DE9F0411D46374B04461868FE
S2140816300E461746984618B1826B0AB900F0ACFEFB
S214081640022F5DD8002D5BDB2146D8F8000000F09D
S214081650B1FDA189002001F080031AB26060A06184
S21408166022B129482169006800F0D4FFA189022F19
S21408167021F08303A38112D036BB002D08BF4FF498
S2140816808065284601F0CAFA0646C8B94FF4806055
S21408169001F0C4FA064688B94FF0FF3000E0002093
S2140816A0A189002241F00203A38104F1430101232A
S2140816B0A260216021616361BDE8F0814FF4806516
S2140816C0A28942F08000A081012F05D1A1896A4233
S2140816D041F00103A381A2610B48A28901680B4B64
S2140816E002F0080000B2CB6326602661656148B147
S2140816F012F0030F18BF0025A5600020BDE8F08192
S2140817004FF0FF30BDE8F081080007200D230800E1
S214081710034613F8012B002AFBD1181A0138704724
S21408172093682DE9F04781460F4614461BB9536067
S2140817301846BDE8F0874B6E9B041ED51568A06852
S2140817400835C8B155F8041C55F808AC4FEA910896
S2140817500026464509DA48465AF826103A4600F062
S21408176097FE431C0BD00136F3E7A2684FEA8808B9
S214081770C8EB0203A360E2E701E001F001F80021EC
S214081780A1606160BDE8F0872DE9F04F8946ADF2AB
S214081790CC4D14461E46834618B1836B0BB900F031
S2140817A0FBFDB9F80C0000F4005211B249B940F438
S2140817B00053D9F86400A9F80C3020F40052C9F890
S2140817C06420B9F80C1001F0080318B248B1D9F82B
S2140817D0102032B1B9F80C0000F01A010A2949D1D4
S2140817E00AE05846494600F031FC0028F2D04FF08F
S2140817F0FF31029100F015BCB9F80E30190439D43F
S214081800D9F86410D9F81C2020F00200ADF86E3024
S214081810D9F82430ADF86C00319132A84FF48061C5
S2140818201F920022219318901C901A911D911E92C7
S214081830584618A922463346FFF7A6FF0028029006
S21408184009DB584618A900F0B5FC029B002818BF0B
S2140818504FF0FF330293BDF86C0000F040010AB267
S214081860002A00F0DE83B9F80C3043F04000A9F8EF
S2140818700C00D6E3002232AD0B950D920C92019423
S21408188005920292A8460198044610F8011B19B959
S214081890019BE51A03D11DE02529F5D1F8E7019942
S2140818A00D9A88E822000C9950194B1C072B0D90AE
S2140818B00C9302DC08F1080809E0584649460BAACA
S2140818C0FFF72EFF002840F0A4830DF1C808029AFF
S2140818D0501902902178002900F0948300220134E0
S2140818E001948DF827204FF0FF3C04921746019884
S2140818F010F8013B0190632B00F0B38033DC392BE2
S2140819001ADC312B80F291802B2B01D11A46EEE798
S2140819100ADC232B55D02A2B56D0202B40F0F781F3
S214081920002A08BF2022E2E72E2B58D0302B79D089
S2140819302D2B40F0EC814FE04F2B00F0DE8007DCCB
S214081940442B40F0E4818DF8272047F0100790E0FC
S214081950552B00F01F81582B40F0D981AE4D8DF8DD
S2140819602720059530E16F2B00F0C98010DC692B25
S21408197024D007DC642B21D0682B40F0C88147F0C0
S2140819804007B4E76C2B5FD06E2B40F0C08196E022
S214081990732B00F0DF8006DC702B00F0CD80712BF7
S2140819A040F0B5815AE0752B00F0F680782B40F0B1
S2140819B0AE819A4D8DF82720059505E18DF82720EC
S2140819C057E047F0010792E7331D3668002E049665
S2140819D015DA704204901E4647F0040787E7019917
S2140819E011F8013B2A2B01910BD1D6F800C0331D04
S2140819F0BCF1000F03DA1E464FF0FF3C77E71E46A1
S214081A0075E74FF0000CA3F13000092807D80199B4
S214081A100A2303FB0C0C11F8013B0191F3E74CEA8F
S214081A20EC7C68E747F0800761E701980021303BC7
S214081A300A2404FB013110F8013BA3F13004092CF9
S214081A400190F4D9049156E701990B786C2B02D1D2
S214081A50481C019002E047F0100748E747F02007C7
S214081A6045E7326800258DF838208DF8275004366B
S214081A7057E1BA0607D5073626F0070505F1080622
S214081A80D5E900450FE017F0100F06F1040101D064
S214081A90326805E017F0400F326801D014B200E053
S214081AA01446E5170E46002C75F1000280F2B88041
S214081AB02D23644265EB45058DF82730B0E017F016
S214081AC0200F8DF8272006F1040205D0029C356801
S214081AD0E0172C60686004E0FB0604D533680299BA
S214081AE019601646CFE63068029C17F0400F06F1DC
S214081AF0040614BF04800460C5E647F0100717F014
S214081B00200008D0F31D23F0070505F10806D5E9DF
S214081B10004500207CE017F0100106F1040206D10B
S214081B2017F0400003D0348800251646F1E73668DB
S214081B300025344616466BE0384B30217822346848
S214081B40002547F002078DF828108DF8292004365E
S214081B5005935CE031460025D1F800A00436AC4574
S214081B608DF82750504611DB62462946CDF800C04E
S214081B7001F066FADDF800C0002800F0D680CAEB4F
S214081B800004644540F3D3806446D0E0FFF7C0FD08
S214081B900446CCE047F01007BD0606D5F01D20F039
S214081BA0070404F1080630CC0CE017F0100F06F115
S214081BB0040303D17C0601D5348801E035682C4639
S214081BC000251E46012023E0B80607D5F41D24F09C
S214081BD0070101F10806D1E900450CE017F0100FDF
S214081BE006F1040003D1790601D5348801E0366889
S214081BF0344600250646FA0709D554EA050206D0F3
S214081C0030228DF828208DF8293047F00207022068
S214081C1000218DF8271004E0FA3C08000B3D080068
S214081C200120BCF1000FA8BF27F0800754EA050181
S214081C3002D1BCF1000F5AD001281DD002280DF1A0
S214081C405F0343D004F00702E40844EA4570E90855
S214081C5004460D46303254EA05019A461A7003F1D6
S214081C60FF33EFD1F80755464CD5302A4AD03022F4
S214081C709A4605F8012C45E0002D08BF0A2C05D227
S214081C8030340DF1380A0AF8274F3BE00DF15F03B0
S214081C900393204629460A220023CDF800C001F007
S214081CA02BFD0398303200F8012929460A22002322
S214081CB0DDF80CA00390204601F01EFD04460D46F4
S214081CC054EA0501DDF800C0E3D11BE0059904F0ED
S214081CD00F0024090A5C44EA0570290904460D46E3
S214081CE09A4603F8012954EA0502EFD10AE038B902
S214081CF0F90705D50DF1380A30200AF8270F01E054
S214081D000DF1600A18ADCAEB050465460FE08DF8BC
S214081D102720002B00F0768100258DF838308DF8C6
S214081D20275001240DF1380A01E0644605469DF85F
S214081D302730AC42ACBF21462946039113B103981D
S214081D40421C039217F00201069102D0039B981CCE
S214081D50039017F0840207923CD10499039BCB1A90
S214081D60002B37DDA548102BC8F800001BDD0C99A2
S214081D7010220D98C8F804204A1C1030072A0D9027
S214081D800C9202DC08F108080BE0584649460BAAF4
S214081D900093FFF7C5FC009B002840F03A810DF140
S214081DA0C808103BDEE70D9AC8F80430D1180C9B1B
S214081DB00D91581C07280C9002DC08F1080809E069
S214081DC0584649460BAAFFF7ABFC002840F021818D
S214081DD00DF1C8089DF827200DF12701CAB10C9A05
S214081DE001230D98C8F80430531CC8F80010411C8D
S214081DF0072B0D910C9302DC08F1080809E05846F9
S214081E0049460BAAFFF78CFC002840F002810DF12A
S214081E10C8080698D0B10AA9C8F800100C9902227A
S214081E200D9BC8F804204A1C981C072A0D900C9293
S214081E3002DC08F1080809E0584649460BAAFFF7ED
S214081E406FFC002840F0E5800DF1C808079B802B42
S214081E503CD104980399431A002B37DD684A102BA7
S214081E60C8F800201BDD0C9810210D9AC8F804103D
S214081E70411C103207290D920C9102DC08F1080863
S214081E800BE0584649460BAA0093FFF749FC009B0F
S214081E90002840F0BE800DF1C808103BDEE70C991C
S214081EA00D984A1CC8F80430072A03440D930C9270
S214081EB002DC08F1080809E0584649460BAAFFF76D
S214081EC02FFC002840F0A5800DF1C8082D1B002D1A
S214081ED034DD4B48102DC8F8000019DD0C980D9A13
S214081EE0431C10211032072BC8F804100D920C93CF
S214081EF002DC08F1080809E0584649460BAAFFF72D
S214081F000FFC002840F085800DF1C808103DE0E77A
S214081F100C990D9B4A1CC8F80450072A1D440D95B9
S214081F200C9202DC08F1080808E0584649460BAA55
S214081F30FFF7F6FB00286CD10DF1C8080C9B0D982E
S214081F40591CC8F8044007290444C8F800A00D9492
S214081F500C9102DC08F1080307E0584649460BAA2C
S214081F60FFF7DEFB002854D132AB7A070BD4029871
S214081F70039B04990D9A8B42ACBFC0184018029078
S214081F80002A36D02FE0049C039AA41A002CEEDD13
S214081F901A48102C186015DD0C9A10200D995860F8
S214081FA0501C103107280D910C9001DC083307E00F
S214081FB0584649460BAAFFF7B3FB002829D132AB8F
S214081FC0103CE5E70C995C600D9B4A1C1C19072A17
S214081FD00D940C92CBDD584649460BAAFFF7A0FB9A
S214081FE00028C4D015E0584649460BAAFFF798FBC8
S214081FF078B900250C950DF1C80844E4DA3C0800C9
S214082000EA3C08000D9820B1584649460BAAFFF747
S21408201087FBB9F80C1001F0400213B2002B7FF4CE
S214082020E6AB029833B00DF5806DBDE8F08F30B59D
S2140820301346054A05460C46106829462246BDE85A
S2140820403040FFF7A1BB00BF0800072038B52C4B6F
S214082050054618680C4618B1826B0AB900F09CF958
S214082060A08900F008010BB20BBB00F0100211B2F9
S21408207011B94FF0FF3038BD00F0040003B293B139
S214082080216B41B104F14002914202D0284600F08B
S214082090C1FA00212163A089216920F024030022C7
S2140820A0A38162602160A08940F00803A3812269A9
S2140820B04AB9A18901F42070B0F5007F03D02846FC
S2140820C0214600F03FFDA38913F0010205D061699F
S2140820D000224842A260A06107E003F0020108B2AD
S2140820E008B9636900E01346A360236933B9A28977
S2140820F002F0800108B20028BBD138BD002038BDE8
S214082100080007202DE9F8439846234B06461C6826
S2140821100F46D4F84801914618B904F5A670C4F8D5
S214082120480141681F2916DD1C4818B94FF0FF30D2
S214082130BDE8F8834FF4C87000F070FD0028F5D0AD
S214082140D4F84821002545600260C4F84801C0F864
S2140821508851C0F88C51B6B14468012202FA04F2DC
S214082160D0F8881100EB84031143022EC3F8889038
S214082170C0F888111C46C3F8088104D1D0F88C3101
S2140821801A43C0F88C2141688B1C4A1C40F82370FF
S21408219042600020BDE8F883D43C08001D2C0800E7
S2140821A0024B13B10248FFF7C1B9704700000000A0
S2140821B0391508002DE9F0410C46054618B1836B21
S2140821C00BB900F0E9F8A28932B302F0080001B2B0
S2140821D0002962D1616842F400600029A08102DC0F
S2140821E0E36B002B18DDA66AB6B102F48052002015
S2140821F012B22F6828600AB1226D10E00123284623
S214082200E169B0470246013009D1296839B11D296C
S21408221001D016294ED12F600020BDE8F081A6898E
S21408222006F004010BB22BB16068266B121A0EB1C9
S214082230E16B521AE1690023A66A2846B047411C9A
S21408224005D12A681AB11D2A01D0162A1FD1A389DA
S214082250002123F40062A28103F48053226961609E
S21408226019B2226021B1421C01D12A6802B9206540
S214082270216B2F600029CFD004F14000814202D0A4
S214082280284600F0C7F900202063BDE8F081A3893E
S21408229043F04001A181BDE8F0812669002EBBD03D
S2140822A0920723680CBF62690022C6EB0308266003
S2140822B0A26012E0A38943F04000A0814FF0FF30EF
S2140822C0BDE8F081676A2846E16932464346B84762
S2140822D00028EFDD3618C0EB0808B8F1000FF1DC6F
S2140822E09AE7014620B904480449006800F0C4BBD0
S2140822F0034B1868FFF75EBFD43C0800B5210800FA
S214082300080007200020704700207047014900F0A9
S21408231092BB00BF5D360800002310B50446036074
S2140823204360836081814366C28103614361836140
S2140823301946082200F15C00FFF763F904480549CE
S214082340054A064BE46120626162A262E36210BD40
S21408235091330800B7330800F33308001734080031
S21408236070B568254D430E4605F10C0100F066FC75
S214082370044640B100F10C00002184E84200A06049
S2140823802A46FFF73EF9204670BD024B1868FFF74D
S214082390BDBF00BFD43C080038B5836B0446EBB914
S2140823A00F4A0125C0F8E032C263856304F53B7125
S2140823B003201A46C4F8E402C4F8E8126068042148
S2140823C0FFF7AAFFA06809212A46FFF7A5FFE068DD
S2140823D012210222BDE83840FFF79EBF38BD00BF75
S2140823E00D230800F8B51D4B07461E68B06B10B9DC
S2140823F03046FFF7D1FF06F53876B46871680139BC
S21408240004D4B4F90C5085B16834F8E732680AB1D8
S2140824103668F2E738460421FFF7A2FF3060002846
S214082420F6D10C243C60044615E04FF6FF730120F5
S214082430A081E38165662560A560656025616561A4
S214082440A56104F15C0029460822FFF7DAF825633F
S21408245065636564A5642046F8BD00BFD43C0800E3
S2140824607047704770477047024B0349186800F07A
S214082470E2BA00BF0800072005230800024B0349FC
S214082480186800F0D8BA00BF08000720092308001B
S21408249093892DE9F341144603F40052804610B29E
S2140824A00E4630B9676E43F4005147F40053A181D5
S2140824B0636600F029FB012806D12EB1FF2E03D84B
S2140824C08DF8046007460FE03246404601A904F13D
S2140824D05C0301F009F8421C074605D1A28942F0C0
S2140824E04000A081384631E00025BD422AD0A168C8
S2140824F001AB4A1E002AA2601ADAA06982420CDBE7
S21408250021685A5D0A70236819780A2903D00133AE
S2140825100022236013E0404601E0595D404622460B
S21408252000F088FFB0F1FF31484250EB010206E0A8
S2140825302068595D01702268531C236000E01AB9B0
S2140825400135D2E7304601E04FF0FF30BDE8FC81A8
S214082550F8B5084C074620680E4618B1856B0DB9C5
S214082560FFF71AFF206839463246BDE8F840FFF7FD
S2140825708FBF00BF08000720F8B5234D0E46044657
S21408258000F086FDAB685F6827F0030707F6EF7074
S214082590811B21F47F6222F00F06A6F58056B6F559
S2140825A0805F04DA204600F074FD0020F8BD0021A4
S2140825B0204600F0DDFEAB68D9198842F2D1714298
S2140825C0204600F0D5FE013010D10021204600F04C
S2140825D0CFFEAB68C21A0F2AE4DD0C4942F00102AE
S2140825E009685A60401A0A490860DBE7084BA86879
S2140825F01A68BF1B47F001074760961B20461E60F7
S21408260000F047FD0120F8BDB4040720BC080720E9
S214082610E4090720F8B506460D46002900F0A6800E
S21408262000F036FD55F804CC514FA5F108032CF000
S21408263001029C18B96860688C4220F003000CF010
S21408264001011CD1821839B955F8081C5B1A98681C
S2140826505218D968C1608860454842F0010159603F
S2140826608360444B19688A4204D3434A304611684B
S214082670FFF782FF3046BDE8F84000F00ABD60600C
S21408268059B955F8085C08375B1B52199D68BD4256
S21408269005D0DF68EF60BD6002E0002100E00121A0
S2140826A025186D6815F0010F0FD1121849B9A068E2
S2140826B0324DA84205D1EB60AB60D8609860012126
S2140826C003E0E068A468E060846042F001005860B7
S2140826D09A500029CED1B2F5007F0CD2D2089010BD
S2140826E0012404FA00F4224948682043486001EBB4
S2140826F0C200816835E0540A042C02D8940938349C
S21408270016E0142C01D85B3412E0542C02D8140BB3
S2140827106E340DE0B4F5AA7F02D8D40B773407E000
S21408272040F25455AC4202D8940C7C3400E07E2427
S2140827300F4D05EBC400816881420CD10122A4101C
S21408274002FA04F4686844EA00026A60084608E088
S2140827508968814204D04C6824F00304A242F7D367
S214082760C868D86099608360CB6083E7F8BD00BF0F
S214082770B4040720C0080720E0090720BC04072087
S21408278093682DE9F74F06460C4691460BB900208C
S2140827904FE1888900F008010AB20AB123695BB9DB
S2140827A030462146FFF752FC30B1A189092241F094
S2140827B04000A08132603AE1B4F80CA0D9F8008055
S2140827C00AF0020C0FFA8CF515B34FF0000A5746BC
S2140827D037B9D8F800A0D8F8047008F10808F7E761
S2140827E0B7F5806F34BF3B464FF480633046E169E7
S2140827F05246656AA847002840F31581D9F808109C
S21408280082443F1A081AC9F808000028E0D1BEE733
S2140828101AF0010A04D0AB4601952F46AA46C7E02F
S214082820554635B9D8F800A0D8F8045008F1080875
S214082830F7E7A289D4F808B002F4007003B2002BB8
S21408284052D05D4540D312F4906F3BD063694FF089
S214082850030B0BFB03F32169276802207F1A93FBFF
S214082860F0FC7B1C581902F48062844528BF604639
S21408287013B2019030467BB1019900F0DFF9834628
S21408288098B121693A46FEF7B3FEA18921F4906013
S21408289040F08002A2810BE0019A00F0FBFB834621
S2140828A030B930462169FFF7B5FE0C233360BAE02D
S2140828B001990BEB0703CF1BC4F810B023606161C6
S2140828C0AB46A7605D4500D2AB465A4651462068DF
S2140828D000F0C4FBA0682368CBEB000203EB0B01F7
S2140828E0A2602160AB462AE02068216988420FD999
S2140828F05D450DD951465A4600F0B0FB2268214680
S21408290002EB0B0020603046FFF754FCB8B18AE0B3
S21408291063699D4208D3676A3046E1695246B847FC
S214082920B0F1000B0BDC7EE051462A4600F096FB21
S214082930A2682368501B5919AB46A0602160D9F8D5
S2140829400800DA44CBEB0002CBEB0505C9F80820F3
S214082950002A7FF466AF1AE70198002832D020686C
S2140829602169D34534BF5B4653468842A568D4F8E8
S21408297014E037D97544AB4234DD39462A4600F0B0
S2140829806DFB20682146431923603046FFF712FC8A
S214082990002848D1BBEB050B3DD0D9F808207F1995
S2140829A0C5EB0A0A551BC9F80850002D3FF4EFAED0
S2140829B0BAF1000FD0D1002198E88004019108F1FF
S2140829C00808F5E738460A21524600F039FB20B1D8
S2140829D000F10101C7EB010B01E00AF1010B01222E
S2140829E00192BCE7734508DB656A3046E1693A46FA
S2140829F07346A847051ECDDC15E01A4639460093EF
S214082A0000F02CFB009B2568A068E918C21AA26093
S214082A1021601D46BEE730462146FFF7CBFB10B9BE
S214082A20CDF804B0B9E7A28942F04003A3814FF07D
S214082A30FF30BDE8FE8F2DE9F04104468846FFF7D3
S214082A400FFD04F5387400268CB1A5686768013F49
S214082A500BD4B5F90C3033B1B5F90E00431C02D0CF
S214082A602846C04706436835F1E72468ECE7FFF7D1
S214082A70F8FC3046BDE8F0812DE9F84380468946E3
S214082A80FFF7EEFC08F53874002694B1A568676869
S214082A90013F0CD4B5F90C303BB1B5F90E00431C18
S214082AA003D040462946C84706436835F0E72468F9
S214082AB0EBE7FFF7D6FC3046BDE8F88310B51446BA
S214082AC00AB90C4810BD10460B4900F0A8FC0028AF
S214082AD0F7D02046074900F0A2FC0028F1D020468F
S214082AE0064900F09CFC034B00280CBF1846002043
S214082AF010BD00BFD83C08001C3D0800233D080058
S214082B000048704738040720014B186A704700BF12
S214082B1038040720004870475C04072000207047E8
S214082B20004870477C0407200A460349034608689D
S214082B301946FFF7C3BF00BF0800072000487047C4
S214082B407C040720F0B58B890C4603F002010AB214
S214082B5091B00646002A3FD1B4F90E1000290DDAC6
S214082B60A78907F0800247F4006310B200280CBF5C
S214082B704FF480654025A381002720E001AA00F0D5
S214082B8075FD0028ECDB029800F47045B5F5005397
S214082B905F425F41B5F5004F0BD1A16A1D4A9142CD
S214082BA007D1A3894FF4806543F48061A181E56469
S214082BB005E0A08940F40065A5814FF4806530469D
S214082BC0294600F03BF870B9A38903F4007210B2E6
S214082BD0E8B943F00201A18104F14303012223600E
S214082BE02361626113E0A2890B4942F08003F16316
S214082BF0A3812060206165614FB13046B4F90E109C
S214082C0000F046FD18B1A08940F00101A18111B07D
S214082C10F0BD00BFF33308000D230800024B014641
S214082C20186800F00BB800BF08000720024B0146E2
S214082C301868FFF7EFBC00BF080007202DE9F0472B
S214082C4001F10B04162C064603D934F0070401D507
S214082C5002E010248C4202D20C253560D9E13046B9
S214082C6000F016FAB4F5FC7F14D2A04DE10805EB87
S214082C70C100C568854205D105F108036D698A1C3F
S214082C809D4244D0E868A9686A68C86022F00303D1
S214082C90816059E0620A01D1E2081BE0042A02D8E2
S214082CA0A209383216E0142A01D85B3212E0542AF8
S214082CB002D8220B6E320DE0B2F5AA7F02D8E20BDC
S214082CC0773207E040F254539A4202D8A20C7C327C
S214082CD000E07E22854800EBC203DD689D4215D0E1
S214082CE0696821F00301081B0F2801DD013A0DE091
S214082CF0002809DBEB68AA68D3609A606B185A68E4
S214082D0042F00100586090E1ED68E7E70132774944
S214082D100D6901F10807BD4268D0686820F0030312
S214082D20181B0F280CDD2B194B610B6144F00104AE
S214082D3040F001016C60DF609F605960185074E1D4
S214082D4000284F610F6101DBEB18D8E7B3F5007F69
S214082D500FD2DB089810012707FA00F748680743E0
S214082D604F6001EBC3018B68E960AB60DD608D6086
S214082D703CE0580A042802D89809383016E0142887
S214082D8001D85B3012E0542802D8180B6E300DE0DC
S214082D90B0F5AA7F02D8D80B773007E040F2545730
S214082DA0B84202D8980C7C3000E07E20DFF83CE180
S214082DB00EEBC007B968B9420ED18710012303FA93
S214082DC007F0DEF8047040EA0703CEF80430084639
S214082DD008E08968B94204D0486820F003008342B6
S214082DE0F7D3C868E860A960CD60856095100120B3
S214082DF000FA05F33D4F79688B425DD80B4205D142
S214082E0022F003025B0004320B42FBD0374D10461B
S214082E1005EBC20E7746FD68BD422DD0696821F0E5
S214082E20030CC4EB0C010F2913DD2B1944F0010425
S214082E30EA686C6055F8080F5950C26090602B4AD3
S214082E4041F00100536113610832DA609A605860F5
S214082E500CE000290EDB05EB0C004268E96842F03E
S214082E600103436055F8080FC1608860304600F0DB
S214082E7010F9DEE0ED68CFE70130810705F10807B5
S214082E80C9D17146950705D1184A556825EA03053C
S214082E90556005E0A1F108070968013AB942F1D082
S214082EA0124F5B007F68BB4206D82BB102463B42F6
S214082EB0ACD104325B00FAE70C4B9F681946786879
S214082EC020F00309A14504D3C4EB09000F2800F33A
S214082ED0A280074AD1F808341568013307EB090AB7
S214082EE004EB050806D108F110080BE0B404072027
S214082EF0E009072008F5805000F10F0121F47F62F1
S214082F0022F00F083046414600F032FA421C0546C9
S214082F1071D0504502D2484B9F426CD14748554520
S214082F204168454A08EB0103436007D1290505D1E6
S214082F309568C84448F00100686051E0D2F8080473
S214082F40421C03D13C4AC2F8085405E0CAEB050AFD
S214082F5003EB0A01394B596015F007001CBFC0F196
S214082F6008002D1805EB080C00F580514FEA0C5E9A
S214082F70A1EB1E584146304600F0FAF92F4A431C8A
S214082F80536808BF4FF0000808EB030108BF28463F
S214082F905160401B284A00EB080343F001019742A2
S214082FA0956069601CD0B9F10F0F02D801226A60DB
S214082FB021E07D68A9F10C0929F0070905F001024E
S214082FC0052107EB090349EA0200B9F10F0F7860FB
S214082FD05960996004D9304607F10801FFF71AFBD3
S214082FE0164A5368D16A156B8B4288BFD362AB42C8
S214082FF084BF124D2B6310488268536823F0030180
S214083000A142C4EB010001D30F2804DC304600F0CF
S21408301040F800250DE0084A44F00103956840F0A2
S21408302001012C196B6094606160304600F031F83D
S21408303008352846BDE8F087B4040720E0090720CD
S21408304010B5C9B2034682189342184604D00478CD
S21408305001338C42F8D100E0002010BD814270B5E3
S2140830600ED28C18A0420BD28518134613F1FF33E4
S21408307005D351426618F65C6918CE54F6E770BD5B
S2140830800023934203D0CC5CC4540133F9E770BDE7
S214083090704770472DE9F84F814616460C4621B909
S2140830A01146BDE8F84FFFF7C9BDFFF7F1FF06F177
S2140830B00B0754F8045C162FA4F1080B25F0030838
S2140830C003D937F0070701D502E01027B74204D224
S2140830D00C20C9F80000002645E1B84580F21A81A0
S2140830E0A24A0BEB080391688B4206D0586820F07A
S2140830F0010298184268D00726D45A688B4222F0F4
S214083100030000EB080A18D107F1100292451DDBF0
S214083110C7EB0A0A0BEB07054AF00101696054F889
S214083120042C924E02F001031F43B56044F8047C59
S2140831304846FFF7AEFF264615E1BA4506DBDD68CA
S2140831409E68F560AE60E6E000200346EA0700F1F8
S214083150918054F8085CC5EB0B056A6822F00302F8
S214083160002B51D002EB080A8B42824445D107F166
S21408317010039A4548DB2E46E96856F8083FA8F13A
S2140831800402242AD9608B6025D8132A1BD9216803
S2140831901B2AA9606368EB6003D805F110000834A1
S2140831A012E0A068242A2861E168696103D005F165
S2140831B01800103408E0226905F12000AA61636946
S2140831C01834EB6100E030462168016062684260AE
S2140831D0A368836003E030462146FFF73FFFC7EB4E
S2140831E00A0AE8194AF0010242606B685F4988607B
S2140831F003F0010007436F6088E0BA4504DBD9682E
S2140832009868C160886003E002EB080ABA4531DBBB
S2140832102846EB6850F8081FA8F10402242ACB6059
S214083220996023D8132A1AD920681B2AA8606668CA
S214083230EE6003D805F11000083410E0A368242ACD
S2140832402B61E168696103D005F11800103406E0C7
S2140832502269AA6160691834E86105F120002668C9
S214083260066063684360A168816055E02146FFF701
S214083270F5FE51E031464846FFF7E0FC06460028D2
S21408328044D054F8041CA0F1080221F001030BEB0B
S21408329003018A4206D150F8046C26F0030505EBB4
S2140832A0080A38E0A8F10402242A28D8132A1ED9C6
S2140832B023681B2A03606168416004D800F108008F
S2140832C004F1080214E0A068242AB060E368F360FA
S2140832D004D006F1100004F1100209E0226906F194
S2140832E018003261616904F11802716100E0224633
S2140832F013680360516841609268826002E0214664
S214083300FFF7ACFE48462146FFF784F94846FFF724
S214083310C0FE28E0C2465D46C7EB0A000F286A686A
S21408332011D902F00106E91940F0010337436F602E
S21408333008184B604268083142F001064660484665
S214083340FFF768F90AE002F001064AEA06036B602E
S21408335005EB0A01486840F001024A604846FFF754
S21408336098FE05F108063046BDE8F88FB404072035
S21408337038B5064C0023054608462360FDF7B0FD21
S214083380431C02D1216801B1296038BD200A0720F4
S21408339010B50C46B1F90E1000F09CF9002803DBB6
S2140833A0226D1318236510BDA38923F48051A181CB
S2140833B010BD002070472DE9F0411D468B890C464C
S2140833C003F4807116460AB207462AB1B4F90E10FD
S2140833D00022022300F06CF9A089B4F90E1020F43C
S2140833E08053A381384632462B46BDE8F04100F0AC
S2140833F0D1B810B50C46B1F90E1000F059F9431CB7
S214083400A38903D123F48052A28110BD43F48051CE
S214083410A181206510BDB1F90E1000F0CDB810F8E6
S214083420012B11F8013B012A28BF9A42F7D0A2EBDC
S2140834300300704770B50D461446064618B1836BF0
S2140834400BB9FEF7A9FFA189A06901F0080213B21B
S214083450A0600BB1206958B930462146FEF7F6FD44
S21408346030B1A589092045F04001A181306017E0F8
S214083470A189EDB201F4005213B233B941F40050F9
S214083480616EA08121F40052626620682369616932
S214083490C01A884207DB30462146FEF78BFE10B17D
S2140834A04FF0FF3515E0A2682168531EA36001F8A7
S2140834B0015B626901309042216004D0A389DB0772
S2140834C007D50A2D05D130462146FEF773FE00289B
S2140834D0E6D1284670BD0A460249034608681946DA
S2140834E0FFF7A8BF080007202DE9F0411D46104B3E
S2140834F086B0044690460E461F6839B9FFF700FBAB
S2140835000095034603A92046324606E0FFF7F8FA78
S21408351000950346314620464246B847431C03D129
S21408352000218A222960226006B0BDE8F08100BF2B
S214083530C408072030B51346044A05460C461068EA
S21408354029462246BDE83040FFF7CEBF08000720D0
S21408355049B1FF2A04D98A2303604FF0FF30704729
S2140835600A7001207047084670472DE9F3419846CF
S214083570074B05460F4616461C68FFF7C1FACDF8F6
S21408358000800346394628463246A047BDE8FC81F7
S214083590C408072038B5074C0546002020600846B2
S2140835A011461A46FCF7DEFE431C02D1236803B117
S2140835B02B6038BD200A072038B5064C0023054680
S2140835C008462360FDF7A4FC431C02D1216801B11C
S2140835D0296038BD200A072070B505460C46002924
S2140835E039D0FEF73DFF25B1AB6B13B92846FEF779
S2140835F0D3FEB4F90C605EB328462146FEF7DAFD22
S214083600E26A06463AB12846E169904736EA200655
S21408361028BF4FF0FF36A08900F080010BB21BB11F
S21408362028462169FEF7F6FF216B41B104F14002F6
S214083630914202D02846FEF7EDFF00202063616C19
S21408364021B12846FEF7E6FF002161640023A38126
S214083650FEF707FF00E00E46304670BD024B0146F7
S2140836601868FFF7B9BF00BF0800072038B5074C31
S21408367000230546084611462360FDF74DFC431C0B
S21408368002D1216801B1296038BD00BF200A072091
S21408369038B5064C0023054608462360FDF742FC6D
S2140836A0431C02D1216801B1296038BD200A0720D1
S2140836B038B5074C054600202060084611461A46CD
S2140836C0FDF734FC431C02D1236803B12B6038BDD8
S2140836D0200A072038B5074C054600202060084613
S2140836E011461A46FCF7FAFD431C02D1236803B1BB
S2140836F02B6038BD200A07204BB942B9002908BFFD
S214083700002802D04FF0FF31084600F03BB882B0E0
S214083710EC462DE9005000F01DF8DDF804E002B094
S2140837200CBC70472DE9F0411646984604460D46EF
S21408373000F02AF806FB01FCA6FB002300FB08C7DE
S214083740FB18A21A65EB0303069CC4E90023BDE830
S214083750F08100BF2DE9F041904606460F461D460B
S21408376000F070F900FB05F3A0FB084508FB0138DC
S214083770069B4544341B67EB0505C3E90045BDE8D1
S214083780F08100BF704700BF00292DE9F00F1D46E5
S214083790C0F29D800024002DC0F2948080460F461B
S2140837A094461E46E3BB8A4255D9B2FA82F747B119
S2140837B0C7F1200520FA05F601FA07F1BA40B84025
S2140837C03143170CB1FBF7F61FFA82FC07FB1611FC
S2140837D00CFB06F5030C43EA01439D4208D9711E0B
S2140837E09B1880F013819D4240F21081023E9B1880
S2140837F0591BB1FBF7F507FB15130CFB05FC80B24C
S21408380040EA03418C4507D96B1E8A1880F0008170
S214083810944540F2FD80023D45EA0641002503E056
S2140838208B420CD9002529460A462B4614B152422B
S21408383063EB430310461946BDE8F00F7047B3FA2A
S21408384083F5002D40F087808B4201D38242EAD868
S21408385000250121E8E712B90126B6FBF2F2B2FA12
S21408386082F6002E39D18E1A130C1FFA82FC012517
S214083870B6FBF3F703FB17610CFB07F84FEA104992
S21408388049EA0146B04506D9791EB61802D2B045AF
S21408389000F2D3800F46C8EB0606B6FBF3F103FB2F
S2140838A011630CFB01FC80B240EA03439C4506D931
S2140838B04E1E9A1802D2944500F2C280314641EA5A
S2140838C00741B1E7E443524263EB430366E74042ED
S2140838D061EB41014FF0FF345DE7B240C6F12009C5
S2140838E021FA09F720FA09F901FA06F1130CB7FBD1
S2140838F0F3F81FFA82FC03FB18770CFB08F549EA75
S21408390001094FEA194141EA0747B040BD420AD9C2
S214083910BF1808F1FF3680F08E80BD4240F28B80DB
S214083920A8F10208BF18791BB1FBF3F503FB1517BE
S2140839300CFB05F61FFA89F949EA07418E4206D9B3
S2140839406F1E891871D28E426FD9023D89188E1B58
S21408395045EA08458CE7C5F1200122FA01F306FA84
S21408396005F627FA01F207FA05F720FA01F11E43D1
S2140839704FEA1649B2FBF9F81FFA86FA09FB18222D
S2140839800AFB08FB0F433B0C43EA024293450CFA3A
S21408399005FC08D9921908F1FF314AD2934548D94F
S2140839A0A8F102089219CBEB0203B3FBF9F109FB65
S2140839B011320AFB01FABFB247EA02439A4506D912
S2140839C04A1E9B1933D29A4531D902399B1941EAC6
S2140839D008410F0C1FFA8CF808FB07F68AB24FEA64
S2140839E01C4C08FB02F80CFB02620CFB07FC02EB03
S2140839F01842964288BF0CF5803CCAEB03030CEBD2
S214083A00124C63450ED305D000250DE70E46EFE6AB
S214083A101D4601E700FA05F01FFA88F808EB02458C
S214083A20A842F1D201390025FEE63D468FE7114649
S214083A30CDE78846B7E7B04675E7023FB6182AE7E7
S214083A4002393CE72DE9F007144605460E46002BDA
S214083A503DD18A4249D9B2FA82F747B1C7F1200167
S214083A6020FA01F206FA07F6BC40BD401643220CBF
S214083A70B6FBF2F0A1B202FB106601FB00F32F0CB6
S214083A8047EA0646B34208D9471E361980F0FA8038
S214083A90B34240F2F78002383619F61AB6FBF2F34C
S214083AA002FB136201FB03F1ADB245EA0242914202
S214083AB007D95E1E121980F0E780914240F2E48032
S214083AC0023B43EA00400021BDE8F00770478B42FE
S214083AD043D8B3FA83F4002C42D18B4202D38242F5
S214083AE000F2E18000210120EEE712B90127B7FBBA
S214083AF0F2F4B4FA84F2002A40F089800A1B230CF8
S214083B00A7B20121B2FBF3F603FB162207FB06F069
S214083B104FEA154C4CEA0242904207D9121906F1B0
S214083B20FF3C02D2904200F2D0806646121AB2FBE0
S214083B30F3F003FB102307FB00F7ADB245EA034397
S214083B409F4207D9421E1B1980F0A0809F4240F270
S214083B509D80023840EA0640B6E700210846B3E7EB
S214083B60C4F1200622FA06F703FA04F321FA06F54A
S214083B7001FA04F120FA06F63B434FEA134CB5FB6C
S214083B80FCF71FFA83F80CFB175508FB07F946EAFB
S214083B90010A4FEA1A4141EA0545A94502FA04F224
S214083BA004D97E1EED18C0F081803746C9EB0501A2
S214083BB0B1FBFCF60CFB161508FB06F81FFA8AFA8A
S214083BC04AEA0541884503D9751EC91874D32E4696
S214083BD046EA0746370C1FFA82FC0CFB07F5120C60
S214083BE0B3B20CFB03FC02FB035302FB07F203EB26
S214083BF01C439D4288BF02F58032C8EB010102EBE8
S214083C00134291424CD343D0304600215CE794409F
S214083C10C2F1200521FA05F620FA05F501FA02F1A7
S214083C20230CB6FBF3FCA7B203FB1C6607FB0CF8D9
S214083C3029430D0C45EA0646B04500FA02F508D9B0
S214083C4036190CF1FF303ED2B0453CD9ACF1020C27
S214083C503619C8EB0602B2FBF3F003FB102607FB87
S214083C6000F889B241EA0642904506D9461E12195E
S214083C7027D2904525D902381219C8EB020240EA25
S214083C800C413FE7384608E733461AE7104661E72F
S214083C9000FA04F01FFA8CFC0CEB03439842B3D2EC
S214083CA0701E002110E7214620460DE7A9457FF63D
S214083CB07CAF023FED1879E7884588D9023EC918D7
S214083CC086E73046D9E78446C3E7023E12192DE751
S214083CD025640A001000072043002020202020200A
S214083CE02020202020202020202030303030303067
S214083CF030303030303030303030303132333435A8
S214083D003637383941424344454600303132333439
S214083D10353637383961626364656600504F5349F3
S214083D2058002E00F8B500BFF8BC08BC9E46704781
S214083D30A12108006D010800F8B500BFF8BC08BC52
S20C083D409E4670474501080085
S20C083D4840FAFF7F01000000AD
S214083D5000093D00FFFFFFFF1000072000000000DD
S214083D6000000000FC02072064030720CC0307209D
S214083D700000000000000000000000000000000036
S214083D800000000000000000000000000000000026
S214083D9000000000D83C08000000000000000000FA
S214083DA00000000000000000000000000000000006
S214083DB000000000000000000000000000000000F6
S214083DC000000000000000000000000000000000E6
S214083DD000000000000000000000000000000000D6
S214083DE000000000000000000000000000000000C6
S214083DF000000000000000000000000000000000B6
S214083E0000000000000000000100000000000000A4
S214083E100E33CDAB34126DE6ECDE05000B00000069
S214083E200000000000000000000000000000000085
S214083E300000000000000000000000000000000075
S214083E400000000000000000000000000000000065
S214083E500000000000000000000000000000000055
S21408418000000000000000004153434949000000B9
S2140841900000000000000000000000000000000012
S2140841A000000000000000000100000041534349E1
S2140841B049000000000000000000000000000000A9
S2140841C0000000000000000000000000223D08007B
S2140841D0233D0800233D0800233D0800233D080032
S2140841E0233D0800233D0800233D0800233D080022
S2140841F0233D0800FFFFFFFFFFFFFFFFFFFFFFFF56
S214084200FFFF00000000000000000000B4040720C4
S214084210B4040720BC040720BC040720C4040720F5
S214084220C4040720CC040720CC040720D4040720A5
S214084230D4040720DC040720DC040720E404072055
S214084240E4040720EC040720EC040720F404072005
S214084250F4040720FC040720FC04072004050720B4
S214084260040507200C0507200C0507201405072061
S214084270140507201C0507201C0507202405072011
S214084280240507202C0507202C05072034050720C1
S214084290340507203C0507203C0507204405072071
S2140842A0440507204C0507204C0507205405072021
S2140842B0540507205C0507205C05072064050720D1
S2140842C0640507206C0507206C0507207405072081
S2140842D0740507207C0507207C0507208405072031
S2140842E0840507208C0507208C05072094050720E1
S2140842F0940507209C0507209C050720A405072091
S214084300A4050720AC050720AC050720B405072040
S214084310B4050720BC050720BC050720C4050720F0
S214084320C4050720CC050720CC050720D4050720A0
S214084330D4050720DC050720DC050720E405072050
S214084340E4050720EC050720EC050720F405072000
S214084350F4050720FC050720FC05072004060720AF
S214084360040607200C0607200C060720140607205C
S214084370140607201C0607201C060720240607200C
S214084380240607202C0607202C06072034060720BC
S214084390340607203C0607203C060720440607206C
S2140843A0440607204C0607204C060720540607201C
S2140843B0540607205C0607205C06072064060720CC
S2140843C0640607206C0607206C060720740607207C
S2140843D0740607207C0607207C060720840607202C
S2140843E0840607208C0607208C06072094060720DC
S2140843F0940607209C0607209C060720A40607208C
S214084400A4060720AC060720AC060720B40607203B
S214084410B4060720BC060720BC060720C4060720EB
S214084420C4060720CC060720CC060720D40607209B
S214084430D4060720DC060720DC060720E40607204B
S214084440E4060720EC060720EC060720F4060720FB
S214084450F4060720FC060720FC06072004070720AA
S214084460040707200C0707200C0707201407072057
S214084470140707201C0707201C0707202407072007
S214084480240707202C0707202C07072034070720B7
S214084490340707203C0707203C0707204407072067
S2140844A0440707204C0707204C0707205407072017
S2140844B0540707205C0707205C07072064070720C7
S2140844C0640707206C0707206C0707207407072077
S2140844D0740707207C0707207C0707208407072027
S2140844E0840707208C0707208C07072094070720D7
S2140844F0940707209C0707209C070720A407072087
S214084500A4070720AC070720AC070720B407072036
S214084510B4070720BC070720BC070720C4070720E6
S214084520C4070720CC070720CC070720D407072096
S214084530D4070720DC070720DC070720E407072046
S214084540E4070720EC070720EC070720F4070720F6
S214084550F4070720FC070720FC07072004080720A5
S214084560040807200C0807200C0807201408072052
S214084570140807201C0807201C0807202408072002
S214084580240807202C0807202C08072034080720B2
S214084590340807203C0807203C0807204408072062
S2140845A0440807204C0807204C0807205408072012
S2140845B0540807205C0807205C08072064080720C2
S2140845C0640807206C0807206C0807207408072072
S2140845D0740807207C0807207C0807208408072022
S2140845E0840807208C0807208C08072094080720D2
S2140845F0940807209C0807209C080720A408072082
S214084600A4080720AC080720AC080720FFFFFFFF18
S20C084610000002005135080005
S804080B45A3
