:0200000280007C
:1000000080CC0720AD140800A9140800A91408002A
:10001000A9140800A9140800A91408000000000091
:100020000000000000000000000000007919080036
:10003000A914080000000000091A0800451A080069
:10004000A9140800A9140800A9140800A91408009C
:10005000A9140800A9140800A9140800A91408008C
:10006000A9140800A914080000000000B90E080037
:10007000D50E0800F10E08000D0F0800000000006A
:1000800000000000A9140800A9140800A914080021
:10009000A9140800A9140800A9140800A91408004C
:1000A000A914080000000000A9140800A914080001
:1000B000A9140800A9140800A9140800A91408002C
:1000C000A9140800A9140800A9140800A91408001C
:1000D000A9140800A9140800A9140800A91408000C
:1000E000A9140800A9140800A9140800A9140800FC
:1000F000A914080008B50548054B191A062900D8A7
:1001000008BD044A002AFBD09047F9E7ECAA080092
:10011000EFAA08000000000008B50748074B191AAD
:100120008A1002EBD273591000D108BD044A002A8C
:10013000FBD09047F9E700BFECAA0800ECAA080042
:100140000000000010B5064C237843B9FFF7D2FF3A
:10015000044810B10448AFF300800121217010BDA4
:100160000009072000000000ECAA080008B5084BB1
:100170001BB108480849AFF300800848016811B175
:10018000074A02B19047BDE80840FFF7C5BF00BF6E
:1001900000000000ECAA080004090720ECAA0800EF
:1001A0000000000010B54FF43D40C0F2015041F294
:1001B000AD73C0F2080398474FF000004FF03E01C6
:1001C00040F6C972C0F20802904741F23904C0F209
:1001D0000804A0470028FCD041F24900C0F2080002
:1001E00080474FF4C061C4F20E0143F60173C2F2BE
:1001F0000D038B6241F25904C0F20804A0470028A5
:10020000FCD04FF0100040F62972C0F2080290476F
:1002100041F2E550C0F20800804710BD10B54FF024
:100220001B0041F26903C0F2080398474FF0000435
:10023000C4F2080420464FF000010A4641F2C533DB
:10024000C0F20803984720464FF0000141F2E13226
:10025000C0F20802904720464FF0000141F2E93316
:10026000C0F2080398474FF0000010BD30B585B0CC
:100270004FF46064C4F20E0420464FF000614FF466
:1002800040724FF0000340F6F935C0F20805A84768
:100290004FF0080041F26903C0F2080398474FF09D
:1002A000000003904FF43D41C0F2015100914FF422
:1002B000E13201924FF4006302934FF48070606664
:1002C00060656062C4F88000216F21F4807222674B
:1002D0004FF40060C4F20E00694641F2F533C0F2FB
:1002E0000803984705B030BD40F61403C4F20E036E
:1002F000186800F00100704700B585B04FF00003AA
:1003000001930293ADF80C304AF2E060C0F20800AD
:1003100001A943F6CD72C0F20802904701A843F646
:10032000E961C0F20801884705B000BD00B585B09D
:100330004FF0000301930293ADF80C304AF2E060F5
:10034000C0F2080001A943F6CD72C0F2080290473E
:1003500001A843F6E961C0F20801884743F69D63AE
:10036000C0F208039847C0B205B000BD00B583B025
:100370004FF40060C4F20E000DF1070141F2514349
:10038000C0F2080398479DF8070003B000BD00BF06
:100390002DE9F04784B042F2C163C0F208039847E8
:1003A000039040F26D20C0F20800804740F2E9243B
:1003B000C0F208044FF48055C4F20E054AF2E46717
:1003C000C0F208074AF66238C2F20708A0470028C0
:1003D0003BD040F26D30C0F208008047012863D165
:1003E000E96B11F0006F5FD140F22D36C0F20806C4
:1003F000B0474AF64032C2F20702107040F2F926C6
:10040000C0F20806B0474AF65033C2F20703C3E908
:100410000001B0474AF64832C2F20702C2E90001C1
:10042000B0474AF65833C2F20703C3E90001B047A8
:100430004AF63836C2F20706C6E900014FF00060FE
:100440002861C5F8A00028632EE0E96B11F0006F69
:100450002AD068463946B8F9002044F2491AC0F259
:10046000080AD0474AF2E869C0F2080948466946D6
:1004700043F66976C0F20806B047684639464AF640
:100480006832C2F20702B2F90020D04748466946F6
:10049000B047684639464AF66033C2F207031A8805
:1004A000D04748466946B04703A84FF0640142F67A
:1004B0006122C0F20802904788E700BF4FF4A053C2
:1004C000C4F20E034FF480721A61C3F8A0201A63BD
:1004D0004FF49050C4F20E004FF400110161C0F8C7
:1004E000A0104163704700BF2DE9F04F8DB042F27C
:1004F000C163C0F2080398470B904FF48050C4F2D8
:100500000E004FF000620261C0F8A02042F66121A7
:100510000D46C0F208054FF48054C4F20E0440F6B4
:100520000906C0F2080608964AF66037C2F20707C5
:1005300009970BA84FF06401A847E36B13F0006F15
:10054000F7D008988047099A10804AF64031C2F2E5
:1005500007010E78371ABFB24AF66833C2F20703B2
:100560001F804AF65030C2F20700D0E90023CDE9DF
:10057000022339B2059143F6AD1AC0F2080A0846C3
:10058000D04743F67928C0F20808DDE90223C047C6
:1005900043F69D69C0F20809C84786B2069640F640
:1005A0002013C2F20703188040F62210C2F207009F
:1005B000B0F900B04AF66432C2F2070211680BEBE0
:1005C000010010604AF638363346C2F20703D3E919
:1005D0000023CDE90023D047DDE90023C04743F6DF
:1005E000CD46C0F208064AF64833C2F20703D3E903
:1005F0000023B04702460B46DDE90201C047C84769
:1006000081B2079140F61C12C2F2070210804AF62E
:100610005830C2F2070003C8DDE90023B047CDE936
:100620000001059ECBEB0600D04702460B46DDE9F4
:100630000001C04702460B46DDE90201C047C8473A
:1006400040F61E13C2F2070318800699079A01EBC1
:10065000020C0CEB000A1FFA8AF84AF66230C2F26A
:100660000700A0F8008040F62216C2F20706378085
:100670000FFA88F7642F07DD4AF66236C2F20706E2
:100680004FF0640737800EE04AF66233C2F2070388
:10069000B3F90010002906DA4AF66230C2F2070008
:1006A0004FF0000202804AF66233C2F20703B3F948
:1006B000000040F26571C0F20801884739E700BFC9
:1006C00030B585B04FF0240041F26903C0F2080351
:1006D00098474FF48044C4F2090420464FF00001CB
:1006E00041F2B932C0F20802904748F2A060C0F26D
:1006F000010001904FF0000502954FF43D41C0F21A
:1007000001510391204601A941F21123C0F20803CF
:10071000984740F62411C2F207014FF00B024A60DD
:100720004FF064000861CD600D60204641F25D230A
:10073000C0F2080398474FF48050C4F20E004FF007
:1007400080514FF4803240F62933C0F208039847B5
:100750002046294641F2AD32C0F20802904705B06A
:1007600030BD00BF08B502464FF48040C4F2090016
:1007700040F62411C2F2070141F28933C0F20803A6
:10078000984708BD38B54FF0250041F26903C0F223
:10079000080398474FF00004C4F20C0420464FF4BD
:1007A000F441C0F6032144F24022C0F20F024FF0A0
:1007B000080340F66D25C0F20805A84720464FF013
:1007C00000014FF440124FF0010340F6D525C0F26E
:1007D0000805A84720464FF0000140F6B522C0F2B8
:1007E0000802904720464FF00A0140F6FD23C0F270
:1007F0000803984720464FF000010A4640F6C523FB
:10080000C0F20803984738BD10B54FF00004C4F299
:100810000C04204640F6F523C0F208039847204612
:100820004FF00A0140F60932C0F20802904780B248
:1008300040F25E61884221D9A0F25F639AB2812AB8
:100840001FD9A0F2E1618BB2812B1DD9A0F2637296
:1008500091B2B1F5917F1AD3A0F685039AB2B2F5A1
:10086000937F17D9A0F6AC118BB2B3F5A27F14D940
:10087000B0F52F6F8CBF3220002010BD4FF0140058
:1008800010BD4FF0190010BD4FF01E0010BD4FF00D
:10089000230010BD4FF0280010BD4FF02D0010BDFB
:1008A0002DE9F8430C46904648BB002A2BDD8F18F3
:1008B0004AF67436C2F207064AF66C35C2F20705EC
:1008C0006FEA010907EB090000F0010930682B68A5
:1008D000984704F10104BC4219D10DE030682B683F
:1008E0002146984704F10104214630682A68904760
:1008F00004F10104BC42F1D14046BDE8F8834FF059
:10090000FF30BDE8F8834FF00000BDE8F883B9F18F
:10091000000FE3D030682A682146904704F10104B3
:10092000BC42DBD1E8E700BF2DE9F8430D46904615
:1009300000F1FF30022824D832B34AF67436C2F2EE
:1009400007064AF67037C2F207074FF0000402F1BB
:10095000FF3909F0010930683B68095D9847A042FA
:100960001ADA14E030683B68295D984700280EDBEE
:1009700004F1010430683A68295D904700281DDAC7
:1009800005E04FF0FF3404E04FF0000401E04FF0C9
:10099000FF342046BDE8F88304F10104A045F8D0F7
:1009A000B9F1000FDED030683A68295D9047002821
:1009B000EDDB04F10104A045D4D1EAE704F1010420
:1009C000A045CFD1E5E700BF10B541F65023C4F2F2
:1009D0000E034FF400425A604FF00B0041F26904DD
:1009E000C0F20804A0474FF00C00A0474FF00D00E4
:1009F000A0474FF00E00A0474FF03B004FF0605172
:100A000040F69D44C0F20804A0474FF055004FF057
:100A10006051A0474FF056004FF06051A0474FF093
:100A200068004FF07901C2F60001A0474FF05C006A
:100A30004FF00101C2F60001A0474FF46060C4F21C
:100A40000E004FF440714FF0006240F69D53C0F22B
:100A5000080398474FF02B004FF00061A0474FF07C
:100A60002A004FF00061A04710BD00BF30B44FF026
:100A7000010404604FF00004446040F20225C0F815
:100A80002051C0F80441C0F8144145684FEA4202C1
:100A9000B1FBF2F101F1FF324FEA02614FEA034389
:100AA00003F4702242EA11410D434560204630BCF8
:100AB000704700BF43684FEA011101F01002134371
:100AC00043607047436819434FEAC212D3B21943D7
:100AD0004160704710B4446822434FEA016101F05D
:100AE000706422434FEA037303F040510A434260AB
:100AF00010BC70474FF00203036070474FF00103D2
:100B000003FA01F1016170470F2904D801F11401C2
:100B100050F8210070474FF0000070470AB141665D
:100B200070470166704700BF4264B1F1805F16D024
:100B300004D8C9B1B1F1006F15D109E0B1F1405F3E
:100B400012D0B1F1605F0FD0B1F1205F0BD17047CF
:100B5000036F016F0B4023EA0203036703E0036F97
:100B600042EA030101674260704700BF4164704779
:100B7000F8B504460D4616461F4640F66D33C0F2E2
:100B80000803984720462946069A40F61D33C0F2CE
:100B9000080398470FB1256500E065650EB1256330
:100BA00000E0656325612560F8BD00BF70B50446AF
:100BB0000D46164640F66D33C0F2080398472046AE
:100BC000294606F0010240F61D33C0F2080398479B
:100BD00016F00A0F14BF2562656216F0020F02D0EC
:100BE000C4F8805004E016F0080F18BFC4F8805015
:100BF0006561256070BD00BFF0B583B007460C4647
:100C000016461D46B1F1205F22D006D8B1F1006F23
:100C10000AD0B1F1805F39D106E0B1F1405F21D057
:100C2000B1F1605F32D11DE038462146324640F6D0
:100C30002933C0F2080398473846314605F00102CF
:100C400040F61D33C0F2080398474FF001001FE043
:100C500011461A4640F6AD33C0F2080398474FF0EC
:100C6000010015E005F00100009038463146B4F16E
:100C7000605F14BF00220122C5F3800340F6713487
:100C8000C0F20804A0474FF0010001E04FF000005F
:100C900003B0F0BDC06C7047806C7047F0B583B096
:100CA0000D464FEA501606F5001101F207724FEAA1
:100CB000422605F0F044B4F1205F42D006D8B4F1EA
:100CC000006F0AD0B4F1805F64D120E0B4F1405FDE
:100CD00046D0B4F1605F5DD142E000F01F074FF0F5
:100CE000010404FA07F730464FF000613A4640F637
:100CF0002933C0F2080398473046394605EA040212
:100D000040F61D33C0F208039847204644E000F047
:100D10001F004FF0010404FA00F730464FF08051F5
:100D20003A4640F62933C0F2080398473046394620
:100D300005EA040240F61D33C0F208039847204636
:100D40002AE000F01F024FF00104304604FA02F1DD
:100D50002A4640F6AD33C0F20803984720461BE010
:100D600000F01F024FF0010405F0605305EA040192
:100D70000091304604FA02F1B3F1605F14BF002223
:100D80000122C5F3800340F67135C0F20805A8477B
:100D9000204601E04FF0000003B0F0BDF0B583B095
:100DA00007460E46154602F0F044B4F1205F36D0F7
:100DB00006D8B4F1006F0AD0B4F1805F4DD11AE0CB
:100DC000B4F1405F33D0B4F1605F46D12FE04FF013
:100DD0000061324640F62933C0F20803984738468E
:100DE000314605F0010240F61D33C0F20803984772
:100DF0004FF0010033E04FF08051324640F6293386
:100E0000C0F2080398473846314605F0010240F623
:100E10001D33C0F2080398474FF001001FE040F671
:100E2000AD33C0F2080398474FF0010017E005F01A
:100E3000605205F00100009038463146B2F1605F23
:100E400014BF00220122C5F3800340F67134C0F2C2
:100E50000804A0474FF0010001E04FF0000003B08C
:100E6000F0BD00BFF8B504460E4640F69543C0F20B
:100E7000080398470546204640F69941C0F208010C
:100E80008847054014D00B4C274654F80C0CB04250
:100E90000AD154F8081C294206D0226830469047EF
:100EA00054F8083C25EA030504F11004002DEBD1A9
:100EB000F8BD00BF5809072008B54FF46060C4F2C0
:100EC0000E004FF00B0140F66563C0F2080398472F
:100ED00008BD00BF08B54FF48050C4F20E004FF0BB
:100EE0000C0140F66563C0F20803984708BD00BFD7
:100EF00008B54FF49050C4F20E004FF00D0140F6CB
:100F00006563C0F20803984708BD00BF08B54FF4F9
:100F1000A050C4F20E004FF00E0140F66563C0F21F
:100F20000803984708BD00BF4FF4C063C4F20E0326
:100F30001A6B22F0700108431863986E10F0080FC6
:100F400007D010E000F1FF33906E10F0080F38D09A
:100F500009E04FF400604FF4C062C4F20E02916EDB
:100F600011F0080FEED04FF4C061C4F20E010A6B0D
:100F700022F0030343F002000863896E11F0080FAA
:100F800009D04FF00000704703F1FF33916E11F06C
:100F9000080F13D009E04FF400634FF4C062C4F2AD
:100FA0000E02906E10F0080FEED04FF00000704768
:100FB0004FF0010070474FF001007047013BF0D146
:100FC000F9E7581ECBD1F3E788B14FF4C061C4F202
:100FD0000E01086A4FF6FC72CFF6C86202404FF06D
:100FE0000203C0F2371342EA0300086270474FF46D
:100FF000C063C4F20E031A6A22F45C1020F00302EC
:1010000042F45C1040F001024FEA016142EA1140F3
:1010100018624FF4C062C4F20E02936E13F0010F17
:10102000FBD04FF4C061C4F20E01086A40F09B721D
:1010300042F480330B6270474FF4C063C4F20E0376
:10104000986E00F4803070474FF4C063C4F20E0312
:101050004FF000529A6270474FF4C063C4F20E031F
:10106000986E00F0020070472C2835D81F2817D83A
:101070004FF4C061C4F20E018A694FF0010303FA14
:1010800000F31A4093422AD04FF0010101FA00F018
:101090004FF4C062C4F20E0210614FF000007047BE
:1010A0004FF4C063C4F20E03D3F80821A0F120006E
:1010B0004FF0010101FA00F10A40914212D04FF0C5
:1010C000010303FA00F04FF4C062C4F20E02C2F84A
:1010D00000014FF0000070474FF0010070474FF0E3
:1010E000000070474FF00000704700BFF0B48CB0B4
:1010F00006460F4601AC4AF2EC65C0F208050FCD7A
:101100000FC40FCD0FC495E8070084E80700019BCA
:10111000B7FBF3F0B0FBF6F1B1F5807F52D902993D
:10112000B7FBF1F2B2FBF6F1B1F5807F4FD9039B2B
:10113000B7FBF3F0B0FBF6F1B1F5807F4AD9049923
:10114000B7FBF1F2B2FBF6F1B1F5807F45D9059B13
:10115000B7FBF3F0B0FBF6F1B1F5807F40D906990B
:10116000B7FBF1F2B2FBF6F1B1F5807F3BD9079BFB
:10117000B7FBF3F0B0FBF6F1B1F5807F36D90899F3
:10118000B7FBF1F2B2FBF6F1B1F5807F31D9099BE3
:10119000B7FBF3F0B0FBF6F1B1F5807F2CD90A99DB
:1011A000B7FBF1F2B2FBF6F1B1F5807F27D90B9BCB
:1011B000B7FBF3F0B0FBF6F1B1F5807F22D94FF623
:1011C000FF7022E04FF0000241EA02201DE04FF0E4
:1011D0000102F9E74FF00202F6E74FF00302F3E7EE
:1011E0004FF00402F0E74FF00502EDE74FF0060282
:1011F000EAE74FF00702E7E74FF00802E4E74FF0B5
:101200000902E1E74FF00A02DEE70CB0F0BC7047DC
:1012100070B506460C46086858B1896841F2ED037E
:10122000C0F2080398474FF6FF71884214D0054674
:1012300001E04FF00005606858B1A16841F2ED028D
:10124000C0F2080290474FF6FF73984204D045EA77
:10125000004535604FF0000070BD00BF70B40B68F2
:101260004FF0010202FA03F28E8A4C6804F00F0577
:101270002E430C8926438D7A46EA45268C7D46EA24
:101280000445CE7D45EA46450C7E45EA844603F199
:1012900010054FEA451405190651CC686C600C69BD
:1012A00000EB4315C5F80C428C7D3CB18D8B4C8B0B
:1012B00044EA054500EB4314C4F81852CD7F05FA03
:1012C00003F58C7F04FA03F444EA0545856491F83C
:1012D000215005FA03F591F8204004FA03F444EA9A
:1012E0000544446491F822401CB1046A144304622A
:1012F00003E0046A24EA0204046291F82440012C09
:1013000003D1846E1443846606E0846E002A14BF01
:10131000002404F00104846691F82540012C04D1D6
:10132000846E44EA0242826606E0846E120414BFB0
:10133000002204F001028266032B0FD8C46E4FEA2C
:10134000C3034FF0FF0202FA03F224EA020291F80B
:10135000231001FA03F31A43C26610E0A3F1040359
:10136000046F4FEAC3034FF0FF0202FA03F224EACC
:10137000020291F8231001FA03F31A4302674FF0B7
:10138000000070BC704700BF10B40C680B6993423A
:1013900007D3CA6000EB4410C0F808224FF00000E9
:1013A00001E04FF6FF7010BC704700BF4FF0010323
:1013B00003FA01F1416070474FF0010303FA01F1B4
:1013C0008160704710B44FEA811143184FF0020456
:1013D00044504FF0FF309862196A5A6010BC704751
:1013E000C0F8C410704700BF4FEA81114FF00203EC
:1013F0004350704710B44FF0AC0303600A684C6868
:10140000B2FBF4F34FEA131303F1FF344FF6FE720D
:1014100094420CD803628968416040F20223C0F80C
:1014200020314FF0500202604FF0000001E04FF019
:10143000010010BC704700BF436913F0020F03D0D6
:10144000C1614FF0000070474FF00100704700BFCE
:10145000436913F0010F04D0806908704FF0000059
:1014600070474FF001007047436913F0020F07D037
:101470004FEAC1514FEAD152C2614FF000007047AC
:101480004FF00100704700BF436913F0010F08D00F
:1014900080694FEAC0524FEAD2530B604FF0000010
:1014A00070474FF001007047FEE700BF38B540F2CB
:1014B0000003C2F207034AF6EC22C0F208029A4285
:1014C00003D040484049814204D3404B404A9A42AD
:1014D00025D342E03F4D404C631B23F003054FF002
:1014E000000340F20002C2F207024AF6EC21C0F209
:1014F000080105F10400C5F380045D589D5003F117
:101500000403834255D1E0E75D589D5003F1040385
:101510005C589C5003F104038342F5D1D5E72F4D6D
:101520002F49481B20F0030440F60013C2F20703C2
:10153000E2184FF00001501BA0F10400C0F380043A
:1015400045F8041F95422DD107E005F104036960B9
:1015500005F1080559609542F7D140F20005C0F247
:10156000080525F0604222F07F014FF46D40CEF275
:101570000000816005F16044B4F5801F07D24FF48C
:101580006D43CEF200039D6845F000529A6043F629
:101590001D71C0F20801884743F21D60C0F20800C7
:1015A0008047FEE7002CD0D045F8041F9542CCD1EF
:1015B000D3E7002CA8D05C589C5003F1040383426D
:1015C000A2D182E700090720000007207CAC072099
:1015D000000907200400072003090720FC08072052
:1015E00077AC07204FF4C063C4F20E03186B00F011
:1015F0000301032900F2B180DFE801F002144F4F2C
:1016000041F61020C4F20E00416911F0800F40F243
:101610000003C2F2070314BF4FF400424FF4FA4232
:101620001A609AE04FF4C063C4F20E03186A10F017
:10163000807F09D04FF4D853C0F2B70340F20002C4
:10164000C2F20702136088E04FF41061C0F23D015E
:1016500040F20002C2F2070211604FF4C063C4F20C
:101660000E03186A00F07001102902D0202974D1ED
:1016700009E04FF49050C0F27A0040F20001C2F24B
:101680000701086069E04FF4D853C0F2B70340F295
:101690000002C2F2070213605FE04FF4C062C4F2BE
:1016A0000E02136A13F0807F09D04FF4D851C0F2B4
:1016B000B70140F20002C2F20702116027E04FF4C6
:1016C0001060C0F23D0040F20001C2F20701086064
:1016D0004FF4C062C4F20E02136A03F070001028C7
:1016E00002D0202813D109E04FF49053C0F27A03BE
:1016F00040F20000C2F20700036008E04FF4D85146
:10170000C0F2B70140F20002C2F2070211604FF4CA
:10171000C063C4F20E03186B00F00301022913D159
:101720004FF4C061C4F20E01886A896A40F2000376
:10173000C2F20703C0F30A401A6800FB0220C9B2D4
:10174000B0FBF1F21A6008E04FF4E053C0F64E63CC
:1017500040F20002C2F2070213604FF4C062C4F20A
:101760000E02106B00F0700170290ED140F20003E0
:10177000C2F2070318684AF6AB22CAF6AA22A2FBF5
:1017800000014FEA5100186070474FF4C063C4F283
:101790000E031A6B40F20000C2F20700C2F30211FE
:1017A000036823FA01F30360704700BF45F29F23EB
:1017B000C0F2571398420CD84FF42060C4F20E00C8
:1017C0004FF0000101604FF44063C4F20E03196052
:1017D00070474CF67F41C0F2062188420CD84FF486
:1017E0002063C4F20E034FF4807119604FF440621D
:1017F000C4F20E02116070474BF23F73C0F22833FF
:1018000098420CD84FF42061C4F20E014FF40072DC
:101810000A604FF44060C4F20E000260704742F666
:101820007F71C0F2A64188424FF42060C4F20E00DE
:1018300094BF4FF440724FF4806202604FF44063F3
:10184000C4F20E031A60704740F6BC13C2F20703DD
:10185000196841B940F6BC13C2F207034CF6804246
:10186000C2F207021A6040F6BC11C2F207010B680F
:1018700018180860184670474FF0FF30704700BFD7
:101880004FF400534B604FF0000070474FF00100E1
:10189000704700BF4FF00000704700BF00F1080321
:1018A00043604FF0FF328260C36003614FF000017C
:1018B000016070474FF000030361704743685A6846
:1018C0004A6042688A605A68916059604160086164
:1018D000016801F101010160704700BF10B40C689C
:1018E000B4F1FF3F01D103690AE000F10803C268C7
:1018F0001268944204D35B685A6812689442FAD220
:101900005A684A6091608B6059600861016801F112
:101910000101016010BC7047436882689A60816869
:1019200043684B6001694A68824204BF82684A602A
:101930004FF000030361086800F1FF320A60086895
:10194000704700BF03480068006880F3088862B6EB
:1019500000DF00BF08ED00E04FF0807340F8043C6A
:1019600040F8081C4FF0000140F80C1C40F8202CF7
:10197000A0F14000704700BF064B19680868B0E846
:10198000F00F80F309884FF0000080F311884EF0CB
:101990000D0E704784AA07204EF60453CEF20003C2
:1019A0004FF080521A607047EFF311804FF0A001A2
:1019B00081F3118870474FF0000000BF08B541F671
:1019C000A913C0F20803984740F20400C2F20700CE
:1019D000026802F10102026008BD00BF80F31188B5
:1019E000704700BF08B540F20402C2F20702136854
:1019F00003F1FF30106030B94FF0000041F6DD1107
:101A0000C0F20801884708BDEFF309800C4B1A6843
:101A100020E9F00F10602DE908404FF0A00080F39E
:101A2000118801F077F84FF0000080F31188BDE8CD
:101A3000084019680868B0E8F00F80F3098870471B
:101A400084AA072008B54EF60453CEF200034FF0E7
:101A500080521A6041F6A910C0F20800804742F295
:101A6000E561C0F2080188474FF0000041F6DD1340
:101A7000C0F20803984708BD4EF21403CEF20003EB
:101A800044F61F02C0F201021A604EF21000CEF2BC
:101A900000004FF007010160704700BF10B54EF61F
:101AA0002053CEF200031A6842F4700018601968DF
:101AB00041F070441C6041F67923C0F20803984756
:101AC0004FF0000440F20402C2F20702146041F633
:101AD0004510C0F208008047204610BD30B44AF6D9
:101AE000C412C2F2070200E01A4613688342FBD315
:101AF000114654681519854203D168680419546069
:101B0000104642688418A3420FD14AF6C014C2F2AC
:101B1000070424689C4206D05B689A1842600B68F0
:101B20001A68026002E0036000E00360814218BFAF
:101B3000086030BC704700BF38B5044642F2AD6360
:101B4000C0F2080398474AF6C010C2F207000168C5
:101B500021BB4AF6C412C2F2070240F6C013C2F219
:101B6000070313604FF00001516003F51F4202F1BB
:101B7000F0004AF6C015C2F207052860C2F8F4105A
:101B8000C2F8F01049F6F0715960186040F208038D
:101B9000C2F207031A68A2F110021A60002C3CD0AE
:101BA00004F1100212F0070F1CBF22F007020832E6
:101BB00002F1FF3049F6FE75A84231D84AF6C41149
:101BC000C2F207010C6801E02146044663689A42AC
:101BD00002D920680028F7D14AF6C015C2F20705DD
:101BE0002B689C421FD00D6805F110052068086025
:101BF00061688B1A202B07D9A0184360626041F6F8
:101C0000DD22C0F20802904740F20800C2F207004D
:101C1000036861685A1A026007E04FF0000504E0AB
:101C20004FF0000501E04FF0000542F67500C0F2EC
:101C300008008047284638BD10B50446C8B142F2B6
:101C4000AD63C0F20803984740F20800C2F20700F3
:101C5000016854F80C2C8B180360A4F1100041F6B5
:101C6000DD21C0F20801884742F67500C0F2080085
:101C7000804710BDF8B5044641F6BD13C0F2080315
:101C80009847A06C00281ADD616A19B917E0616AEB
:101C900051B914E004F1240642F69D45C0F208054E
:101CA00042F62167C0F208073046A84700B1B8479E
:101CB000A26C02F1FF33A364A06C0028E7DC4FF0B4
:101CC000FF32A26441F6E513C0F20803984741F6DB
:101CD000BD10C0F208008047616C00291ADD22693E
:101CE0001AB917E0226952B914E004F1100642F65D
:101CF0009D45C0F2080542F62167C0F2080730464C
:101D0000A84700B1B847636C03F1FF306064616CB1
:101D10000029E7DC4FF0FF33636441F6E510C0F2C1
:101D200008008047F8BD00BF38B50346056875B1A7
:101D3000026CC468A418C4604068844228BFDD6097
:101D40000846D96843F6A973C0F20803984738BD1E
:101D500010B50446036C63B9016800292ED14068B0
:101D600042F60D73C0F2080398474FF00000606020
:101D700024E082B980681A4643F6A973C0F20803CA
:101D80009847A268216C5018A0606368984215D3E8
:101D90002268A26012E0C0681A4643F6A973C0F236
:101DA00008039847226CC2F10000E1680B18E36059
:101DB0002268934202D261680818E060A26B02F1C7
:101DC0000102A26310BD00BF38B50D46044630B90C
:101DD00041F6A914C0F20804A04700BFFDE741F690
:101DE000BD13C0F2080398472368E06B226C00FB28
:101DF000023161604FF00001A163A36000F1FF3088
:101E000002FB0033E3604FF0FF326264A26485B9E5
:101E10002169C1B104F1100042F69D43C0F20803EC
:101E2000984701280FD141F69910C0F20800804769
:101E300009E004F1100041F69D05C0F20805A8472D
:101E400004F12400A84741F6E512C0F208029047C9
:101E50004FF0010038BD00BFF8B50D4617460646E5
:101E6000E0B14FF0500041F63933C0F20803984713
:101E7000044698B106FB05F000F1010041F6393146
:101E8000C0F208018847206070B9204641F6394207
:101E9000C0F20802904701E000BFFDE741F6A9103B
:101EA000C0F208008047F7E7E663256420464FF05C
:101EB000010141F6C953C0F20803984784F84D70F8
:101EC0002046F8BD2DE9F04F85B08A460192009377
:101ED000044630B941F6A914C0F20804A04700BF77
:101EE000FDE741B9036C4BB141F6A910C0F20800FF
:101EF000804700BFFDE74FF0000701E04FF000070B
:101F000041F6BD16C0F2080642F6455BC0F2080B6A
:101F100041F6E515C0F20805B047A26BE16B8A42B5
:101F20001FD220465146009A41F65153C0F2080391
:101F30009847616A69B104F1240042F69D42C0F2FB
:101F400008029047012804D141F69910C0F2080018
:101F5000804741F6E513C0F2080398474FF00100AF
:101F600066E0019B3BB941F6E512C0F208029047DA
:101F70004FF000005CE01FB902A8D8474FF00107FE
:101F8000A84742F2AD60C0F208008047B047626CDB
:101F9000B2F1FF3F04BF00226264A16CB1F1FF3FC8
:101FA00004BF0021A164A84702A801A942F6755305
:101FB000C0F20803984770BBB047D4F83890D4F803
:101FC0003C80A847C1451AD104F11000019942F69E
:101FD000D532C0F208029047204641F67541C0F262
:101FE0000801884742F67500C0F2080080470028C3
:101FF00092D141F69913C0F2080398478CE7204626
:1020000041F67541C0F20801884742F67503C0F2F7
:102010000803984780E7204641F67542C0F208025F
:10202000904742F67500C0F2080080474FF000006C
:1020300005B0BDE8F08F00BF2DE9F0410E46154612
:102040009846044630B941F6A915C0F20805A847DC
:1020500000BFFDE741B9036C33B141F6A910C0F2EE
:102060000800804700BFFDE741F6A911C0F2080152
:1020700088470746A26BE36B9A4221D2204631463D
:10208000424641F65153C0F208039847A06CB0F1A4
:10209000FF3F0ED1626AB2B104F1240042F69D44C2
:1020A000C0F20804A04788B19DB14FF001042C6034
:1020B00011E0A16C01F10101A1644FF001040AE0FB
:1020C0004FF0000407E04FF0010404E04FF001047A
:1020D00001E04FF00104384641F6DD13C0F2080379
:1020E00098472046BDE8F0812DE9F04F85B089463C
:1020F00001929A46044630B941F6A914C0F2080488
:10210000A04700BFFDE741B9036C4BB141F6A910F0
:10211000C0F20800804700BFFDE74FF0000701E074
:102120004FF0000741F6BD16C0F2080642F6455BC7
:10213000C0F2080B41F6E515C0F20805B047A16BE7
:1021400000293FD0E5682046494641F62953C0F2B0
:1021500008039847BAF1000F1CD1A36B03F1FF30BD
:10216000A063216829B942F63162C0F208029047A3
:1021700060602369F3B104F1100042F69D41C0F2A2
:1021800008018847012815D141F69910C0F20800CE
:1021900080470FE0E560606A60B104F1240042F618
:1021A0009D41C0F20801884720B141F69912C0F262
:1021B0000802904741F6E512C0F2080290474FF03E
:1021C000010071E0019A3AB941F6E512C0F2080245
:1021D00090474FF0000067E01FB902A8D8474FF0C2
:1021E0000107A84742F2AD63C0F208039847B04721
:1021F000606CB0F1FF3F04BF00206064A16CB1F1DE
:10220000FF3F04BF0021A164A84702A801A942F62C
:102210007552C0F208029047002838D1B047D4F870
:102220003880A847B8F1000F25D123683BB9B047E3
:10223000606842F66561C0F208018847A84704F16A
:102240002400019942F6D532C0F208029047204698
:1022500041F67543C0F20803984742F67500C0F294
:102260000800804700287FF469AF41F69911C0F259
:102270000801884762E7204641F67541C0F208012F
:10228000884742F67502C0F20802904756E720469A
:1022900041F67543C0F20803984742F67500C0F254
:1022A000080080474FF0000005B0BDE8F08F00BF88
:1022B00038B504460D4641F6BD13C0F208039847F1
:1022C000606CB0F1FF3F04BF00206064A16CB1F10D
:1022D000FF3F04BF0021A16441F6E512C0F20802ED
:1022E0009047A36B3BB904F12400294642F64942CA
:1022F000C0F208029047204641F67541C0F208013D
:10230000884738BD10B504464AF68423C2F2070355
:10231000186844604AF6A021C2F207010A68944294
:1023200011D24AF6A422C2F2070210684AF68423A8
:10233000C2F20703196801F1040141F6DD02C0F29F
:102340000802904710BD4AF6E413C2F2070318686A
:102350004AF68421C2F20701096801F1040141F63D
:10236000DD02C0F20802904740F20C00C2F2070002
:1023700003689C4204D240F20C01C2F207010C60D7
:1023800010BD00BF2DE9F84F0F4690469A460A9DB2
:102390000C9E814630B941F6A917C0F20807B8472C
:1023A00000BFFDE7042D06D941F6A915C0F20805C6
:1023B000A84700BFFDE74FF04C0041F63933C0F2AB
:1023C000080398470446002800F02781002E40F0BB
:1023D00022814FEA880041F63931C0F2080188476E
:1023E0000646206330B9204641F63942C0F2080261
:1023F000904712E130464FF0A5014FEA880243F6BC
:10240000BB76C0F20806B04708F1FF38206B00EB3E
:10241000880222F0070B04F1340039464FF00A021B
:1024200044F2CF17C0F20807B8474FF0000384F812
:102430003D30042D34BF2E460426E662A66404F126
:102440000407384641F6B508C0F20808C04704F151
:102450001800C0472461C6F10506A66164625846AB
:102460004946524641F65913C0F208039847206086
:1024700010F0070F06D041F6A914C0F20804A047D7
:1024800000BFFDE70B9901B10C6041F6BD10C0F231
:10249000080080474AF6C423C2F207031A6802F113
:1024A00001021A604AF68421C2F207010868002876
:1024B00049D14AF68421C2F207010C604AF6C420D1
:1024C000C2F207000368012B50D14AF61C29C2F260
:1024D0000709484641F69D06C0F20806B04709F1D3
:1024E0001400B04709F12800B04709F13C00B0479B
:1024F00009F15000B0474AF6AC29C2F20709484634
:10250000B0474AF60428C2F207084046B0474AF6E8
:102510008820C2F20700B0474AF6F010C2F2070066
:10252000B0474AF6D010C2F20700B0474AF6E412AC
:10253000C2F20702C2F800904AF6A421C2F20701D3
:10254000C1F8008012E04AF6E813C2F207031A68E5
:1025500062B94AF68421C2F207010868C36A9D4243
:1025600004D34AF68422C2F207021460E06A4AF6F3
:10257000C823C2F207031A68904204D94AF6C82158
:10258000C2F2070108604AF6A823C2F207031A68DC
:10259000226402F101021A604AF61821C2F2070110
:1025A0000B68984204D94AF61822C2F2070210605A
:1025B00000EB80014AF61C200346C2F2070303EB3E
:1025C0008100394641F6BD02C0F20802904741F64B
:1025D000E511C0F2080188474AF6E810C2F2070088
:1025E000036883B14AF68422C2F207021168C86AFE
:1025F00085420CD941F69913C0F2080398474FF071
:102600000100BDE8F88F4FF00100BDE8F88F4FF0F2
:102610000100BDE8F88F0663ECE64FF0FF30BDE83F
:10262000F88F00BF10B584B04FF000030093019302
:102630000293039342F6C110C0F208004AF22C71D3
:10264000C0F208014FF0820242F28534C0F2080461
:10265000A04701281FD143F24903C0F2080398475D
:10266000012818D141F6A911C0F2080188474AF69D
:10267000E813C2F207034FF001021A604AF6A020E5
:10268000C2F207004FF00001016041F69D23C0F245
:102690000803984707E030B941F6A910C0F20800D6
:1026A000804700BFFDE704B010BD00BF4AF680239D
:1026B000C2F207031A6802F101021A60704700BFF4
:1026C00010B541F6BD13C0F2080398474AF6A020A2
:1026D000C2F20700046841F6E511C0F2080188471C
:1026E000204610BD2DE9F84F4AF68023C2F20703B9
:1026F0001868002840F0B3804AF6A023C2F207030E
:10270000186800F1010018601968002939D14AF6EB
:10271000E412C2F207021368186830B141F6A91535
:10272000C0F20805A84700BFFDE74AF6E413C2F26D
:10273000070319684AF6A422C2F20702106818605B
:1027400011604AF69C22C2F20702116801F10101F0
:1027500011601B68186838B940F20C03C2F2070315
:102760004FF0FF3018600CE04AF6E412C2F20702A4
:102770001168CB68D868426840F20C01C2F20701C8
:102780000A604AF6A022C2F20702116840F20C0366
:10279000C2F207031868814269D34AF6E412C2F212
:1027A000070211680B687BB14AF6E414C2F2070411
:1027B0002068C268D46863684AF6A021C2F20701A3
:1027C000086883421AD912E040F20C03C2F20703F0
:1027D0004FF0FF301860BDE8F88F3468E268D468C5
:1027E00063684846C2F2070001688B421CD940F278
:1027F0000C02C2F207021360BDE8F88F41F6191708
:10280000C0F208074AF61828C2F207084AF61C2B3D
:10281000C2F2070B41F6BD0AC0F2080A4AF6E416F6
:10282000C2F207064AF6A02904F104052846B84773
:10283000A36A13B104F11800B847E16AD8F8002080
:10284000914288BFC8F8001001EB81000BEB8000BB
:102850002946D047336819680029BED1B4E74AF643
:10286000CC11C2F207010A6802F101020A60BDE858
:10287000F88F00BF2DE9F0474AF68023C2F2070324
:10288000186830B941F6A915C0F20805A84700BF7D
:10289000FDE741F6BD11C0F2080188474AF68024E1
:1028A000C2F20704226802F1FF3323602068002887
:1028B00078D14AF6C421C2F207010C684CBB4FF034
:1028C000000474E0D8F80C20D46804F11800B8476C
:1028D00004F104094846B847E36A3068834288BF78
:1028E00033605146C2F2070103EB830201EB820021
:1028F000494641F6BD03C0F2080398474AF68420D2
:10290000C2F207000168E46ACA6A944228BF01253E
:102910000FE04FF000054AF68828C2F2070841F69A
:102920001917C0F208074AF61826C2F207064AF637
:102930001C2AD8F80020002AC4D14AF6CC13C2F2CF
:1029400007031868B0B14AF6CC12C2F20702136846
:10295000CBB142F2E565C0F208054AF6CC14C2F2EA
:102960000704A847206800F1FF3121602268002A8F
:10297000F7D108E0012D06D04AF6C021C2F20701C6
:102980000C68012C11D14AF6C023C2F207034FF0A4
:1029900000041C6041F69910C0F2080080474FF017
:1029A000010404E04FF0000401E04FF0000441F6A0
:1029B000E511C0F2080188472046BDE8F08700BF56
:1029C0002DE9F8434AF6EC15C2F2070542F2AD686C
:1029D000C0F208084AF6F016C2F2070642F675077A
:1029E0002DE0C04734683B46C0F20803984734B333
:1029F00041F6BD10C0F208008047F168CC6804F1D0
:102A0000040041F61912C0F2080290474AF6C423A6
:102A1000C2F20703186800F1FF3119602A6802F159
:102A2000FF332B6041F6E510C0F208008047206BB1
:102A300041F63949C0F20809C8472046C8472B6803
:102A4000002BCED14AF61C20C2F2070001680129F2
:102A5000F5D941F69912C0F208029047EFE700BF9E
:102A600038B50C46054630B941F6A914C0F2080441
:102A7000A04700BFFDE731B941F6A915C0F208052E
:102A8000A84700BFFDE742F2AD63C0F208039847D4
:102A9000286804194AF6A022C2F207021168884287
:102AA0000AD9A04232D94AF6A022C2F2070211681E
:102AB0002C608C421CD909E0A04225D84AF6A023FC
:102AC000C2F20703186884421ED81FE04AF6842326
:102AD000C2F20703186800F1040041F61912C0F2AF
:102AE00008029047204642F20531C0F208018847AB
:102AF00042F67500C0F20800804748B941F69913C4
:102B0000C0F20803984738BD2C60DFE72C60EFE780
:102B100038BD00BF08B54AF68023C2F20703186823
:102B2000A8B94AF61821C2F207010A6802EB82032B
:102B30004FEA83004AF61C21C2F207010A5852BB31
:102B40004AF61823C2F20703186888B909E04AF662
:102B5000C021C2F207014FF00100086008BD1A68E9
:102B600072B941F6A913C0F20803984700BFFDE708
:102B70004AF61823C2F207034AF61C21C2F20701E3
:102B80001A6802F1FF3018601A6802EB820051F8EF
:102B90002020002AE3D04AF61823C2F2070319685E
:102BA00001EB81004AF61C22C2F2070202EB80030D
:102BB00059684868586003F10802904204BF4068B1
:102BC00058605B68D9684AF68420C2F20700016049
:102BD00008BD00BF38B50C4630B941F6A914C0F2A3
:102BE0000804A04700BFFDE74AF68425C2F20705A6
:102BF000296801F1180141F6DD02C0F20802904790
:102C0000286800F1040041F61911C0F20801884754
:102C1000B4F1FF3F0CD129684AF6D010C2F2070088
:102C200001F1040141F6BD03C0F20803984738BD25
:102C30004AF6A020C2F207000368E01842F205320B
:102C4000C0F20802904738BD38B50D4630B941F69C
:102C5000A914C0F20804A04700BFFDE74AF6842487
:102C6000C2F20704216801F1180141F6BD02C0F269
:102C700008029047206800F1040041F61911C0F2E3
:102C8000080188474AF6A020C2F207000368E81846
:102C900042F20532C0F20802904738BD38B5C36829
:102CA000DC6834B941F6A914C0F20804A04700BF9B
:102CB000FDE704F11805284641F61911C0F2080194
:102CC00088474AF68020C2F20700026822BB04F15E
:102CD0000405284641F61911C0F208018847E06A48
:102CE0004AF61822C2F207021368984204D94AF63B
:102CF0001821C2F20701086000EB80034AF61C208D
:102D00000246C2F2070202EB8300294641F6BD03E8
:102D1000C0F20803984709E04AF68820C2F207008B
:102D2000294641F6BD03C0F2080398474AF68421BC
:102D3000C2F207010A68E06AD36A984234BF0020F1
:102D4000012038BD08B5034630B941F6A913C0F2D9
:102D50000803984700BFFDE74AF69C22C2F207022B
:102D6000106818604AF6A021C2F207010A685A608A
:102D700008BD00BF38B50D46044630B941F6A9126A
:102D8000C0F20802904700BFFDE731B941F6A9152E
:102D9000C0F20805A84700BFFDE741F6BD13C0F229
:102DA000080398472868B0F1FF3F29D04AF69C22D3
:102DB000C2F20702116823688B4207D04AF6A022AC
:102DC000C2F20702116863688B421CD94AF6A0223E
:102DD000C2F2070211686368CA1A904216D94AF60D
:102DE000A021C2F207010A689B1A18182860204621
:102DF00042F64554C0F20804A0474FF0000407E033
:102E00004FF0000404E04FF0010401E04FF0010432
:102E100041F6E511C0F208018847204638BD00BFE1
:102E20004AF6C023C2F207034FF001021A6070474E
:102E30004AF68423C2F20703186870474AF6E8137B
:102E4000C2F20703186848B14AF68021C2F20701AE
:102E50000A68002A14BF0220012070474FF00000CA
:102E6000704700BF38B5044600284ED0C36A4AF602
:102E70008422C2F207021068C16A8B4245D24AF628
:102E80008422C2F207021068C16AC1F10502A26180
:102E900003EB83034AF61C20C2F2070000EB830118
:102EA00062698A422AD104F10405284641F61912C2
:102EB000C0F2080290474AF68423C2F2070318685A
:102EC000C16AE1624AF61822C2F207021368994207
:102ED00004D94AF61820C2F20700016001EB810113
:102EE0004AF61C221346C2F2070303EB810029466F
:102EF00041F6BD02C0F20802904738BD4AF684236D
:102F0000C2F207031868C16AE16238BD38B50446E9
:102F100050B3C26A836C9A4226D000F10405284659
:102F200041F61911C0F208018847A06CE062C0F1B7
:102F30000502A2614AF61823C2F207031968884203
:102F400004D94AF61822C2F20702106000EB80038F
:102F50004AF61C20C2F2070000EB8300294641F626
:102F6000BD02C0F20802904738BD00BF70B541F6FF
:102F7000BD13C0F2080398474AF6FC20C2F20700CE
:102F8000016849BB4AF6D025C2F20705284641F63A
:102F90009D06C0F20806B0474AF6E424C2F20704D0
:102FA0002046B0474AF6CC22C2F2070215604AF624
:102FB0000033C2F207031C604FF005004FF00C0114
:102FC0004FF0000241F65963C0F2080398474AF6F1
:102FD000FC21C2F20701086041F6E510C0F20800CA
:102FE000804770BD10B5044641602061914212D8FF
:102FF000D01AA169884221D24AF60033C2F20703EF
:10300000186804F1040141F6DD02C0F2080290479D
:103010004FF0000010BD9A4201D2994211D24AF6F7
:10302000CC23C2F20703186804F1040141F6DD0263
:10303000C0F2080290474FF0000010BD4FF00100B1
:1030400010BD4FF0010010BD10B584B042F66D7395
:10305000C0F2080398474AF6FC20C2F20700016854
:10306000B9B14FF0040200924FF0000301930293B4
:10307000039343F2E910C0F208004AF23871C0F23B
:1030800008014FF4827242F28534C0F20804A0476E
:1030900030B941F6A914C0F20804A04700BFFDE70B
:1030A00004B010BD10B584B04AF6FC24C2F2070487
:1030B00024682CB3019102920390B3B942F63D63A8
:1030C000C0F20803984701284AF6FC23C2F207031E
:1030D000186801A907BF069A00230022134641F68B
:1030E000C564C0F20804A0470CE0204601A91A46B6
:1030F0004FF0000342F23904C0F20804A04701E097
:103100004FF0000004B010BD2DE9F04F85B08246AD
:1031100042F2C163C0F20803984781464AF6F8209C
:10312000C2F20700016889454FD22BE0DC682668AF
:10313000DD68EC6804F104052846C047616A204652
:103140008847E06901282CD1A369F218B24209D955
:10315000626024613868294641F6DD03C0F2080345
:1031600098471EE0CDF800B02046594632465B46EF
:10317000039CA047A8B941F6A916C0F20806B047BB
:1031800000BFFDE74AF6CC27C2F2070741F619183F
:10319000C0F208084FF0000B43F2A503C0F2080389
:1031A00003933B6818680028C0D14AF60032C2F287
:1031B000070211684AF6CC20C2F2070001601360D2
:1031C0004FF00103CAF8003003E04FF00002CAF8E4
:1031D00000204AF6F822C2F20702C2F800904846E0
:1031E00005B0BDE8F08F00BF2DE9F04F89B04AF679
:1031F000CC2BC2F2070B42F2AD63C0F2080303937B
:1032000043F2091AC0F2080ADBF800000268002A3B
:1032100000F0C480C7683D68039B984704A8D04766
:1032200006460498002850D1B54237D842F67507B3
:10323000C0F20807B847DBF80030D868C46804F16A
:10324000040041F61912C0F208029047E169012911
:103250001ED1A7692046E91932462B4642F6E5768B
:10326000C0F20806B047012812D14FF000030093C6
:10327000204619462A4643F2A505C0F20805A8478C
:1032800030B941F6A917C0F20807B84700BFFDE7FB
:10329000636A204698471DE04FF000054AF6FC217E
:1032A000C2F207010868A91B42F2B126C0F2080663
:1032B000B04742F67504C0F20804A04750B941F681
:1032C0009915C0F20805A84704E042F67502C0F25D
:1032D0000802904704A8D04707464AF6FC26C2F2E7
:1032E000070642F2E905C0F2080541F61918C0F2D6
:1032F000080842F6E579C0F2080946E0079C24B1C7
:10330000606910B104F10400C047059A022A26D072
:10331000032A34D0002A38D1069BA16920465918C7
:103320003A46C847012830D1636A20469847E06989
:1033300001282AD1A2694FF00003009320461946C4
:10334000069C121943F2A504C0F20804A047E0B994
:1033500041F6A915C0F20805A84700BFFDE7069B86
:10336000A36133B941F6A916C0F20806B04700BF01
:10337000FDE72046F9183A463B46C84705E0204697
:1033800041F63941C0F208018847306805A94FF07D
:1033900000021346A8470028B0D135E703998847B3
:1033A00004A8D0470646049C002C3FF475AF8CE778
:1033B000F0B583B004460D464FF0000301934FF47F
:1033C0000060C4F20E0084420DD14FF40066C4F2D6
:1033D0000E0641F25147C0F2080730462946B84769
:1033E0000028FAD12BE04FF40041C4F209018C42CD
:1033F0000FD14FF40046C4F2090641F28947C0F2EA
:103400000807304601A9B8470028FAD1019828706A
:103410002BE04FF44042C4F2090294420FD14FF422
:103420004044C4F2090441F28946C0F2080620462D
:1034300001A9B0470028FAD1019B2B702AE04FF078
:103440000001C4F20A018C420FD14FF00004C4F213
:103450000A0441F28946C0F20806204601A9B04795
:103460000028FAD10198287014E04FF48042C4F289
:103470000A0294420ED14FF48044C4F20A0441F28D
:103480008946C0F20806204601A9B0470028FAD1B3
:10349000019B2B7003B0F0BD70B50C464FF4006378
:1034A000C4F20E0398420FD14FF40065C4F20E052A
:1034B00041F23946C0F2080628462146B0470028A6
:1034C000FAD14FF0010070BD4FF40041C4F2090180
:1034D00088420FD14FF40045C4F2090541F2694614
:1034E000C0F2080628462146B0470028FAD14FF01E
:1034F000010070BD4FF44042C4F2090290420FD166
:103500004FF44045C4F2090541F26946C0F208068D
:1035100028462146B0470028FAD14FF0010070BD7F
:103520004FF00003C4F20A0398420FD14FF0000598
:10353000C4F20A0541F26946C0F20806284621464F
:10354000B0470028FAD14FF0010070BD4FF4804120
:10355000C4F20A0188420FD14FF48045C4F20A0533
:1035600041F26946C0F2080628462146B0470028C5
:10357000FAD14FF0010070BD4FF0000070BD00BFE8
:1035800030B585B04FF0080041F26905C0F208057A
:10359000A8474FF40064C4F20E044AF67433C2F232
:1035A00007031C604AF67030C2F2070043F29942EA
:1035B000C0F2080202604AF66C31C2F2070143F21F
:1035C000B133C0F208030B604FF43D40C0F201502C
:1035D00000904FF4E13201924FF4006102914FF0FC
:1035E0000800A8472046694641F2F535C0F20805B3
:1035F000A84740F21005C2F207052C68A0684FF0FA
:10360000000144F20D04C0F20804A0472B6858687A
:103610004FF00001A04705B030BD00BF10B584B029
:1036200040F2A513C0F20803984740F6C910C0F253
:103630000800804743F28151C0F20801884740F2F8
:103640008572C0F20802904740F2C164C0F20804DB
:10365000A04740F2BD43C0F20803984740F21D2046
:10366000C0F2080080474FF48051C4F20E014FF0C1
:1036700000620A61C1F8A0204A634FF0020400947E
:103680004FF0000301930293039340F2E940C0F22C
:1036900008004AF24071C0F208014FF4806242F221
:1036A0008534C0F20804A047012802D01348144B07
:1036B00098474FF0010000904FF0000301930293F0
:1036C000039340F29130C0F208004AF27071C0F2E8
:1036D00008014FF4806242F28534C0F20804A0472A
:1036E000012802D007480649884742F22562C0F205
:1036F000080290474FF0000004B010BD4CA708002E
:10370000693F08007CA7080081F0004102E000BF8B
:1037100083F0004330B54FEA41044FEA430594EA91
:10372000050F08BF90EA020F1FBF54EA000C55EACC
:10373000020C7FEA645C7FEA655C00F0E2804FEA9D
:103740005454D4EB5555B8BF6D420CDD2C4480EA7F
:10375000020281EA030382EA000083EA010180EAAF
:10376000020281EA0303362D88BF30BD11F0004FFD
:103770004FEA01314FF4801C4CEA113102D0404233
:1037800061EB410113F0004F4FEA03334CEA13336E
:1037900002D0524263EB430394EA050F00F0A78086
:1037A000A4F10104D5F1200E0DDB02FA0EFC22FA81
:1037B00005F2801841F1000103FA0EF2801843FA75
:1037C00005F359410EE0A5F120050EF1200E012A66
:1037D00003FA0EFC28BF4CF0020C43FA05F3C018A4
:1037E00051EBE37101F0004507D54FF0000EDCF11D
:1037F000000C7EEB00006EEB0101B1F5801F1BD3C6
:10380000B1F5001F0CD349085FEA30004FEA3C0CC9
:1038100004F101044FEA445212F5800F80F09A80BF
:10382000BCF1004F08BF5FEA500C50F1000041EBC3
:10383000045141EA050130BD5FEA4C0C404141EBC7
:10384000010111F4801FA4F10104E9D191F0000FEE
:1038500004BF01460020B1FA81F308BF2033A3F171
:103860000B03B3F120020CDA0C3208DD02F1140C68
:10387000C2F10C0201FA0CF021FA02F10CE002F1A3
:103880001402D8BFC2F1200C01FA02F120FA0CFC9C
:10389000DCBF41EA0C019040E41AA2BF01EB0451E5
:1038A000294330BD6FEA04041F3C1CDA0C340EDCE3
:1038B00004F11404C4F1200220FA04F001FA02F326
:1038C00040EA030021FA04F345EA030130BDC4F1E4
:1038D0000C04C4F1200220FA02F001FA04F340EAD9
:1038E0000300294630BD21FA04F0294630BD94F08A
:1038F000000F83F4801306BF81F480110134013D71
:103900004EE77FEA645C18BF7FEA655C29D094EAE1
:10391000050F08BF90EA020F05D054EA000C04BF5F
:103920001946104630BD91EA030F1EBF002100204A
:1039300030BD5FEA545C05D14000494128BF41F0E9
:10394000004130BD14F580043CBF01F5801130BD4D
:1039500001F0004545F0FE4141F470014FF00000D8
:1039600030BD7FEA645C1ABF194610467FEA655C89
:103970001CBF0B46024650EA013406BF52EA03352B
:1039800091EA030F41F4002130BD00BF90F0000F19
:1039900004BF0021704730B54FF4806404F1320455
:1039A0004FF000054FF0000150E700BF90F0000F0E
:1039B00004BF0021704730B54FF4806404F1320435
:1039C00010F0004548BF40424FF000013EE700BF05
:1039D00042004FEAE2014FEA31014FEA02701FBF95
:1039E00012F07F4393F07F4F81F06051704792F067
:1039F000000F14BF93F07F4F704730B54FF46074E1
:103A000001F0004521F0004120E700BF50EA01022B
:103A100008BF704730B54FF000050AE050EA0102D8
:103A200008BF704730B511F0004502D5404261EB48
:103A300041014FF4806404F132045FEA915C3FF489
:103A4000DCAE4FF003025FEADC0C18BF03325FEA22
:103A5000DC0C18BF033202EBDC02C2F1200300FAD7
:103A600003FC20FA02F001FA03FE40EA0E0021FAFC
:103A700002F11444C1E600BF70B54FF0FF0C4CF4E6
:103A8000E06C1CEA11541DBF1CEA135594EA0C0F9C
:103A900095EA0C0F00F0DEF82C4481EA030621EAD7
:103AA0004C5123EA4C5350EA013518BF52EA033512
:103AB00041F4801143F4801338D0A0FB02CE4FF0C4
:103AC0000005E1FB02E506F00042E0FB03E54FF0F4
:103AD0000006E1FB03569CF0000F18BF4EF0010EEC
:103AE000A4F1FF04B6F5007F64F5407404D25FEAE8
:103AF0004E0E6D4146EB060642EAC62141EA55519B
:103B00004FEAC52040EA5E504FEACE2EB4F1FD0CDC
:103B100088BFBCF5E06F1ED8BEF1004F08BF5FEA5A
:103B2000500E50F1000041EB045170BD06F000460C
:103B300046EA010140EA020081EA0301B4EB5C04B9
:103B4000C2BFD4EB0C0541EA045170BD41F48011B1
:103B50004FF0000E013C00F3AB8014F1360FDEBFD6
:103B6000002001F0004170BDC4F10004203C35DAB2
:103B70000C341BDC04F11404C4F1200500FA05F335
:103B800020FA04F001FA05F240EA020001F00042D6
:103B900021F0004110EBD37021FA04F642EB06014C
:103BA0005EEA430E08BF20EAD37070BDC4F10C0476
:103BB000C4F1200500FA04F320FA05F001FA04F23A
:103BC00040EA020001F0004110EBD37041F1000126
:103BD0005EEA430E08BF20EAD37070BDC4F1200531
:103BE00000FA05F24EEA020E20FA04F301FA05F299
:103BF00043EA020321FA04F001F0004121FA04F241
:103C000020EA020000EBD3705EEA430E08BF20EA10
:103C1000D37070BD94F0000F0FD101F0004640004A
:103C200041EB010111F4801F08BF013CF7D041EACC
:103C3000060195F0000F18BF704703F000465200D0
:103C400043EB030313F4801F08BF013DF7D043EAA1
:103C50000603704794EA0C0F0CEA135518BF95EA57
:103C60000C0F0CD050EA410618BF52EA4306D1D1DE
:103C700081EA030101F000414FF0000070BD50EAFD
:103C8000410606BF1046194652EA430619D094EA87
:103C90000C0F02D150EA013613D195EA0C0F05D171
:103CA00052EA03361CBF104619460AD181EA0301C5
:103CB00001F0004141F0FE4141F470014FF000007D
:103CC00070BD41F0FE4141F4780170BD70B54FF018
:103CD000FF0C4CF4E06C1CEA11541DBF1CEA135598
:103CE00094EA0C0F95EA0C0F00F0A7F8A4EB05047A
:103CF00081EA030E52EA03354FEA013100F0888071
:103D00004FEA03334FF0805545EA131343EA126339
:103D10004FEA022245EA111545EA10654FEA0026EE
:103D20000EF000419D4208BF964244F1FD0404F5A7
:103D3000407402D25B084FEA3202B61A65EB030503
:103D40005B084FEA32024FF480104FF4002CB6EBC0
:103D5000020E75EB030E22BFB61A754640EA0C0040
:103D60005B084FEA3202B6EB020E75EB030E22BF80
:103D7000B61A754640EA5C005B084FEA3202B6EBC1
:103D8000020E75EB030E22BFB61A754640EA9C0080
:103D90005B084FEA3202B6EB020E75EB030E22BF50
:103DA000B61A754640EADC0055EA060E18D04FEA0E
:103DB000051545EA16754FEA06164FEAC30343EAAE
:103DC00052734FEAC2025FEA1C1CC0D111F4801F7B
:103DD0000BD141EA00014FF000004FF0004CB6E774
:103DE00011F4801F04BF01430020B4F1FD0C88BF13
:103DF000BCF5E06F3FF6AFAEB5EB030C04BFB6EB1E
:103E0000020C5FEA500C50F1000041EB045170BD10
:103E10000EF0004E4EEA113114EB5C04C2BFD4EB3D
:103E20000C0541EA045170BD41F480114FF0000EC1
:103E3000013C90E645EA060E8DE60CEA135594EA3D
:103E40000C0F08BF95EA0C0F3FF43BAF94EA0C0F40
:103E50000AD150EA01347FF434AF95EA0C0F7FF4B5
:103E600025AF104619462CE795EA0C0F06D152EA09
:103E700003353FF4FDAE1046194622E750EA4106ED
:103E800018BF52EA43067FF4C5AE50EA41047FF4FE
:103E90000DAF52EA43057FF4EBAE12E74A0011D2B0
:103EA00012F5001211D20DD56FF47873B3EB625294
:103EB0000ED44FEAC12343F0004343EA505323FAA0
:103EC00002F070474FF00000704750EA013002D115
:103ED0004FF0FF3070474FF0000070470146002060
:103EE0000246034602F044BC002100F021BF00005E
:103EF00070B5084B084C0025E01A841003EB8406CB
:103F0000043D1CB172599047013CF9E7BDE870408F
:103F100006F0E0BDE0AA0800E4AA080038B50E4D9E
:103F20000E4B0024E81A8510AC4205D00B4951F81D
:103F3000242090470134F7E706F0C2FD0849094AFA
:103F4000541AA5100024AC4205D0054B53F82400A8
:103F500080470134F7E738BDCCAA0800CCAA080096
:103F6000CCAA0800D4AA08000FB407B5064904ABD0
:103F7000086853F8042B8168019301F02DFBBDE81C
:103F80000E4004B0704700BF100007200EB403B508
:103F900003AB53F8042B8168019301F01DFBBDE8CE
:103FA0000C4003B0704700BF10B50023934203D00C
:103FB000CC5CC4540133F9E710BD82180346934228
:103FC00002D003F8011BFAE7704700000FB407B5F1
:103FD000064904AB086853F8042B4168019301F0CB
:103FE0005DFFBDE80E4004B0704700BF1000072021
:103FF0000EB403B503AB53F8042B4168019301F0F1
:104000004DFFBDE80C4003B0704700BF00290CBF56
:10401000022200224FF4806300F000B82DE9F04145
:104020001D46374B044618680E461746984618B189
:10403000826B0AB902F0E6FC022F5DD8002D5BDB33
:104040002146D8F8000002F0EBFBA189002001F026
:1040500080031AB26060A06122B12948216900681A
:1040600002F06CFEA189022F21F08303A38112D0FC
:1040700036BB002D08BF4FF48065284603F0ACFC2A
:104080000646C8B94FF4806003F0A6FC064688B91E
:104090004FF0FF3000E00020A189002241F0020330
:1040A000A38104F143010123A260216021616361C6
:1040B000BDE8F0814FF48065A28942F08000A081C4
:1040C000012F05D1A1896A4241F00103A381A261B8
:1040D0000B48A28901680B4B02F0080000B2CB63C9
:1040E00026602661656148B112F0030F18BF0025F4
:1040F000A5600020BDE8F0814FF0FF30BDE8F08101
:1041000010000720796908000CB410B59CB01EABF4
:10411000029106916FF0004153F8042B049107912E
:104120004FF6FF71ADF816104FF4027402A9019317
:10413000ADF8144000F020FE029B00221A701CB063
:10414000BDE8104002B070470EB400B59CB00290BC
:1041500006906FF000401DAB049007904FF4027181
:104160000A4853F8042BADF814104FF6FF71ADF860
:104170001610006802A9019300F0FEFD029B0022C8
:104180001A701CB05DF804EB03B0704710000720F4
:10419000034613F8012B002AFBD1181A0138704787
:1041A00070B592B10B4605461AB928781978401AAD
:1041B00070BD10F8016B1C780131B442F5D1012AB1
:1041C000F3D0013A002CEDD1EFE7104670BD30B5C9
:1041D000013903461C463AB111F8015F013A03F870
:1041E000015B1C46002DF5D199188C4203D00022AA
:1041F00004F8012BF9E730BD30B5056811F8012B43
:104200002C466B1C52B11D466378402B02DD5A2BA5
:10421000D8BF20339342F1D0002030BD036001208D
:1042200030BD2DE9F04F97B0029088460F924FF0C5
:10423000000A4FF0000B1191119A13780D2B05D83D
:10424000092B13D2002B00F0AE8112E02B2B06D0ED
:104250002D2B02D0202B0CD108E0012300E00023FD
:10426000541C119452780B932AB99CE1511C119162
:10427000E2E700240B94119C2178302956D1637811
:10428000582B01D0782B45D10B999F4E12AF009738
:104290000191029811A9324613AB02F0FFFF10F012
:1042A0000707054600F02485062F03D1611C1191F4
:1042B00000F01EBD129A3AB114A8316804F0D8F982
:1042C0000298129903F04AFE013F1398042F1AD85E
:1042D000DFE807F0080312150800DDF850A0DDF84C
:1042E00054B010E0159B00F2334223F48014DDF843
:1042F00050A044EA025B06E0DFF810B203E06FF082
:10430000004B4FF0FF3A290740F1F2844BF0004B8D
:1043100000F0EEBC119C621C119261783029F9D03A
:10432000002900F0E5840126049601E000250495AB
:10433000119F0697002703973E46119D2C782F2C3E
:1043400016DC029803F0CAFAD0F80090029803F045
:10435000C5FA0068FFF71CFF494602462846FFF7EA
:104360001FFF8146C8B1002335461A46079374E003
:10437000392CE6DC0F2E0CDC082ED8BF03984FF04A
:104380000A03A4F13004D6BF03FB004003FB074738
:1043900003906C1C01361194CFE70298119C03F036
:1043A0009DFA0068FFF7F4FE23181193245C1EB1F8
:1043B00035464B464A4645E03346302C05D1119DE3
:1043C00001336A1C11926C78F7E7A4F131000828D8
:1043D0003FD8119A06921A4600231D46591CB4F183
:1043E00030092AD05218681CC5EB000C8C4511DA34
:1043F00000F1FF3EBEF1100F0ADC0928D8BF039C74
:104400004FF00A0CD6BF0CFB04F40CFB07F7039427
:104410000130E9E7002BACBFEB182B1C5D1C102B07
:104420000ADC092DD8BF039C4FF00A00D6BF00FB61
:10443000049400FB079703940021119C631C1193C3
:1044400064780B46A4F130000928C7D901210791EF
:1044500003E0002501212A460791652C01D0452C57
:1044600058D125B91BB9049C002C00F09C80DDF8C4
:10447000448008F10100119098F801402B2C03D0E2
:104480002D2C03D0002007E0002000E0012008F1DF
:104490000201119198F80240A4F1300EBEF1090F0B
:1044A00036D8302C06D1119C04F10109CDF8449086
:1044B0006478F6E7A4F13109B9F1080F2AD8A4F11C
:1044C000300C119C0594119901F1010ECDF844E0D6
:1044D0004C782F2C0BDC0599C1EB0E09B9F1080FB4
:1044E00044F61F690CDCCC45B8BFE14608E0392C26
:1044F000F1DC4FF00A0E0EFB0C4CACF1300CE2E795
:1045000050B1C9F1000907E0400407200000F07F26
:10451000CDF844804FF00009002D49D1002B40F028
:10452000E783049A002A40F0E383079B002B3AD1EB
:104530004E2C1BD002DC492C35D104E0692C02D072
:104540006E2C30D112E011A8A449FFF755FE50B3EC
:10455000119C11A8611E1191A149FFF74DFE10B9E0
:104560001198421C1192DFF88CB219E011A89D49F4
:10457000FFF742FEB8B1119B1C78282C0ED111A870
:10458000994914AA03F0D8F8052807D11599DDF840
:1045900050A041F0FF4040F4E00BA9E3DFF860B227
:1045A0004FF0000AA4E30021CDF844800B919FE373
:1045B000C2EB090203980592FFF7E8F9102DB4BF8A
:1045C0002C461024002E08BF2E46092C82468B460E
:1045D00015DD864B03EBC402A2F14803D3E90023A7
:1045E000FFF74AFA804638468946FFF7CFF9024678
:1045F0000B4640464946FFF78DF882468B460F2D05
:1046000036DC0598002800F0738323DD162806DCCD
:104610007649524601EBC00003C85B4615E0059899
:10462000C5F12502904223DC704CC5F10F0504EB67
:10463000C502D2E900015B465246FFF71DFA059B11
:104640005D1B04EBC504D4E90023FFF715FA82468D
:104650008B464DE3059911F1160F09DB634C50466B
:10466000A4EBC103D3E900235946FFF72FFBEEE784
:10467000291B059C6418002C54DD14F00F000AD08F
:104680005A4A5B4602EBC001D1E900015246FFF7EE
:10469000F3F982468B4634F00F0300F0B580B3F592
:1046A0009A7F0FDD4FF00008CDF80C80CDF81C800C
:1046B000CDF81880029822210160DFF838B14FF060
:1046C000000A72E11F11504659464FF00008012FB1
:1046D0000CDDFA0706D5464A02EBC803D3E90023EE
:1046E000FFF7CAF908F101087F10F0E702464048D9
:1046F000A1F1547300EBC801D1E90001FFF7BCF947
:104700003C4B3D4C0B40A34282468B46CAD8A4F595
:104710008017BB4286BFDFF8ECB04FF0FF3A01F1E3
:10472000547B71E070D0674217F00F030AD02F4A14
:10473000504602EBC3045946D4E90023FFF7C6FAFA
:1047400082468B463F115FD01F2F08DD4FF00008D7
:10475000CDF80C80CDF81C80CDF818801EE117F044
:10476000100F14BF6A200020244C04905946504674
:10477000002F08DDFB0703D5D4E90023FFF77CF900
:104780007F100834F4E78B4604998246E1B1CBF3FD
:104790000A53C3F16B04002C16DD1F2C0EDD342CE4
:1047A0004FF0000A02DD4FF05C7B0DE0203C4FF043
:1047B000FF3303FA04F404EA0B0B05E04FF0FF307B
:1047C00000FA04F101EA0A0A504659460022002381
:1047D00005F0F0FB0028B9D118E000BFD0A7080011
:1047E000D3A70800D9A708005404072088A9080007
:1047F00078AA08000000F07F0000A07CA8A70800AD
:104800000000F8FFFFFFEF7F00200490039932467D
:104810000091029806992B4603F0E5FB059E079050
:10482000002EC0F2C78000220E92079C0298616899
:1048300003F06EFB236921469F1CBA000C310690E1
:104840000C30FFF7B1FB13A910A85246009001915C
:104850005B460298CDE908AB03F078FE0121129087
:10486000029803F04EFC109A059E002A039026EA57
:10487000E677C0F2A2800E9D3B46AD18049C139EC5
:10488000141BA0196FF47F718842B4BF04F2334443
:10489000C6F13604049A2E191B19AE42B4BF304635
:1048A00028469C18A042A8BF2046002802DD361AE0
:1048B000241A2D1A0E9B8BB11A460399029803F005
:1048C000BAFC03900399129A029803F023FC129900
:1048D0008046029803F042FBCDF84880002E05DDAB
:1048E00002981299324603F0E9FC12902FB1029817
:1048F00006993A4603F09FFC0690002C05DD0298CD
:104900000699224603F0DAFC0690002D05DD029898
:1049100003992A4603F0D2FC03901299069A029852
:1049200003F03DFD4FF00009C4680399C0F80C90F6
:1049300080460A9403F016FD484546DA002C40F004
:10494000B081BAF1000F40F0AC81CBF313005C46AC
:10495000002840F0A6819C4A2240B2F1D66F40F276
:10496000A081D8F814305BB341460122029803F0CD
:10497000A5FC0399804603F0F5FC002840F39181E3
:104980002BF00044049B200D0205002B4AD0B2F10D
:10499000D66F47D8B2F15C7F00F28581029C22205D
:1049A0004FF0000A4FF0000B2060079C002C40F0F5
:1049B0008B819DE1059D6A4236E7BB1A0E9D5DE73E
:1049C000D8F810100129CFDC6BE159D10A9C14B33F
:1049D0002BF07F407D4C20F47001A1425A462AD131
:1049E000049B514663B178481040B0F1D46F07D8AA
:1049F000030DC3F16B044FF0FF3000FA04F401E043
:104A00004FF0FF34A14216D16F494FF0000A114018
:104A100001F5801B45E1CBF3130363B9BAF1000F35
:104A200009D1ADE7A2F580116FEA115A6FEA0A5B6E
:104A30004FF0FF3A35E10AF00102002A00F031811F
:104A40000A9BDDE9080153B103F00BFD02460B465A
:104A5000DDE90801FEF75EFE82468B4621E103F0A8
:104A600000FD02460B46DDE90801FEF751FE00227B
:104A7000002382468B4605F09DFA00288ED110E176
:104A80004046039903F0B6FD00224FF080430446F0
:104A90000D4605F0A3FA78B30A9911B100264C4FE0
:104AA0000FE05246BAF1000F03D1CBF3130636B92B
:104AB0000BE0012A03D1BBF1000F3FF46FAF454F6C
:104AC00000260024DFF8089126E02046294600222F
:104AD0003F4B05F079FA40B92046294600223E4B6B
:104AE000FEF7CAFF0446894602E00A9CDFF8E89018
:104AF000264609F100470FE0204629460022364BA2
:104B0000FEF7BAFF0A9F0446894617B901F100452E
:104B100000E00D4626462F462B4D5B462F481D4094
:104B200085422CD1ABF1547BDDE90801CDE90C01C4
:104B30005046594603F095FC02460B46304639462E
:104B4000FEF79AFF0B46024659465046FEF7E2FD35
:104B500082461D480B460840214988420CD921480D
:104B60000D99814203D10C9A01323FF4A3ADDFF8D5
:104B700074B04FF0FF3A83E003F1547B4BE00499AB
:104B8000002936D0B5F1D46F33D8204649460CA35E
:104B9000D3E9002305F022FA40B349462046FFF747
:104BA0007DF9002808BF0120FEF7F0FE04460A98B0
:104BB0008946C8B901F1004717E000BFAFF3008094
:104BC0000000C0FFFFFFDF410000F07FFFFF0F008C
:104BD0000000F03F0000F0BF0000E03F0000E07F79
:104BE000FFFF9F7CFFFFEF7F0F46264607F1D6624F
:104BF000571BDDE9080103F034FC02460B46304642
:104C00003946FEF739FF02460B46DDE90801FEF79B
:104C100081FD82468B46049B5E46002B30D1424A82
:104C2000324095422CD12046494605F0F5F9FEF771
:104C3000BDFE0B46024649462046FEF769FD0A9B2B
:104C400004460D462BB9BAF1000F02D1CBF313067F
:104C500086B1204629462EA3D3E9002305F0B4F9F6
:104C6000002831D1204629462BA3D3E9002305F0A3
:104C7000C9F904E02AA3D3E9002305F0A5F918BB7C
:104C80000298129903F06AF90298069903F066F9FE
:104C90000298039903F062F90298414603F05EF925
:104CA000C3E5049A82B1214B00210C910D9350462B
:104CB0005946DDE90C23FEF7DFFE82468B4619B923
:104CC00010B9029C222020600298129903F046F944
:104CD0000298069903F042F90298039903F03EF90D
:104CE0000298079903F03AF90298414603F036F921
:104CF0000F9808B1119A02600B9C514614B10BF148
:104D0000004300E05B460846194617B0BDE8F08F47
:104D10009535A094FFFFDF3F35E5AF350000E03F5C
:104D20009535A094FFFFCF3F0000F07F0000503981
:104D30000A460349034608681946FFF772BA00BFDE
:104D4000100007200A460A4938B503460868194684
:104D5000FFF767FA04460D4603F0BAFE18B9BDE83E
:104D6000384003F027BF2046294605F07DF938BDBD
:104D700010000720AFF300802DE9F04F1E468B890D
:104D8000894603F0800114460AB2A9B083469AB15D
:104D9000D9F8103083B9402102F02EFEC9F8000086
:104DA000C9F8100028B90C22CBF800204FF0FF30D2
:104DB000DAE34020C9F81400002118AD0B950D91DD
:104DC0000C91019405910491A846019B1C4613F88F
:104DD000012B1AB90198251A03D11DE0252AF5D116
:104DE000F8E7019A0D9988E824000C9A4B19501C99
:104DF00007280D930C9002DC08F1080809E05846DA
:104E000049460BAA04F0C4F9002840F0A2830DF132
:104E1000600804994B1904932278002A00F09283C9
:104E20000022013401948DF827204FF0FF3C0392BB
:104E30001746019810F8013B0190632B00F0B380F6
:104E400033DC392B1ADC312B80F291802B2B01D1F2
:104E50001A46EEE70ADC232B55D02A2B56D0202BFE
:104E600040F0F581002A08BF2022E2E72E2B58D01F
:104E7000302B79D02D2B40F0EA814FE04F2B00F002
:104E8000DE8007DC442B40F0E2818DF8272047F0DC
:104E9000100790E0552B00F01F81582B40F0D78170
:104EA000AE4D8DF82720059530E16F2B00F0C980BD
:104EB00010DC692B24D007DC642B21D0682B40F058
:104EC000C68147F04007B4E76C2B5FD06E2B40F0F3
:104ED000BE8196E0732B00F0DF8006DC702B00F0C3
:104EE000CD80712B40F0B3815AE0752B00F0F68035
:104EF000782B40F0AC819A4D8DF82720059505E17F
:104F00008DF8272057E047F0010792E7331D3668F8
:104F1000002E039615DA704203901E4647F00407F0
:104F200087E7019911F8013B2A2B01910BD1D6F8A3
:104F300000C0331DBCF1000F03DA1E464FF0FF3CEA
:104F400077E71E4675E74FF0000CA3F13000092803
:104F500007D801990A2303FB0C0C11F8013B0191BE
:104F6000F3E74CEAEC7C68E747F0800761E70198DB
:104F70000021303B0A2404FB013110F8013BA3F16E
:104F80003004092C0190F4D9039156E701990B786C
:104F90006C2B02D1481C019002E047F0100748E753
:104FA00047F0200745E7326800258DF838208DF856
:104FB0002750043655E1BA0607D5073626F007050F
:104FC00005F10806D5E900450FE017F0100F06F1CE
:104FD000040101D0326805E017F0400F326801D0BB
:104FE00014B200E01446E5170E46002C75F10002DD
:104FF00080F2B8802D23644265EB45058DF827309B
:10500000B0E017F0200F8DF8272006F1040205D03C
:10501000049C3568E0172C60686004E0FB0604D54A
:105020003368049919601646CFE63068049C17F07F
:10503000400F06F1040614BF04800460C5E647F083
:10504000100717F0200008D0F31D23F0070505F125
:105050000806D5E9004500207CE017F0100106F1B4
:10506000040206D117F0400003D03488002516460C
:10507000F1E736680025344616466BE0384B3021A0
:1050800078223468002547F002078DF828108DF843
:105090002920043605935CE031460025D1F800A0B4
:1050A0000436AC458DF82750504611DB6246294640
:1050B000CDF800C002F002FFDDF800C0002800F0CB
:1050C000D480CAEB0004644540F3D1806446CEE04E
:1050D000FFF75EF80446CAE047F01007BD0606D5A4
:1050E000F01D20F0070404F1080630CC0CE017F0A6
:1050F000100F06F1040303D17C0601D5348801E0CA
:1051000035682C4600251E46012023E0B80607D549
:10511000F41D24F0070101F10806D1E900450CE077
:1051200017F0100F06F1040003D1790601D5348879
:1051300001E03668344600250646FA0709D554EAE8
:10514000050206D030228DF828208DF8293047F04E
:105150000207022000218DF8271004E0FCA70800B8
:105160000DA808000120BCF1000FA8BF27F08007A0
:1051700054EA050102D1BCF1000F58D001281DD01E
:1051800002280DF15F0341D004F00702E40844EA6D
:105190004570E90804460D46303254EA05019A4646
:1051A0001A7003F1FF33EFD1F80755464AD5302A7C
:1051B00048D030229A4605F8012C43E0002D08BF64
:1051C0000A2C03D230348DF85F4036E00DF15F03D6
:1051D0000293204629460A220023CDF800C004F09D
:1051E00093FF0298303200F8012929460A22002351
:1051F000DDF808A00290204604F086FF04460D4624
:1052000054EA0501DDF800C0E3D11BE0059904F084
:105210000F0024090A5C44EA0570290904460D467A
:105220009A4603F8012954EA0502EFD10AE038B999
:10523000F90705D530208DF85F000DF15F0A01E018
:105240000DF1600A18ADCAEB050465460FE08DF854
:105250002720002B00F0768100258DF838308DF85E
:10526000275001240DF1380A01E0644605469DF8F7
:105270002730AC42ACBF21462946029113B10298B7
:10528000421C029217F00201069102D0029B981C68
:10529000029017F0840207923CD10399029BCB1A2B
:1052A000002B37DDA548102BC8F800001BDD0C9A39
:1052B00010210D98C8F80410511C103007290D90CA
:1052C0000C9102DC08F108080BE0584649460BAA8D
:1052D000009303F05DFF009B002840F03A810DF140
:1052E0006008103BDEE70D9AC8F80430D1180C9B1B
:1052F0000D91581C07280C9002DC08F1080809E001
:10530000584649460BAA03F043FF002840F021818C
:105310000DF160089DF82720DAB10DF12701C8F8DA
:1053200000100C9901230D98C8F804304B1C421C46
:10533000072B0D920C9302DC08F1080809E058468F
:1053400049460BAA03F024FF002840F002810DF12A
:1053500060080698D0B10AAAC8F800200C9A022169
:105360000D9BC8F80410511C981C07290D900C9136
:1053700002DC08F1080809E0584649460BAA03F088
:1053800007FF002840F0E5800DF16008079B802BA7
:105390003CD10398029A831A002B37DD6849102B01
:1053A000C8F800101BDD0C9810220D99C8F80420D5
:1053B000421C1031072A0D910C9202DC08F10808FA
:1053C0000BE0584649460BAA009303F0E1FE009B10
:1053D000002840F0BE800DF16008103BDEE70C9A1B
:1053E0000D98511CC8F80430072903440D930C9103
:1053F00002DC08F1080809E0584649460BAA03F008
:10540000C7FE002840F0A5800DF160082D1B002D7F
:1054100034DD4B48102DC8F8000019DD0C980D99AB
:10542000431C10221031072BC8F804200D910C9357
:1054300002DC08F1080809E0584649460BAA03F0C7
:10544000A7FE002840F085800DF16008103DE0E7E0
:105450000C9A0D9B511CC8F8045007291D440D954A
:105460000C9102DC08F1080808E0584649460BAAEE
:1054700003F08EFE00286CD10DF160080C9B0D9896
:105480005A1CC8F80440072A0444C8F800A00D9428
:105490000C9202DC08F1080307E0584649460BAAC3
:1054A00003F076FE002854D118AB7A070BD4049889
:1054B000029B039A0D999342ACBFC01880180490C8
:1054C000002936D02FE0039C0299641A002CEEDDEF
:1054D0001A48102C186015DD0C9910200D9A586090
:1054E000481C103207280D920C9001DC083307E0AD
:1054F000584649460BAA03F04BFE002829D118ABA9
:10550000103CE5E70C9A5C600D9B511C1C190729A7
:105510000D940C91CBDD584649460BAA03F038FE9A
:105520000028C4D015E0584649460BAA03F030FEC7
:1055300078B900250C950DF1600846E4DCA7080059
:10554000ECA708000D9820B1584649460BAA03F075
:105550001FFEB9F80C20049B02F0400108B200289D
:1055600018BF4FF0FF33184629B0BDE8F08F00BFD9
:1055700093682DE9F04781460F4614461BB95360E6
:105580001846BDE8F0874B6E9B041ED51568A068D1
:105590000835C8B155F8041C55F808AC4FEA910815
:1055A0000026464509DA48465AF826103A4601F0E0
:1055B000A5FA431C0BD00136F3E7A2684FEA88082E
:1055C000C8EB0203A360E2E701E001F06DFC0021FB
:1055D000A1606160BDE8F0872DE9F04F8946ADF22A
:1055E000CC4D14461E46834618B1836B0BB901F0AF
:1055F00009FAB9F80C0000F4005211B249B940F4AC
:105600000053D9F86400A9F80C3020F40052C9F80E
:105610006420B9F80C1001F0080318B248B1D9F8A9
:10562000102032B1B9F80C0000F01A010A2949D152
:105630000AE05846494601F03FF80028F2D04FF002
:10564000FF31029100F015BCB9F80E30190439D4BD
:10565000D9F86410D9F81C2020F00200ADF86E30A3
:10566000D9F82430ADF86C00319132A84FF4806144
:105670001F920022219318901C901A911D911E9246
:10568000584618A922463346FFF7A6FF0028029085
:1056900009DB584618A901F0C3F8029B002818BF7F
:1056A0004FF0FF330293BDF86C0000F040010AB2E6
:1056B000002A00F0DE83B9F80C3043F04000A9F86E
:1056C0000C00D6E3002232AD0B950D920C920194A2
:1056D00005920292A8460198044610F8011B19B9D8
:1056E000019BE51A03D11DE02529F5D1F8E70199C1
:1056F0000D9A88E822000C9950194B1C072B0D902D
:105700000C9302DC08F1080809E0584649460BAA48
:10571000FFF72EFF002840F0A4830DF1C808029A7D
:10572000501902902178002900F09483002201345E
:1057300001948DF827204FF0FF3C04921746019802
:1057400010F8013B0190632B00F0B38033DC392B60
:105750001ADC312B80F291802B2B01D11A46EEE717
:105760000ADC232B55D02A2B56D0202B40F0F78172
:10577000002A08BF2022E2E72E2B58D0302B79D008
:105780002D2B40F0EC814FE04F2B00F0DE8007DC4A
:10579000442B40F0E4818DF8272047F0100790E07B
:1057A000552B00F01F81582B40F0D981AE4D8DF85C
:1057B0002720059530E16F2B00F0C98010DC692BA4
:1057C00024D007DC642B21D0682B40F0C88147F03F
:1057D0004007B4E76C2B5FD06E2B40F0C08196E0A1
:1057E000732B00F0DF8006DC702B00F0CD80712B76
:1057F00040F0B5815AE0752B00F0F680782B40F030
:10580000AE819A4D8DF82720059505E18DF827206A
:1058100057E047F0010792E7331D3668002E0496E3
:1058200015DA704204901E4647F0040787E7019995
:1058300011F8013B2A2B01910BD1D6F800C0331D82
:10584000BCF1000F03DA1E464FF0FF3C77E71E461F
:1058500075E74FF0000CA3F13000092807D8019933
:105860000A2303FB0C0C11F8013B0191F3E74CEA0E
:10587000EC7C68E747F0800761E701980021303B46
:105880000A2404FB013110F8013BA3F13004092C78
:105890000190F4D9049156E701990B786C2B02D151
:1058A000481C019002E047F0100748E747F0200746
:1058B00045E7326800258DF838208DF827500436EA
:1058C00057E1BA0607D5073626F0070505F10806A1
:1058D000D5E900450FE017F0100F06F1040101D0E3
:1058E000326805E017F0400F326801D014B200E0D2
:1058F0001446E5170E46002C75F1000280F2B880C0
:105900002D23644265EB45058DF82730B0E017F094
:10591000200F8DF8272006F1040205D0029C35687F
:10592000E0172C60686004E0FB0604D53368029938
:1059300019601646CFE63068029C17F0400F06F15A
:10594000040614BF04800460C5E647F0100717F092
:10595000200008D0F31D23F0070505F10806D5E95E
:10596000004500207CE017F0100106F1040206D18A
:1059700017F0400003D0348800251646F1E736685A
:105980000025344616466BE0384B302178223468C7
:10599000002547F002078DF828108DF829200436DD
:1059A00005935CE031460025D1F800A00436AC45F3
:1059B0008DF82750504611DB62462946CDF800C0CD
:1059C00002F07CFADDF800C0002800F0D680CAEBB7
:1059D0000004644540F3D3806446D0E0FEF7D8FB72
:1059E0000446CCE047F01007BD0606D5F01D20F0B8
:1059F000070404F1080630CC0CE017F0100F06F194
:105A0000040303D17C0601D5348801E035682C46B7
:105A100000251E46012023E0B80607D5F41D24F01A
:105A2000070101F10806D1E900450CE017F0100F5D
:105A300006F1040003D1790601D5348801E0366807
:105A4000344600250646FA0709D554EA050206D071
:105A500030228DF828208DF8293047F002070220E7
:105A600000218DF8271004E0FCA708000DA808000D
:105A70000120BCF1000FA8BF27F0800754EA050100
:105A800002D1BCF1000F5AD001281DD002280DF11F
:105A90005F0343D004F00702E40844EA4570E908D4
:105AA00004460D46303254EA05019A461A7003F155
:105AB000FF33EFD1F80755464CD5302A4AD0302273
:105AC0009A4605F8012C45E0002D08BF0A2C05D2A6
:105AD00030340DF1380A0AF8274F3BE00DF15F032F
