S00F000050726F6A6563742E737265633E
S21408000058CB0720D1100800CD100800CD100800E6
S214080010CD100800CD100800CD1008000000000024
S2140800200000000000000000000000009D15080009
S214080030CD100800000000002D16080069160800FC
S214080040CD100800CD100800CD100800CD1008000F
S214080050CD100800CD100800CD100800CD100800FF
S214080060CD100800CD10080000000000DD0A0800CA
S214080070F90A0800150B0800310B080000000000FC
S21408008000000000CD100800CD100800CD100800B4
S214080090CD100800CD100800CD100800CD100800BF
S2140800A0CD10080000000000CD100800CD10080094
S2140800B0CD100800CD100800CD100800CD1008009F
S2140800C0CD100800CD100800CD100800CD1008008F
S2140800D0CD100800CD100800CD100800CD1008007F
S2140800E0CD100800CD100800CD100800CD1008006F
S2140800F0CD10080008B50548054B191A062900D87A
S21408010008BD044A002AFBD09047F9E7B463080004
S214080110B76308000000000008B50748074B191A1F
S2140801208A1002EBD273591000D108BD044A002A7F
S214080130FBD09047F9E700BFB4630800B463080033
S2140801400000000010B5064C237843B9FFF7D2FF2D
S214080150044810B10448AFF300800121217010BD97
S214080160E008072000000000B463080008B5084B44
S2140801701BB108480849AFF300800848016811B168
S214080180074A02B19047BDE80840FFF7C5BF00BF61
S21408019000000000B4630800E4080720B463080001
S2140801A00000000010B54FF43D40C0F2015041F287
S2140801B0D133C0F2080398474FF000004FF03E01D5
S2140801C040F6ED32C0F20802904740F65D44C0F2B1
S2140801D00804A0470028FCD040F66D40C0F208008E
S2140801E080474FF4C061C4F20E0143F60173C2F2B1
S2140801F00D038B6240F67D44C0F20804A047002831
S214080200FCD04FF0100040F64D32C0F2080290477E
S21408021041F20920C0F20800804710BD10B54FF023
S2140802201B0040F68D43C0F2080398474FF00004C1
S214080230C4F2080420464FF000010A4640F6E97367
S214080240C0F20803984720464FF0000141F2050225
S214080250C0F20802904720464FF0000141F20D0315
S214080260C0F2080398474FF0000010BD4FF4A053A3
S214080270C4F20E034FF480725A61C3F8A0205A6382
S2140802804FF49050C4F20E004FF400110161C0F80C
S214080290A0100163704700BF2DE9F04F83B042F20B
S2140802A0E523C0F208039847019042F2856AC0F237
S2140802B0080A40F2D949C0F208094AF61837C2F2C5
S2140802C0070740F20808C2F207084AF63836C2F2AC
S2140802D007064FF000044FF00005C4F2590501A8C0
S2140802E04FF06401D047C8473880B8F80010081A9D
S2140802F082B2328010B243F28153C0F208039847A4
S21408030043F24D6BC0F2080B40F20002C2F207023D
S2140803100CCAD84722462B46D84743F67123C0F264
S2140803200803984740F6FC01C2F207010860B0F5DA
S2140803307A7F07DD40F6FC03C2F207034FF47A71B2
S214080340196008E0002806DA40F6FC00C2F207004A
S2140803504FF00002026040F6FC0BC2F2070BDBF817
S214080360000040F23542C0F20802904746F290205C
S214080370C0F208003988B6F90020DBF8003043F6EA
S214080380453CC0F2080CE047A9E700BF30B585B089
S2140803904FF0240040F68D43C0F2080398474FF408
S2140803A08045C4F2090528464FF0000140F6DD7284
S2140803B0C0F20802904744F24020C0F20F000190B5
S2140803C04FF0000402944FF43D41C0F201510391EE
S2140803D0284601A940F63563C0F20803984740F658
S2140803E00011C2F207014FF00B024A604FF47A7010
S2140803F00861CC600C600C818C72284640F68162DD
S214080400C0F2080290474FF48050C4F20E004FF036
S21408041080514FF4803240F2E973C0F208039847DF
S2140804202846214640F6D172C0F20802904705B029
S21408043030BD00BF08B502464FF48040C4F209003C
S21408044040F60011C2F2070140F6AD73C0F2080389
S214080450984708BD38B54FF0250040F68D43C0F2E2
S214080460080398474FF00004C4F20C0420464FF4E3
S214080470F441C0F6032144F24022C0F20F024FF0C6
S214080480080340F22D75C0F20805A84720464FF02D
S21408049000014FF440124FF0010340F29575C0F288
S2140804A00805A84720464FF0000140F27572C0F2D2
S2140804B00802904720464FF00A0140F2BD73C0F28A
S2140804C00803984720464FF000010A4640F2857315
S2140804D0C0F20803984738BD10B54FF00004C4F2C0
S2140804E00C04204640F2B573C0F20803984720462D
S2140804F04FF00A0140F2C972C0F20802904784B26F
S21408050046F2A820C0F20800214643F64533C0F25A
S2140805100803984740F23A70844215D8A4F5DC627E
S21408052091B2592913D9A4F27C6398B2632811D9D9
S214080530A4F2E65291B295290FD940F2E5539C42AF
S21408054094BF3220002010BD4FF01E0010BD4FF0A3
S214080550230010BD4FF0280010BD4FF02D0010BD31
S2140805602DE9F8430C46904648BB002A2BDD8F1829
S2140805704AF65036C2F207064AF64835C2F207056A
S2140805806FEA010907EB090000F0010930682B68DB
S214080590984704F10104BC4219D10DE030682B6875
S2140805A02146984704F10104214630682A68904796
S2140805B004F10104BC42F1D14046BDE8F8834FF08F
S2140805C0FF30BDE8F8834FF00000BDE8F883B9F1C6
S2140805D0000FE3D030682A682146904704F10104EA
S2140805E0BC42DBD1E8E700BF2DE9F8430D4690464C
S2140805F000F1FF30022824D832B34AF65036C2F249
S21408060007064AF64C37C2F207074FF0000402F115
S214080610FF3909F0010930683B68095D9847A04230
S2140806201ADA14E030683B68295D984700280EDB24
S21408063004F1010430683A68295D904700281DDAFD
S21408064005E04FF0FF3404E04FF0000401E04FF0FF
S214080650FF342046BDE8F88304F10104A045F8D02D
S214080660B9F1000FDED030683A68295D9047002857
S214080670EDDB04F10104A045D4D1EAE704F1010456
S214080680A045CFD1E5E700BF10B541F65023C4F228
S2140806900E034FF400425A604FF00B0040F68D44AC
S2140806A0C0F20804A0474FF00C00A0474FF00D001A
S2140806B0A0474FF00E00A0474FF03B004FF06051A8
S2140806C040F6C104C0F20804A0474FF055004FF0AA
S2140806D06051A0474FF056004FF06051A0474FF0CA
S2140806E068004FF07901C2F60001A0474FF05C00A1
S2140806F04FF00101C2F60001A0474FF46060C4F253
S2140807000E004FF440714FF0006240F6C113C0F27D
S214080710080398474FF02B004FF00061A0474FF0B2
S2140807202A004FF00061A04710BD00BF30B44FF05C
S214080730010404604FF00004446040F20225C0F84B
S2140807402051C0F80441C0F8144145684FEA4202F7
S214080750B1FBF2F101F1FF324FEA02614FEA0343BF
S21408076003F4702242EA11410D434560204630BC2E
S214080770704700BF43684FEA011101F010021343A7
S21408078043607047436819434FEAC212D3B219430D
S2140807904160704710B4446822434FEA016101F093
S2140807A0706422434FEA037303F040510A434260E1
S2140807B010BC70474FF00203036070474FF0010308
S2140807C003FA01F1016170470F2904D801F11401F9
S2140807D050F8210070474FF0000070470AB1416694
S2140807E070470166704700BF4264B1F1805F16D05B
S2140807F004D8C9B1B1F1006F15D109E0B1F1405F75
S21408080012D0B1F1605F0FD0B1F1205F0BD1704705
S214080810036F016F0B4023EA0203036703E0036FCD
S21408082042EA030101674260704700BF41647047AF
S214080830F8B504460D4616461F4640F62D03C0F288
S2140808400803984720462946069A40F2DD73C0F208
S214080850080398470FB1256500E065650EB1256366
S21408086000E0656325612560F8BD00BF70B50446E5
S2140808700D46164640F62D03C0F208039847204654
S214080880294606F0010240F2DD73C0F208039847D5
S21408089016F00A0F14BF2562656216F0020F02D022
S2140808A0C4F8805004E016F0080F18BFC4F880504B
S2140808B06561256070BD00BFC06C7047806C70476E
S2140808C0F0B583B00D464FEA501606F5001101F252
S2140808D007724FEA422605F0F044B4F1205F42D092
S2140808E006D8B4F1006F0AD0B4F1805F64D120E076
S2140808F0B4F1405F46D0B4F1605F5DD142E000F0ED
S2140809001F074FF0010404FA07F730464FF000615E
S2140809103A4640F2E973C0F208039847304639462B
S21408092005EA040240F2DD73C0F208039847204641
S21408093044E000F01F004FF0010404FA00F73046C8
S2140809404FF080513A4640F2E973C0F208039847E0
S2140809503046394605EA040240F2DD73C0F2080361
S214080960984720462AE000F01F024FF00104304660
S21408097004FA02F12A4640F66D03C0F208039847C7
S21408098020461BE000F01F024FF0010405F06053FC
S21408099005EA04010091304604FA02F1B3F1605FFB
S2140809A014BF00220122C5F3800340F63105C0F2C9
S2140809B00805A847204601E04FF0000003B0F0BD48
S2140809C0F0B583B007460E46154602F0F044B4F17B
S2140809D0205F36D006D8B4F1006F0AD0B4F1805F35
S2140809E04DD11AE0B4F1405F33D0B4F1605F46D120
S2140809F02FE04FF00061324640F2E973C0F2080378
S214080A0098473846314605F0010240F2DD73C0F2D9
S214080A10080398474FF0010033E04FF08051324604
S214080A2040F2E973C0F2080398473846314605F0A5
S214080A30010240F2DD73C0F2080398474FF0010048
S214080A401FE040F66D03C0F2080398474FF0010018
S214080A5017E005F0605205F0010000903846314670
S214080A60B2F1605F14BF00220122C5F3800340F68E
S214080A703104C0F20804A0474FF0010001E04FF02F
S214080A80000003B0F0BD00BFF8B504460E4640F6B9
S214080A90B903C0F2080398470546204640F6BD014C
S214080AA0C0F208018847054014D00B4C274654F876
S214080AB00C0CB0420AD154F8081C294206D0226809
S214080AC03046904754F8083C25EA030504F110041C
S214080AD0002DEBD1F8BD00BF3409072008B54FF448
S214080AE06060C4F20E004FF00B0140F68923C0F296
S214080AF00803984708BD00BF08B54FF48050C4F2F5
S214080B000E004FF00C0140F68923C0F20803984700
S214080B1008BD00BF08B54FF49050C4F20E004FF061
S214080B200D0140F68923C0F20803984708BD00BFA8
S214080B3008B54FF4A050C4F20E004FF00E0140F670
S214080B408923C0F20803984708BD00BF4FF4C06366
S214080B50C4F20E031A6B22F0700108431863986EED
S214080B6010F0080F07D010E000F1FF33906E10F079
S214080B70080F38D009E04FF400604FF4C062C4F2A2
S214080B800E02916E11F0080FEED04FF4C061C4F259
S214080B900E010A6B22F0030343F002000863896E15
S214080BA011F0080F09D04FF00000704703F1FF332B
S214080BB0916E11F0080F13D009E04FF400634FF45C
S214080BC0C062C4F20E02906E10F0080FEED04FF01E
S214080BD0000070474FF0010070474FF00100704763
S214080BE0013BF0D1F9E7581ECBD1F3E788B14FF4B3
S214080BF0C061C4F20E01086A4FF6FC72CFF6C862EE
S214080C0002404FF00203C0F2371342EA03000862BC
S214080C1070474FF4C063C4F20E031A6A22F45C10DD
S214080C2020F0030242F45C1040F001024FEA016132
S214080C3042EA114018624FF4C062C4F20E02936E84
S214080C4013F0010FFBD04FF4C061C4F20E01086A1E
S214080C5040F09B7242F480330B6270474FF4C063D7
S214080C60C4F20E03986E00F4803070474FF4C063E9
S214080C70C4F20E034FF000529A6270474FF4C063F6
S214080C80C4F20E03986E00F0020070472C2835D880
S214080C901F2817D84FF4C061C4F20E018A694FF0B6
S214080CA0010303FA00F31A4093422AD04FF00101D9
S214080CB001FA00F04FF4C062C4F20E0210614FF061
S214080CC0000070474FF4C063C4F20E03D3F808213F
S214080CD0A0F120004FF0010101FA00F10A4091420C
S214080CE012D04FF0010303FA00F04FF4C062C4F2CA
S214080CF00E02C2F800014FF0000070474FF00100E6
S214080D0070474FF0000070474FF00000704700BF74
S214080D10F0B48CB006460F4601AC46F2B425C0F2D5
S214080D2008050FCD0FC40FCD0FC495E8070084E85B
S214080D300700019BB7FBF3F0B0FBF6F1B1F5807F37
S214080D4052D90299B7FBF1F2B2FBF6F1B1F5807F02
S214080D504FD9039BB7FBF3F0B0FBF6F1B1F5807FF4
S214080D604AD90499B7FBF1F2B2FBF6F1B1F5807FE8
S214080D7045D9059BB7FBF3F0B0FBF6F1B1F5807FDC
S214080D8040D90699B7FBF1F2B2FBF6F1B1F5807FD0
S214080D903BD9079BB7FBF3F0B0FBF6F1B1F5807FC4
S214080DA036D90899B7FBF1F2B2FBF6F1B1F5807FB8
S214080DB031D9099BB7FBF3F0B0FBF6F1B1F5807FAC
S214080DC02CD90A99B7FBF1F2B2FBF6F1B1F5807FA0
S214080DD027D90B9BB7FBF3F0B0FBF6F1B1F5807F94
S214080DE022D94FF6FF7022E04FF0000241EA0220B7
S214080DF01DE04FF00102F9E74FF00202F6E74FF068
S214080E000302F3E74FF00402F0E74FF00502EDE7C0
S214080E104FF00602EAE74FF00702E7E74FF008024E
S214080E20E4E74FF00902E1E74FF00A02DEE70CB00C
S214080E30F0BC704770B506460C46086858B1896815
S214080E4040F61153C0F2080398474FF6FF718842E0
S214080E5014D0054601E04FF00005606858B1A16857
S214080E6040F61152C0F2080290474FF6FF739842B8
S214080E7004D045EA004535604FF0000070BD00BF5D
S214080E8070B40B684FF0010202FA03F28E8A4C68BF
S214080E9004F00F052E430C8926438D7A46EA45262C
S214080EA08C7D46EA0445CE7D45EA46450C7E45EAF5
S214080EB0844603F110054FEA451405190651CC6817
S214080EC06C600C6900EB4315C5F80C428C7D3CB190
S214080ED08D8B4C8B44EA054500EB4314C4F8185236
S214080EE0CD7F05FA03F58C7F04FA03F444EA05453A
S214080EF0856491F8215005FA03F591F8204004FA24
S214080F0003F444EA0544446491F822401CB1046A98
S214080F101443046203E0046A24EA0204046291F8B3
S214080F202440012C03D1846E1443846606E0846E44
S214080F30002A14BF002404F00104846691F82540B2
S214080F40012C04D1846E44EA0242826606E0846E6E
S214080F50120414BF002204F001028266032B0FD885
S214080F60C46E4FEAC3034FF0FF0202FA03F224EA04
S214080F70020291F8231001FA03F31A43C26610E03E
S214080F80A3F10403046F4FEAC3034FF0FF0202FA0B
S214080F9003F224EA020291F8231001FA03F31A4333
S214080FA002674FF0000070BC704700BF10B40C68B2
S214080FB00B69934207D3CA6000EB4410C0F80822B6
S214080FC04FF0000001E04FF6FF7010BC704700BFFE
S214080FD04FF0010303FA01F1416070474FF0010337
S214080FE003FA01F18160704710B44FEA8111431883
S214080FF04FF0020444504FF0FF309862196A5A6066
S21408100010BC7047C0F8C410704700BF4FEA811183
S2140810104FF002034350704710B44FF0AC03036020
S2140810200A684C68B2FBF4F34FEA131303F1FF3473
S2140810304FF6FE7294420CD803628968416040F20B
S2140810400223C0F820314FF0500202604FF0000033
S21408105001E04FF0010010BC704700BF436913F071
S214081060020F03D0C1614FF0000070474FF0010037
S214081070704700BF436913F0010F04D080690870F9
S2140810804FF0000070474FF001007047436913F0B7
S214081090020F07D04FEAC1514FEAD152C2614FF052
S2140810A0000070474FF00100704700BF436913F017
S2140810B0010F08D080694FEAC0524FEAD2530B603E
S2140810C04FF0000070474FF001007047FEE700BF82
S2140810D038B540F20003C2F2070346F2B432C0F253
S2140810E008029A4203D040484049814204D3404B04
S2140810F0404A9A4225D342E03F4D404C631B23F0BA
S21408110003054FF0000340F20002C2F2070246F25F
S214081110B431C0F2080105F10400C5F380045D5837
S2140811209D5003F10403834255D1E0E75D589D5076
S21408113003F104035C589C5003F104038342F5D181
S214081140D5E72F4D2F49481B20F0030440F6E0034F
S214081150C2F20703E2184FF00001501BA0F104008A
S214081160C0F3800445F8041F95422DD107E005F129
S2140811700403696005F1080559609542F7D140F205
S2140811800005C0F2080525F0604222F07F014FF402
S2140811906D40CEF20000816005F16044B4F5801F12
S2140811A007D24FF46D43CEF200039D6845F0005217
S2140811B09A6043F6F921C0F20801884743F24120B5
S2140811C0C0F208008047FEE7002CD0D045F8041F80
S2140811D09542CCD1D3E7002CA8D05C589C5003F19C
S2140811E004038342A2D182E7E00807200000072014
S2140811F058AB0720E008072004000720E30807206C
S214081200DC08072053AB07204FF4C063C4F20E0374
S214081210186B00F00301032900F2B180DFE801F043
S21408122002144F4F41F61020C4F20E00416911F027
S214081230800F40F20C03C2F2070314BF4FF40042BB
S2140812404FF4FA421A609AE04FF4C063C4F20E03F1
S214081250186A10F0807F09D04FF4D853C0F2B7034D
S21408126040F20C02C2F20702136088E04FF41061E5
S214081270C0F23D0140F20C02C2F2070211604FF4C0
S214081280C063C4F20E03186A00F07001102902D079
S214081290202974D109E04FF49050C0F27A0040F249
S2140812A00C01C2F20701086069E04FF4D853C0F297
S2140812B0B70340F20C02C2F2070213605FE04FF475
S2140812C0C062C4F20E02136A13F0807F09D04FF48E
S2140812D0D851C0F2B70140F20C02C2F20702116000
S2140812E027E04FF41060C0F23D0040F20C01C2F255
S2140812F0070108604FF4C062C4F20E02136A03F0D6
S2140813007000102802D0202813D109E04FF490531B
S214081310C0F27A0340F20C00C2F20700036008E04D
S2140813204FF4D851C0F2B70140F20C02C2F20702DD
S21408133011604FF4C063C4F20E03186B00F003018B
S214081340022913D14FF4C061C4F20E01886A896A73
S21408135040F20C03C2F20703C0F30A401A6800FB07
S2140813600220C9B2B0FBF1F21A6008E04FF4E0536D
S214081370C0F64E6340F20C02C2F2070213604FF446
S214081380C062C4F20E02106B00F0700170290ED114
S21408139040F20C03C2F2070318684AF6AB22CAF6F4
S2140813A0AA22A2FB00014FEA5100186070474FF4CA
S2140813B0C063C4F20E031A6B40F20C00C2F20700B8
S2140813C0C2F30211036823FA01F30360704700BFF3
S2140813D045F29F23C0F2571398420CD84FF420606A
S2140813E0C4F20E004FF0000101604FF44063C4F2EF
S2140813F00E03196070474CF67F41C0F206218842FA
S2140814000CD84FF42063C4F20E034FF480711960B1
S2140814104FF44062C4F20E02116070474BF23F73FD
S214081420C0F2283398420CD84FF42061C4F20E015B
S2140814304FF400720A604FF44060C4F20E00026077
S214081440704742F67F71C0F2A64188424FF420608A
S214081450C4F20E0094BF4FF440724FF480620260EC
S2140814604FF44063C4F20E031A60704740F69813B0
S214081470C2F20703196841B940F69813C2F2070387
S2140814804CF65832C2F207021A6040F69811C2F2B9
S21408149007010B6818180860184670474FF0FF30A9
S2140814A0704700BF4FF400534B604FF00000704782
S2140814B04FF00100704700BF4FF00000704700BFB4
S2140814C000F1080343604FF0FF328260C360036197
S2140814D04FF00001016070474FF00003036170474A
S2140814E043685A684A6042688A605A6891605960D8
S2140814F041600861016801F101010160704700BFA1
S21408150010B40C68B4F1FF3F01D103690AE000F19A
S2140815100803C2681268944204D35B685A68126863
S2140815209442FAD25A684A6091608B6059600861A2
S214081530016801F10101016010BC704743688268C8
S2140815409A60816843684B6001694A68824204BFB2
S21408155082684A604FF000030361086800F1FF32B2
S2140815600A600868704700BF03480068006880F390
S214081570088862B600DF00BF08ED00E04FF0807311
S21408158040F8043C40F8081C4FF0000140F80C1CDA
S21408159040F8202CA0F14000704700BF064B1968A1
S2140815A00868B0E8F00F80F309884FF0000080F371
S2140815B011884EF00D0E704764AA07204EF60453A5
S2140815C0CEF200034FF080521A607047EFF3118096
S2140815D04FF0A00181F3118870474FF0000000BF5C
S2140815E008B541F2CD53C0F20803984740F2100000
S2140815F0C2F20700026802F10102026008BD00BFDD
S21408160080F31188704700BF08B540F21002C2F296
S2140816100702136803F1FF30106030B94FF000007E
S21408162041F20161C0F20801884708BDEFF309805E
S2140816300C4B1A6820E9F00F10602DE908404FF0AF
S214081640A00080F3118801F077F84FF0000080F3CF
S2140816501188BDE8084019680868B0E8F00F80F3FC
S2140816600988704764AA072008B54EF60453CEF2D8
S21408167000034FF080521A6041F2CD50C0F20800C5
S214081680804742F20931C0F2080188474FF000004F
S21408169041F20163C0F20803984708BD4EF21403EE
S2140816A0CEF2000344F61F02C0F201021A604EF2A0
S2140816B01000CEF200004FF007010160704700BF2F
S2140816C010B54EF62053CEF200031A6842F47000A6
S2140816D01860196841F070441C6041F29D63C0F2BE
S2140816E0080398474FF0000440F21002C2F20702BF
S2140816F0146041F26950C0F208008047204610BDC9
S21408170030B44AF6A412C2F2070200E01A4613687A
S2140817108342FBD3114654681519854203D168687D
S21408172004195460104642688418A3420FD14AF63A
S214081730A014C2F2070424689C4206D05B689A1874
S21408174042600B681A68026002E0036000E003600B
S214081750814218BF086030BC704700BF38B50446E1
S21408176042F2D123C0F2080398474AF6A010C2F204
S2140817700700016821BB4AF6A412C2F2070240F627
S214081780A013C2F2070313604FF00001516003F57F
S2140817901F4202F1F0004AF6A015C2F207052860BB
S2140817A0C2F8F410C2F8F01049F6F07159601860E3
S2140817B040F21403C2F207031A68A2F110021A6074
S2140817C0002C3CD004F1100212F0070F1CBF22F0C8
S2140817D00702083202F1FF3049F6FE75A84231D8F2
S2140817E04AF6A411C2F207010C6801E02146044635
S2140817F063689A4202D920680028F7D14AF6A015ED
S214081800C2F207052B689C421FD00D6805F110052B
S2140818102068086061688B1A202B07D9A0184360D7
S214081820626041F20172C0F20802904740F214006A
S214081830C2F20700036861685A1A026007E04FF0B0
S214081840000504E04FF0000501E04FF0000542F205
S2140818509940C0F208008047284638BD10B50446AF
S214081860C8B142F2D123C0F20803984740F21400E8
S214081870C2F20700016854F80C2C8B180360A4F118
S214081880100041F20171C0F20801884742F29940FF
S214081890C0F20800804710BDF8B5044641F2E1538F
S2140818A0C0F208039847A06C00281ADD616A19B9C7
S2140818B017E0616A51B914E004F1240642F6C1053E
S2140818C0C0F2080542F64527C0F208073046A84782
S2140818D000B1B847A26C02F1FF33A364A06C0028DD
S2140818E0E7DC4FF0FF32A26441F20963C0F2080356
S2140818F0984741F2E150C0F208008047616C002921
S2140819001ADD22691AB917E0226952B914E004F1FF
S214081910100642F6C105C0F2080542F64527C0F291
S21408192008073046A84700B1B847636C03F1FF3094
S2140819306064616C0029E7DC4FF0FF33636441F2B2
S2140819400960C0F208008047F8BD00BF38B50346F6
S214081950056875B1026CC468A418C46040688442FF
S21408196028BFDD600846D96843F68533C0F2080309
S214081970984738BD10B50446036C63B9016800295A
S2140819802ED1406842F63133C0F2080398474FF02C
S2140819900000606024E082B980681A4643F6853302
S2140819A0C0F208039847A268216C5018A0606368C4
S2140819B0984215D32268A26012E0C0681A4643F619
S2140819C08533C0F208039847226CC2F10000E1682C
S2140819D00B18E3602268934202D261680818E06038
S2140819E0A26B02F10102A26310BD00BF38B50D4616
S2140819F0044630B941F2CD54C0F20804A04700BFEF
S214081A00FDE741F2E153C0F2080398472368E06B0C
S214081A10226C00FB023161604FF00001A163A360F5
S214081A2000F1FF3002FB0033E3604FF0FF326264E0
S214081A30A26485B92169C1B104F1100042F6C10358
S214081A40C0F20803984701280FD141F2BD50C0F2F2
S214081A500800804709E004F1100041F2C145C0F2D1
S214081A600805A84704F12400A84741F20962C0F215
S214081A70080290474FF0010038BD00BFF8B50D4684
S214081A8017460646E0B14FF0500041F25D73C0F2CB
S214081A9008039847044698B106FB05F000F10100D4
S214081AA041F25D71C0F208018847206070B920468F
S214081AB041F65D02C0F20802904701E000BFFDE76C
S214081AC041F2CD50C0F208008047F7E7E663256488
S214081AD020464FF0010141F6ED13C0F2080398477F
S214081AE084F84D702046F8BD2DE9F04F85B08A463B
S214081AF001920093044630B941F2CD54C0F208046E
S214081B00A04700BFFDE741B9036C4BB141F2CD5089
S214081B10C0F20800804700BFFDE74FF0000701E06D
S214081B204FF0000741F2E156C0F2080642F6691B7C
S214081B30C0F2080B41F20965C0F20805B047A26B6F
S214081B40E16B8A421FD220465146009A41F6751329
S214081B50C0F208039847616A69B104F1240042F6A6
S214081B60C102C0F208029047012804D141F2BD50D4
S214081B70C0F20800804741F20963C0F2080398479C
S214081B804FF0010066E0019B3BB941F20962C0F2E2
S214081B90080290474FF000005CE01FB902A8D8473B
S214081BA04FF00107A84742F2D120C0F2080080474C
S214081BB0B047626CB2F1FF3F04BF00226264A16CBA
S214081BC0B1F1FF3F04BF0021A164A84702A801A9FC
S214081BD042F69913C0F20803984770BBB047D4F88A
S214081BE03890D4F83C80A847C1451AD104F11000B3
S214081BF0019942F2F972C0F208029047204641F66F
S214081C009901C0F20801884742F29940C0F20800DC
S214081C108047002892D141F2BD53C0F20803984786
S214081C208CE7204641F69901C0F20801884742F23F
S214081C309943C0F20803984780E7204641F6990280
S214081C40C0F20802904742F29940C0F20800804766
S214081C504FF0000005B0BDE8F08F00BF2DE9F04159
S214081C600E4615469846044630B941F2CD55C0F2A0
S214081C700805A84700BFFDE741B9036C33B141F238
S214081C80CD50C0F20800804700BFFDE741F2CD51B5
S214081C90C0F2080188470746A26BE36B9A4221D236
S214081CA020463146424641F67513C0F20803984767
S214081CB0A06CB0F1FF3F0ED1626AB2B104F1240005
S214081CC042F6C104C0F20804A04788B19DB14FF09F
S214081CD001042C6011E0A16C01F10101A1644FF030
S214081CE001040AE04FF0000407E04FF0010404E0A6
S214081CF04FF0010401E04FF00104384641F2016359
S214081D00C0F2080398472046BDE8F0812DE9F04F59
S214081D1085B0894601929A46044630B941F2CD54B8
S214081D20C0F20804A04700BFFDE741B9036C4BB1F9
S214081D3041F2CD50C0F20800804700BFFDE74FF0E3
S214081D40000701E04FF0000741F2E156C0F208062E
S214081D5042F6691BC0F2080B41F20965C0F2080595
S214081D60B047A16B00293FD0E5682046494641F6B2
S214081D704D13C0F208039847BAF1000F1CD1A36BA5
S214081D8003F1FF30A063216829B942F65522C0F254
S214081D900802904760602369F3B104F1100042F628
S214081DA0C101C0F208018847012815D141F2BD508B
S214081DB0C0F2080080470FE0E560606A60B104F191
S214081DC0240042F6C101C0F20801884720B141F25A
S214081DD0BD52C0F20802904741F20962C0F20802FA
S214081DE090474FF0010071E0019A3AB941F2096252
S214081DF0C0F2080290474FF0000067E01FB902A83B
S214081E00D8474FF00107A84742F2D123C0F208038B
S214081E109847B047606CB0F1FF3F04BF002060648D
S214081E20A16CB1F1FF3F04BF0021A164A84702A836
S214081E3001A942F69912C0F208029047002838D144
S214081E40B047D4F83880A847B8F1000F25D12368E2
S214081E503BB9B047606842F68921C0F20801884756
S214081E60A84704F12400019942F2F972C0F2080268
S214081E709047204641F69903C0F20803984742F275
S214081E809940C0F20800804700287FF469AF41F205
S214081E90BD51C0F20801884762E7204641F699011D
S214081EA0C0F20801884742F29942C0F208029047F9
S214081EB056E7204641F69903C0F20803984742F2CF
S214081EC09940C0F2080080474FF0000005B0BDE812
S214081ED0F08F00BF38B504460D4641F2E153C0F214
S214081EE008039847606CB0F1FF3F04BF00206064A9
S214081EF0A16CB1F1FF3F04BF0021A16441F2096261
S214081F00C0F208029047A36B3BB904F124002946A7
S214081F1042F66D02C0F208029047204641F6990143
S214081F20C0F20801884738BD10B504464AF664234F
S214081F30C2F20703186844604AF68021C2F2070115
S214081F400A68944211D24AF68422C2F2070210683E
S214081F504AF66423C2F20703196801F1040141F244
S214081F600152C0F20802904710BD4AF6C413C2F2E6
S214081F70070318684AF66421C2F20701096801F1E6
S214081F80040141F20152C0F20802904740F21800DC
S214081F90C2F2070003689C4204D240F21801C2F25B
S214081FA007010C6010BD00BF2DE9F84F0F4690469C
S214081FB09A460A9D0C9E814630B941F2CD57C0F22A
S214081FC00807B84700BFFDE7042D06D941F2CD55EE
S214081FD0C0F20805A84700BFFDE74FF04C0041F2E5
S214081FE05D73C0F2080398470446002800F027816E
S214081FF0002E40F022814FEA880041F25D71C0F25F
S214082000080188470646206330B9204641F65D0237
S214082010C0F20802904712E130464FF0A5014FEA99
S214082020880243F69736C0F20806B04708F1FF382C
S214082030206B00EB880222F0070B04F134003946C7
S2140820404FF00A0243F6B547C0F20807B8474FF004
S214082050000384F83D30042D34BF2E460426E6627D
S214082060A66404F10407384641F2D948C0F20808C5
S214082070C04704F11800C0472461C6F10506A661EA
S214082080646258464946524641F27D53C0F20803F8
S2140820909847206010F0070F06D041F2CD54C0F2E2
S2140820A00804A04700BFFDE70B9901B10C6041F298
S2140820B0E150C0F2080080474AF6A423C2F207039C
S2140820C01A6802F101021A604AF66421C2F2070190
S2140820D00868002849D14AF66421C2F207010C6054
S2140820E04AF6A420C2F207000368012B50D14AF62C
S2140820F0FC19C2F20709484641F2C146C0F2080672
S214082100B04709F11400B04709F12800B04709F1B3
S2140821103C00B04709F15000B0474AF68C29C2F295
S21408212007094846B0474AF6E418C2F20708404688
S214082130B0474AF66820C2F20700B0474AF6D01001
S214082140C2F20700B0474AF6B010C2F20700B0471E
S2140821504AF6C412C2F20702C2F800904AF6842170
S214082160C2F20701C1F8008012E04AF6C813C2F2AC
S21408217007031A6862B94AF66421C2F207010868BA
S214082180C36A9D4204D34AF66422C2F20702146068
S214082190E06A4AF6A823C2F207031A68904204D9EE
S2140821A04AF6A821C2F2070108604AF68823C2F256
S2140821B007031A68226402F101021A604AF6F81147
S2140821C0C2F207010B68984204D94AF6F812C2F21E
S2140821D00702106000EB80014AF6FC100346C2F2C4
S2140821E0070303EB8100394641F2E142C0F20802D8
S2140821F0904741F20961C0F2080188474AF6C810BC
S214082200C2F20700036883B14AF66422C2F20702E4
S2140822101168C86A85420CD941F2BD53C0F208035A
S21408222098474FF00100BDE8F88F4FF00100BDE871
S214082230F88F4FF00100BDE8F88F0663ECE64FF024
S214082240FF30BDE8F88F00BF10B584B04FF000032C
S214082250009301930293039342F2E550C0F20800FC
S21408226046F2F421C0F208014FF0820241F6A97442
S214082270C0F20804A04701281FD142F66D43C0F2F9
S21408228008039847012818D141F2CD51C0F2080139
S21408229088474AF6C813C2F207034FF001021A60CD
S2140822A04AF68020C2F207004FF00001016041F2B2
S2140822B0C163C0F20803984707E030B941F2CD5031
S2140822C0C0F20800804700BFFDE704B010BD00BF9D
S2140822D04AF66023C2F207031A6802F101021A607E
S2140822E0704700BF10B541F2E153C0F208039847A3
S2140822F04AF68020C2F20700046841F20961C0F27B
S21408230008018847204610BD2DE9F84F4AF6602395
S214082310C2F207031868002840F0B3804AF6802304
S214082320C2F20703186800F101001860196800294E
S21408233039D14AF6C412C2F207021368186830B1D7
S21408234041F2CD55C0F20805A84700BFFDE74AF69A
S214082350C413C2F2070319684AF68422C2F20702B7
S2140823601068186011604AF67C22C2F207021168EB
S21408237001F1010111601B68186838B940F21803AA
S214082380C2F207034FF0FF3018600CE04AF6C4129A
S214082390C2F207021168CB68D868426840F2180192
S2140823A0C2F207010A604AF68022C2F207021168E2
S2140823B040F21803C2F207031868814269D34AF646
S2140823C0C412C2F2070211680B687BB14AF6C4143D
S2140823D0C2F207042068C268D46863684AF6802197
S2140823E0C2F20701086883421AD912E040F21803BD
S2140823F0C2F207034FF0FF301860BDE8F88F346864
S214082400E268D46863684846C2F2070001688B42EF
S2140824101CD940F21802C2F207021360BDE8F88F12
S21408242041F23D57C0F208074AF6F818C2F2070804
S2140824304AF6FC1BC2F2070B41F2E14AC0F2080A50
S2140824404AF6C416C2F207064AF6802904F10405BD
S2140824502846B847A36A13B104F11800B847E16ADA
S214082460D8F80020914288BFC8F8001001EB810018
S2140824700BEB80002946D047336819680029BED17F
S214082480B4E74AF6AC11C2F207010A6802F1010283
S2140824900A60BDE8F88F00BF2DE9F0474AF66023CA
S2140824A0C2F20703186830B941F2CD55C0F20805E4
S2140824B0A84700BFFDE741F2E151C0F2080188478E
S2140824C04AF66024C2F20704226802F1FF3323604A
S2140824D02068002878D14AF6A421C2F207010C68C1
S2140824E04CBB4FF0000474E0D8F80C20D46804F114
S2140824F01800B84704F104094846B847E36A306844
S214082500834288BF33605146C2F2070103EB830259
S21408251001EB8200494641F2E143C0F208039847BE
S2140825204AF66420C2F207000168E46ACA6A94425E
S21408253028BF01250FE04FF000054AF66828C2F2CA
S214082540070841F23D57C0F208074AF6F816C2F2E5
S21408255007064AF6FC1AD8F80020002AC4D14AF61C
S214082560AC13C2F207031868B0B14AF6AC12C2F24E
S21408257007021368CBB142F20935C0F208054AF6DD
S214082580AC14C2F20704A847206800F1FF312160A6
S2140825902268002AF7D108E0012D06D04AF6A021C5
S2140825A0C2F207010C68012C11D14AF6A023C2F228
S2140825B007034FF000041C6041F2BD50C0F208004B
S2140825C080474FF0010404E04FF0000401E04FF0AC
S2140825D0000441F20961C0F2080188472046BDE8B8
S2140825E0F08700BF2DE9F8434AF6CC15C2F2070576
S2140825F042F2D128C0F208084AF6D016C2F20706F8
S21408260042F299472DE0C04734683B46C0F20803BB
S214082610984734B341F2E150C0F208008047F168A9
S214082620CC6804F1040041F23D52C0F2080290471B
S2140826304AF6A423C2F20703186800F1FF311960AE
S2140826402A6802F1FF332B6041F20960C0F20800E5
S2140826508047206B41F65D09C0F20809C847204646
S214082660C8472B68002BCED14AF6FC10C2F20700EA
S21408267001680129F5D941F2BD52C0F20802904717
S214082680EFE700BF38B50C46054630B941F2CD54E1
S214082690C0F20804A04700BFFDE731B941F2CD55A6
S2140826A0C0F20805A84700BFFDE742F2D123C0F2F2
S2140826B008039847286804194AF68022C2F20702D7
S2140826C0116888420AD9A04232D94AF68022C2F254
S2140826D0070211682C608C421CD909E0A04225D854
S2140826E04AF68023C2F20703186884421ED81FE001
S2140826F04AF66423C2F20703186800F1040041F2A0
S2140827003D52C0F208029047204641F62971C0F2B1
S2140827100801884742F29940C0F20800804748B945
S21408272041F2BD53C0F20803984738BD2C60DFE776
S2140827302C60EFE738BD00BF08B54AF66023C2F242
S21408274007031868A8B94AF6F811C2F207010A681A
S21408275002EB82034FEA83004AF6FC11C2F2070135
S2140827600A5852BB4AF6F813C2F20703186888B923
S21408277009E04AF6A021C2F207014FF001000860FE
S21408278008BD1A6872B941F2CD53C0F208039847DB
S21408279000BFFDE74AF6F813C2F207034AF6FC1133
S2140827A0C2F207011A6802F1FF3018601A6802EBD5
S2140827B0820051F82020002AE3D04AF6F813C2F225
S2140827C00703196801EB81004AF6FC12C2F20702F9
S2140827D002EB800359684868586003F10802904283
S2140827E004BF406858605B68D9684AF66420C2F23D
S2140827F00700016008BD00BF38B50C4630B941F285
S214082800CD54C0F20804A04700BFFDE74AF6642589
S214082810C2F20705296801F1180141F20152C0F217
S21408282008029047286800F1040041F23D51C0F2C2
S21408283008018847B4F1FF3F0CD129684AF6B01062
S214082840C2F2070001F1040141F2E143C0F20803B5
S214082850984738BD4AF68020C2F207000368E01899
S21408286041F62972C0F20802904738BD38B50D46C1
S21408287030B941F2CD54C0F20804A04700BFFDE7C6
S2140828804AF66424C2F20704216801F1180141F2ED
S214082890E142C0F208029047206800F1040041F2C5
S2140828A03D51C0F2080188474AF68020C2F2070068
S2140828B00368E81841F62972C0F20802904738BD46
S2140828C038B5C368DC6834B941F2CD54C0F20804A0
S2140828D0A04700BFFDE704F11805284641F23D5120
S2140828E0C0F2080188474AF66020C2F2070002686C
S2140828F022BB04F10405284641F23D51C0F2080106
S2140829008847E06A4AF6F812C2F207021368984245
S21408291004D94AF6F811C2F20701086000EB8003F2
S2140829204AF6FC100246C2F2070202EB830029466A
S21408293041F2E143C0F20803984709E04AF66820E6
S214082940C2F20700294641F2E143C0F2080398475D
S2140829504AF66421C2F207010A68E06AD36A984216
S21408296034BF0020012038BD08B5034630B941F20F
S214082970CD53C0F20803984700BFFDE74AF67C220D
S214082980C2F20702106818604AF68021C2F20701F0
S2140829900A685A6008BD00BF38B50D46044630B907
S2140829A041F2CD52C0F20802904700BFFDE731B9A8
S2140829B041F2CD55C0F20805A84700BFFDE741F231
S2140829C0E153C0F2080398472868B0F1FF3F29D0C2
S2140829D04AF67C22C2F20702116823688B4207D0A7
S2140829E04AF68022C2F20702116863688B421CD935
S2140829F04AF68022C2F2070211686368CA1A904231
S214082A0016D94AF68021C2F207010A689B1A1818D6
S214082A102860204642F66914C0F20804A0474FF022
S214082A20000407E04FF0000404E04FF0010401E062
S214082A304FF0010441F20961C0F2080188472046B8
S214082A4038BD00BF4AF6A023C2F207034FF00102C2
S214082A501A6070474AF66423C2F20703186870477C
S214082A604AF6C813C2F20703186848B14AF6602146
S214082A70C2F207010A68002A14BF02200120704724
S214082A804FF00000704700BF38B5044600284ED007
S214082A90C36A4AF66422C2F207021068C16A8B4209
S214082AA045D24AF66422C2F207021068C16AC1F12A
S214082AB00502A26103EB83034AF6FC10C2F2070084
S214082AC000EB830162698A422AD104F1040528468C
S214082AD041F23D52C0F2080290474AF66423C2F219
S214082AE007031868C16AE1624AF6F812C2F20702DA
S214082AF01368994204D94AF6F810C2F20700016032
S214082B0001EB81014AF6FC121346C2F2070303EBF7
S214082B108100294641F2E142C0F20802904738BDDA
S214082B204AF66423C2F207031868C16AE16238BD30
S214082B3038B5044650B3C26A836C9A4226D000F170
S214082B400405284641F23D51C0F208018847A06CAA
S214082B50E062C0F10502A2614AF6F813C2F2070362
S214082B601968884204D94AF6F812C2F207021060B9
S214082B7000EB80034AF6FC10C2F2070000EB830065
S214082B80294641F2E142C0F20802904738BD00BF2C
S214082B9070B541F2E153C0F2080398474AF6DC20C4
S214082BA0C2F20700016849BB4AF6B025C2F207051B
S214082BB0284641F2C146C0F20806B0474AF6C42481
S214082BC0C2F207042046B0474AF6AC22C2F2070211
S214082BD015604AF6E023C2F207031C604FF00500B2
S214082BE04FF00C014FF0000241F67D23C0F20803B7
S214082BF098474AF6DC21C2F20701086041F20960EC
S214082C00C0F20800804770BD10B5044641602061D8
S214082C10914212D8D01AA169884221D24AF6E023F6
S214082C20C2F20703186804F1040141F20152C0F227
S214082C30080290474FF0000010BD9A4201D2994210
S214082C4011D24AF6AC23C2F20703186804F104014D
S214082C5041F20152C0F2080290474FF0000010BD42
S214082C604FF0010010BD4FF0010010BD10B584B044
S214082C7042F69133C0F2080398474AF6DC20C2F2BF
S214082C8007000168B9B14FF0040200924FF0000344
S214082C9001930293039342F60D60C0F2080046F2D1
S214082CA00031C0F208014FF4827241F6A974C0F2EE
S214082CB00804A04730B941F2CD54C0F20804A04732
S214082CC000BFFDE704B010BD10B584B04AF6DC249A
S214082CD0C2F2070424682CB3019102920390B3B998
S214082CE042F66123C0F20803984701284AF6DC2317
S214082CF0C2F20703186801A907BF069A0023002234
S214082D00134641F6E924C0F20804A0470CE0204622
S214082D1001A91A464FF0000341F65D44C0F20804C4
S214082D20A04701E04FF0000004B010BD2DE9F04FB9
S214082D3085B0824642F2E523C0F2080398478146EA
S214082D404AF6D820C2F20700016889454FD22BE020
S214082D50DC682668DD68EC6804F104052846C04788
S214082D60616A20468847E06901282CD1A369F218D1
S214082D70B24209D9626024613868294641F2015393
S214082D80C0F2080398471EE0CDF800B02046594622
S214082D9032465B46039CA047A8B941F2CD56C0F21E
S214082DA00806B04700BFFDE74AF6AC27C2F2070799
S214082DB041F23D58C0F208084FF0000B42F6C943EE
S214082DC0C0F2080303933B6818680028C0D14AF687
S214082DD0E022C2F2070211684AF6AC20C2F20700E7
S214082DE0016013604FF00103CAF8003003E04FF0AB
S214082DF00002CAF800204AF6D822C2F20702C2F831
S214082E000090484605B0BDE8F08F00BF2DE9F04FAA
S214082E1089B04AF6AC2BC2F2070B42F2D123C0F2B5
S214082E200803039342F62D5AC0F2080ADBF800009E
S214082E300268002A00F0C480C7683D68039B98476C
S214082E4004A8D04706460498002850D1B54237D87B
S214082E5042F29947C0F20807B847DBF80030D8684E
S214082E60C46804F1040041F23D52C0F208029047DB
S214082E70E16901291ED1A7692046E91932462B4681
S214082E8042F60946C0F20806B047012812D14FF0AC
S214082E9000030093204619462A4642F6C945C0F262
S214082EA00805A84730B941F2CD57C0F20807B84719
S214082EB000BFFDE7636A204698471DE04FF000050F
S214082EC04AF6DC21C2F207010868A91B41F6D56656
S214082ED0C0F20806B04742F29944C0F20804A04778
S214082EE050B941F2BD55C0F20805A84704E042F2C1
S214082EF09942C0F20802904704A8D04707464AF607
S214082F00DC26C2F2070641F60D55C0F2080541F266
S214082F103D58C0F2080842F60949C0F2080946E0DA
S214082F20079C24B1606910B104F10400C047059AF3
S214082F30022A26D0032A34D0002A38D1069BA16953
S214082F40204659183A46C847012830D1636A2046B1
S214082F509847E06901282AD1A2694FF00003009338
S214082F6020461946069C121942F6C944C0F20804BF
S214082F70A047E0B941F2CD55C0F20805A84700BF02
S214082F80FDE7069BA36133B941F2CD56C0F20806A9
S214082F90B04700BFFDE72046F9183A463B46C84703
S214082FA005E0204641F65D01C0F208018847306812
S214082FB005A94FF000021346A8470028B0D135E708
S214082FC00399884704A8D0470646049C002C3FF47B
S214082FD075AF8CE7F0B583B004460D464FF0000396
S214082FE001934FF40060C4F20E0084420DD14FF4F2
S214082FF00066C4F20E0641F27507C0F208073046AE
S2140830002946B8470028FAD12BE04FF40041C4F20D
S21408301009018C420FD14FF40046C4F2090641F26A
S214083020AD07C0F20807304601A9B8470028FAD10C
S214083030019828702BE04FF44042C4F209029442EB
S2140830400FD14FF44044C4F2090441F2AD06C0F271
S2140830500806204601A9B0470028FAD1019B2B7024
S2140830602AE04FF00001C4F20A018C420FD14FF05B
S2140830700004C4F20A0441F2AD06C0F2080620466F
S21408308001A9B0470028FAD10198287014E04FF437
S2140830908042C4F20A0294420ED14FF48044C4F22D
S2140830A00A0441F2AD06C0F20806204601A9B04758
S2140830B00028FAD1019B2B7003B0F0BD70B50C4602
S2140830C04FF40063C4F20E0398420FD14FF4006524
S2140830D0C4F20E0541F25D06C0F2080628462146EF
S2140830E0B0470028FAD14FF0010070BD4FF40041F8
S2140830F0C4F2090188420FD14FF40045C4F209050D
S21408310041F28D06C0F2080628462146B047002838
S214083110FAD14FF0010070BD4FF44042C4F20902E4
S21408312090420FD14FF44045C4F2090541F28D068E
S214083130C0F2080628462146B0470028FAD14FF0C4
S214083140010070BD4FF00003C4F20A0398420FD185
S2140831504FF00005C4F20A0541F28D06C0F20806D3
S21408316028462146B0470028FAD14FF0010070BD26
S2140831704FF48041C4F20A0188420FD14FF48045CB
S214083180C4F20A0541F28D06C0F208062846214612
S214083190B0470028FAD14FF0010070BD4FF000008C
S2140831A070BD00BF30B585B04FF0080040F68D45BD
S2140831B0C0F20805A8474FF40064C4F20E044AF6A5
S2140831C05033C2F207031C604AF64C30C2F20700BE
S2140831D043F2BD02C0F2080202604AF64831C2F263
S2140831E0070142F6D573C0F208030B604FF43D4062
S2140831F0C0F2015000904FF4E13201924FF40061A2
S21408320002914FF00800A8472046694641F2190582
S214083210C0F20805A84740F22005C2F207052C6848
S214083220A0684FF0000143F6A734C0F20804A04790
S2140832302B6858684FF00001A04705B030BD00BFA6
S21408324010B584B040F2A513C0F20803984740F2C0
S2140832508960C0F20800804743F2A511C0F2080151
S214083260884740F25542C0F20802904740F28D3433
S214083270C0F20804A04740F26D23C0F2080398473E
S21408328040F21D20C0F2080080474FF0010100916F
S2140832904FF0000301930293039340F29920C0F283
S2140832A0080046F20831C0F208014FF4806241F681
S2140832B0A974C0F20804A047012802D00548064AA7
S2140832C0904742F24923C0F2080398474FF000009F
S2140832D004B010BD14630800453B080081F00041A7
S2140832E002E000BF83F0004330B54FEA41044FEADE
S2140832F0430594EA050F08BF90EA020F1FBF54EA79
S214083300000C55EA020C7FEA645C7FEA655C00F014
S214083310E2804FEA5454D4EB5555B8BF6D420CDDE5
S2140833202C4480EA020281EA030382EA000083EA68
S214083330010180EA020281EA0303362D88BF30BD08
S21408334011F0004F4FEA01314FF4801C4CEA11315E
S21408335002D0404261EB410113F0004F4FEA0333BD
S2140833604CEA133302D0524263EB430394EA050F48
S21408337000F0A780A4F10104D5F1200E0DDB02FAB7
S2140833800EFC22FA05F2801841F1000103FA0EF24B
S214083390801843FA05F359410EE0A5F120050EF111
S2140833A0200E012A03FA0EFC28BF4CF0020C43FA42
S2140833B005F3C01851EBE37101F0004507D54FF04F
S2140833C0000EDCF1000C7EEB00006EEB0101B1F59F
S2140833D0801F1BD3B1F5001F0CD349085FEA3000E5
S2140833E04FEA3C0C04F101044FEA445212F5800FF0
S2140833F080F09A80BCF1004F08BF5FEA500C50F18D
S214083400000041EB045141EA050130BD5FEA4C0C6F
S214083410404141EB010111F4801FA4F10104E9D1F8
S21408342091F0000F04BF01460020B1FA81F308BFEF
S2140834302033A3F10B03B3F120020CDA0C3208DDBB
S21408344002F1140CC2F10C0201FA0CF021FA02F196
S2140834500CE002F11402D8BFC2F1200C01FA02F106
S21408346020FA0CFCDCBF41EA0C019040E41AA2BF2B
S21408347001EB0451294330BD6FEA04041F3C1CDAF3
S2140834800C340EDC04F11404C4F1200220FA04F013
S21408349001FA02F340EA030021FA04F345EA0301BD
S2140834A030BDC4F10C04C4F1200220FA02F001FA7F
S2140834B004F340EA0300294630BD21FA04F0294601
S2140834C030BD94F0000F83F4801306BF81F480119A
S2140834D00134013D4EE77FEA645C18BF7FEA655C0D
S2140834E029D094EA050F08BF90EA020F05D054EADF
S2140834F0000C04BF1946104630BD91EA030F1EBFE4
S2140835000021002030BD5FEA545C05D140004941E7
S21408351028BF41F0004130BD14F580043CBF01F5DA
S214083520801130BD01F0004545F0FE4141F47001C0
S2140835304FF0000030BD7FEA645C1ABF194610469B
S2140835407FEA655C1CBF0B46024650EA013406BF9C
S21408355052EA033591EA030F41F4002130BD00BF5B
S21408356090F0000F04BF0021704730B54FF4806418
S21408357004F132044FF000054FF0000150E700BF99
S21408358090F0000F04BF0021704730B54FF48064F8
S21408359004F1320410F0004548BF40424FF00001E5
S2140835A03EE700BF42004FEAE2014FEA31014FEA28
S2140835B002701FBF12F07F4393F07F4F81F0605177
S2140835C0704792F0000F14BF93F07F4F704730B5E6
S2140835D04FF4607401F0004521F0004120E700BF79
S2140835E050EA010208BF704730B54FF000050AE000
S2140835F050EA010208BF704730B511F0004502D501
S214083600404261EB41014FF4806404F132045FEA02
S214083610915C3FF4DCAE4FF003025FEADC0C18BFA7
S21408362003325FEADC0C18BF033202EBDC02C2F19D
S214083630200300FA03FC20FA02F001FA03FE40EA2F
S2140836400E0021FA02F11444C1E600BF70B54FF02F
S214083650FF0C4CF4E06C1CEA11541DBF1CEA135511
S21408366094EA0C0F95EA0C0F00F0DEF82C4481EA79
S214083670030621EA4C5123EA4C5350EA013518BF99
S21408368052EA033541F4801143F4801338D0A0FB86
S21408369002CE4FF00005E1FB02E506F00042E0FB33
S2140836A003E54FF00006E1FB03569CF0000F18BF39
S2140836B04EF0010EA4F1FF04B6F5007F64F54074E1
S2140836C004D25FEA4E0E6D4146EB060642EAC62174
S2140836D041EA55514FEAC52040EA5E504FEACE2EE1
S2140836E0B4F1FD0C88BFBCF5E06F1ED8BEF1004FE4
S2140836F008BF5FEA500E50F1000041EB045170BD60
S21408370006F0004646EA010140EA020081EA0301A3
S214083710B4EB5C04C2BFD4EB0C0541EA045170BD9F
S21408372041F480114FF0000E013C00F3AB8014F119
S214083730360FDEBF002001F0004170BDC4F1000462
S214083740203C35DA0C341BDC04F11404C4F12005E3
S21408375000FA05F320FA04F001FA05F240EA02003E
S21408376001F0004221F0004110EBD37021FA04F674
S21408377042EB06015EEA430E08BF20EAD37070BD2E
S214083780C4F10C04C4F1200500FA04F320FA05F08D
S21408379001FA04F240EA020001F0004110EBD3708F
S2140837A041F100015EEA430E08BF20EAD37070BDFF
S2140837B0C4F1200500FA05F24EEA020E20FA04F3D8
S2140837C001FA05F243EA020321FA04F001F0004187
S2140837D021FA04F220EA020000EBD3705EEA430EF8
S2140837E008BF20EAD37070BD94F0000F0FD101F027
S2140837F00046400041EB010111F4801F08BF013C60
S214083800F7D041EA060195F0000F18BF704703F09D
S2140838100046520043EB030313F4801F08BF013D24
S214083820F7D043EA0603704794EA0C0F0CEA1355E0
S21408383018BF95EA0C0F0CD050EA410618BF52EA9A
S2140838404306D1D181EA030101F000414FF00000A0
S21408385070BD50EA410606BF1046194652EA4306AE
S21408386019D094EA0C0F02D150EA013613D195EA22
S2140838700C0F05D152EA03361CBF104619460AD16A
S21408388081EA030101F0004141F0FE4141F4700174
S2140838904FF0000070BD41F0FE4141F4780170BD64
S2140838A070B54FF0FF0C4CF4E06C1CEA11541DBFC9
S2140838B01CEA135594EA0C0F95EA0C0F00F0A7F8CB
S2140838C0A4EB050481EA030E52EA03354FEA0131F8
S2140838D000F088804FEA03334FF0805545EA13130B
S2140838E043EA12634FEA022245EA111545EA1065D3
S2140838F04FEA00260EF000419D4208BF964244F16A
S214083900FD0404F5407402D25B084FEA3202B61A88
S21408391065EB03055B084FEA32024FF480104FF45C
S214083920002CB6EB020E75EB030E22BFB61A7546D0
S21408393040EA0C005B084FEA3202B6EB020E75EB63
S214083940030E22BFB61A754640EA5C005B084FEACB
S2140839503202B6EB020E75EB030E22BFB61A754698
S21408396040EA9C005B084FEA3202B6EB020E75EBA3
S214083970030E22BFB61A754640EADC0055EA060E64
S21408398018D04FEA051545EA16754FEA06164FEAA7
S214083990C30343EA52734FEAC2025FEA1C1CC0D153
S2140839A011F4801F0BD141EA00014FF000004FF0E0
S2140839B0004CB6E711F4801F04BF01430020B4F1A1
S2140839C0FD0C88BFBCF5E06F3FF6AFAEB5EB030C59
S2140839D004BFB6EB020C5FEA500C50F1000041EB56
S2140839E0045170BD0EF0004E4EEA113114EB5C0423
S2140839F0C2BFD4EB0C0541EA045170BD41F48011F6
S214083A004FF0000E013C90E645EA060E8DE60CEAFD
S214083A10135594EA0C0F08BF95EA0C0F3FF43BAF1A
S214083A2094EA0C0F0AD150EA01347FF434AF95EAD1
S214083A300C0F7FF425AF104619462CE795EA0C0FB5
S214083A4006D152EA03353FF4FDAE1046194622E782
S214083A5050EA410618BF52EA43067FF4C5AE50EA5C
S214083A6041047FF40DAF52EA43057FF4EBAE12E74C
S214083A704FEA410212F5001215D211D56FF4787389
S214083A80B3EB625212D94FEAC12343F0004343EA2C
S214083A90505311F0004F23FA02F018BF4042704707
S214083AA04FF00000704750EA013005D111F0004091
S214083AB008BF6FF0004070474FF00000704700BF27
S214083AC0014600200246034600F0FCBD70B5084BD0
S214083AD0084C0025E01A841003EB8406043D1CB14C
S214083AE072599047013CF9E7BDE8704002F056BCB1
S214083AF0A8630800AC63080038B50E4D0E4B0024CA
S214083B00E81A8510AC4205D00B4951F82420904796
S214083B100134F7E702F038FC0849094A541AA51098
S214083B200024AC4205D0054B53F8240080470134E6
S214083B30F7E738BD946308009463080094630800A8
S214083B409C6308000FB407B5064904AB086853F829
S214083B50042B8168019300F0F7F8BDE80E4004B026
S214083B60704700BF200007200EB403B503AB53F818
S214083B70042B8168019300F0E7F8BDE80C4003B019
S214083B80704700BF10B50023934203D0CC5CC454E2
S214083B900133F9E710BD82180346934202D003F8B2
S214083BA0011BFAE7704700290CBF022200224FF4D7
S214083BB0806300F001B800002DE9F0411D46374B40
S214083BC0044618680E461746984618B1826B0AB916
S214083BD000F0C2FE022F5DD8002D5BDB2146D8F828
S214083BE0000000F0C7FDA189002001F080031AB28A
S214083BF06060A06122B129482169006800F0EAFFE8
S214083C00A189022F21F08303A38112D036BB002D91
S214083C1008BF4FF48065284601F0E0FA0646C8B9A2
S214083C204FF4806001F0DAFA064688B94FF0FF30A4
S214083C3000E00020A189002241F00203A38104F1DC
S214083C4043010123A260216021616361BDE8F08120
S214083C504FF48065A28942F08000A081012F05D12B
S214083C60A1896A4241F00103A381A2610B48A28997
S214083C7001680B4B02F0080000B2CB632660266191
S214083C80656148B112F0030F18BF0025A560002033
S214083C90BDE8F0814FF0FF30BDE8F0812000072036
S214083CA0CD480800034613F8012B002AFBD1181A42
S214083CB00138704730B5013903461C463AB111F849
S214083CC0015F013A03F8015B1C46002DF5D19918EF
S214083CD08C4203D0002204F8012BF9E730BD00001F
S214083CE093682DE9F04781460F4614461BB9536082
S214083CF01846BDE8F0874B6E9B041ED51568A0686D
S214083D000835C8B155F8041C55F808AC4FEA9108B0
S214083D100026464509DA48465AF826103A4600F07C
S214083D2097FE431C0BD00136F3E7A2684FEA8808D3
S214083D30C8EB0203A360E2E701E001F001F8002106
S214083D40A1606160BDE8F0872DE9F04F8946ADF2C5
S214083D50CC4D14461E46834618B1836B0BB900F04B
S214083D60FBFDB9F80C0000F4005211B249B940F452
S214083D700053D9F86400A9F80C3020F40052C9F8AA
S214083D806420B9F80C1001F0080318B248B1D9F845
S214083D90102032B1B9F80C0000F01A010A2949D1EE
S214083DA00AE05846494600F031FC0028F2D04FF0A9
S214083DB0FF31029100F015BCB9F80E30190439D459
S214083DC0D9F86410D9F81C2020F00200ADF86E303F
S214083DD0D9F82430ADF86C00319132A84FF48061E0
S214083DE01F920022219318901C901A911D911E92E2
S214083DF0584618A922463346FFF7A6FF0028029021
S214083E0009DB584618A900F0B5FC029B002818BF25
S214083E104FF0FF330293BDF86C0000F040010AB281
S214083E20002A00F0DE83B9F80C3043F04000A9F809
S214083E300C00D6E3002232AD0B950D920C9201943D
S214083E4005920292A8460198044610F8011B19B973
S214083E50019BE51A03D11DE02529F5D1F8E701995C
S214083E600D9A88E822000C9950194B1C072B0D90C8
S214083E700C9302DC08F1080809E0584649460BAAE4
S214083E80FFF72EFF002840F0A4830DF1C808029A19
S214083E90501902902178002900F0948300220134FA
S214083EA001948DF827204FF0FF3C0492174601989E
S214083EB010F8013B0190632B00F0B38033DC392BFC
S214083EC01ADC312B80F291802B2B01D11A46EEE7B3
S214083ED00ADC232B55D02A2B56D0202B40F0F7810E
S214083EE0002A08BF2022E2E72E2B58D0302B79D0A4
S214083EF02D2B40F0EC814FE04F2B00F0DE8007DCE6
S214083F00442B40F0E4818DF8272047F0100790E016
S214083F10552B00F01F81582B40F0D981AE4D8DF8F7
S214083F202720059530E16F2B00F0C98010DC692B3F
S214083F3024D007DC642B21D0682B40F0C88147F0DA
S214083F404007B4E76C2B5FD06E2B40F0C08196E03C
S214083F50732B00F0DF8006DC702B00F0CD80712B11
S214083F6040F0B5815AE0752B00F0F680782B40F0CB
S214083F70AE819A4D8DF82720059505E18DF8272006
S214083F8057E047F0010792E7331D3668002E04967F
S214083F9015DA704204901E4647F0040787E7019931
S214083FA011F8013B2A2B01910BD1D6F800C0331D1E
S214083FB0BCF1000F03DA1E464FF0FF3C77E71E46BB
S214083FC075E74FF0000CA3F13000092807D80199CF
S214083FD00A2303FB0C0C11F8013B0191F3E74CEAAA
S214083FE0EC7C68E747F0800761E701980021303BE2
S214083FF00A2404FB013110F8013BA3F13004092C14
S2140840000190F4D9049156E701990B786C2B02D1EC
S214084010481C019002E047F0100748E747F02007E1
S21408402045E7326800258DF838208DF82750043685
S21408403057E1BA0607D5073626F0070505F108063C
S214084040D5E900450FE017F0100F06F1040101D07E
S214084050326805E017F0400F326801D014B200E06D
S2140840601446E5170E46002C75F1000280F2B8805B
S2140840702D23644265EB45058DF82730B0E017F030
S214084080200F8DF8272006F1040205D0029C35681B
S214084090E0172C60686004E0FB0604D533680299D4
S2140840A019601646CFE63068029C17F0400F06F1F6
S2140840B0040614BF04800460C5E647F0100717F02E
S2140840C0200008D0F31D23F0070505F10806D5E9FA
S2140840D0004500207CE017F0100106F1040206D126
S2140840E017F0400003D0348800251646F1E73668F6
S2140840F00025344616466BE0384B30217822346863
S214084100002547F002078DF828108DF82920043678
S21408411005935CE031460025D1F800A00436AC458E
S2140841208DF82750504611DB62462946CDF800C068
S21408413001F066FADDF800C0002800F0D680CAEB69
S2140841400004644540F3D3806446D0E0FFF7AAFD38
S2140841500446CCE047F01007BD0606D5F01D20F053
S214084160070404F1080630CC0CE017F0100F06F12F
S214084170040303D17C0601D5348801E035682C4653
S21408418000251E46012023E0B80607D5F41D24F0B6
S214084190070101F10806D1E900450CE017F0100FF9
S2140841A006F1040003D1790601D5348801E03668A3
S2140841B0344600250646FA0709D554EA050206D00D
S2140841C030228DF828208DF8293047F00207022083
S2140841D000218DF8271004E05E6308006F6308006E
S2140841E00120BCF1000FA8BF27F0800754EA05019C
S2140841F002D1BCF1000F5AD001281DD002280DF1BB
S2140842005F0343D004F00702E40844EA4570E9086F
S21408421004460D46303254EA05019A461A7003F1F0
S214084220FF33EFD1F80755464CD5302A4AD030220E
S2140842309A4605F8012C45E0002D08BF0A2C05D241
S21408424030340DF1380A0AF8274F3BE00DF15F03CA
S2140842500393204629460A220023CDF800C001F021
S2140842602BFD0398303200F8012929460A2200233C
S214084270DDF80CA00390204601F01EFD04460D460E
S21408428054EA0501DDF800C0E3D11BE0059904F007
S2140842900F0024090A5C44EA0570290904460D46FD
S2140842A09A4603F8012954EA0502EFD10AE038B91C
S2140842B0F90705D50DF1380A30200AF8270F01E06E
S2140842C00DF1600A18ADCAEB050465460FE08DF8D7
S2140842D02720002B00F0768100258DF838308DF8E1
S2140842E0275001240DF1380A01E0644605469DF87A
S2140842F02730AC42ACBF21462946039113B1039838
S214084300421C039217F00201069102D0039B981CE8
S214084310039017F0840207923CD10499039BCB1AAA
S214084320002B37DDA548102BC8F800001BDD0C99BC
S21408433010220D98C8F804204A1C1030072A0D9041
S2140843400C9202DC08F108080BE0584649460BAA0E
S2140843500093FFF7C5FC009B002840F03A810DF15A
S214084360C808103BDEE70D9AC8F80430D1180C9B35
S2140843700D91581C07280C9002DC08F1080809E083
S214084380584649460BAAFFF7ABFC002840F02181A7
S2140843900DF1C8089DF827200DF12701CAB10C9A1F
S2140843A001230D98C8F80430531CC8F80010411CA7
S2140843B0072B0D910C9302DC08F1080809E0584613
S2140843C049460BAAFFF78CFC002840F002810DF145
S2140843D0C8080698D0B10AA9C8F800100C99022295
S2140843E00D9BC8F804204A1C981C072A0D900C92AE
S2140843F002DC08F1080809E0584649460BAAFFF708
S2140844006FFC002840F0E5800DF1C808079B802B5C
S2140844103CD104980399431A002B37DD684A102BC1
S214084420C8F800201BDD0C9810210D9AC8F8041057
S214084430411C103207290D920C9102DC08F108087D
S2140844400BE0584649460BAA0093FFF749FC009B29
S214084450002840F0BE800DF1C808103BDEE70C9936
S2140844600D984A1CC8F80430072A03440D930C928A
S21408447002DC08F1080809E0584649460BAAFFF787
S2140844802FFC002840F0A5800DF1C8082D1B002D34
S21408449034DD4B48102DC8F8000019DD0C980D9A2D
S2140844A0431C10211032072BC8F804100D920C93E9
S2140844B002DC08F1080809E0584649460BAAFFF747
S2140844C00FFC002840F085800DF1C808103DE0E795
S2140844D00C990D9B4A1CC8F80450072A1D440D95D4
S2140844E00C9202DC08F1080808E0584649460BAA70
S2140844F0FFF7F6FB00286CD10DF1C8080C9B0D9849
S214084500591CC8F8044007290444C8F800A00D94AC
S2140845100C9102DC08F1080307E0584649460BAA46
S214084520FFF7DEFB002854D132AB7A070BD402988B
S214084530039B04990D9A8B42ACBFC0184018029092
S214084540002A36D02FE0049C039AA41A002CEEDD2D
S2140845501A48102C186015DD0C9A10200D99586012
S214084560501C103107280D910C9001DC083307E029
S214084570584649460BAAFFF7B3FB002829D132ABA9
S214084580103CE5E70C995C600D9B4A1C1C19072A31
S2140845900D940C92CBDD584649460BAAFFF7A0FBB4
S2140845A00028C4D015E0584649460BAAFFF798FBE2
S2140845B078B900250C950DF1C80844E43E63080058
S2140845C04E6308000D9820B1584649460BAAFFF7D7
S2140845D087FBB9F80C1001F0400213B2002B7FF4E9
S2140845E0E6AB029833B00DF5806DBDE8F08F30B5B8
S2140845F01346054A05460C46106829462246BDE875
S2140846003040FFF7A1BB00BF2000072038B52C4B71
S214084610054618680C4618B1826B0AB900F09CF972
S214084620A08900F008010BB20BBB00F0100211B213
S21408463011B94FF0FF3038BD00F0040003B293B153
S214084640216B41B104F14002914202D0284600F0A5
S214084650C1FA00212163A089216920F024030022E1
S214084660A38162602160A08940F00803A3812269C3
S2140846704AB9A18901F42070B0F5007F03D0284616
S214084680214600F03FFDA38913F0010205D06169B9
S21408469000224842A260A06107E003F0020108B2C7
S2140846A008B9636900E01346A360236933B9A28991
S2140846B002F0800108B20028BBD138BD002038BD02
S2140846C0200007202DE9F8439846234B06461C6829
S2140846D00F46D4F84801914618B904F5A670C4F8F0
S2140846E0480141681F2916DD1C4818B94FF0FF30ED
S2140846F0BDE8F8834FF4C87000F070FD0028F5D0C8
S214084700D4F84821002545600260C4F84801C0F87E
S2140847108851C0F88C51B6B14468012202FA04F2F6
S214084720D0F8881100EB84031143022EC3F8889052
S214084730C0F888111C46C3F8088104D1D0F88C311B
S2140847401A43C0F88C2141688B1C4A1C40F8237019
S21408475042600020BDE8F88338630800DD51080091
S214084760024B13B10248FFF7ABB9704700000000D0
S214084770CD3A08002DE9F0410C46054618B1836B82
S2140847800BB900F0E9F8A28932B302F0080001B2CA
S214084790002962D1616842F400600029A08102DC29
S2140847A0E36B002B18DDA66AB6B102F4805200202F
S2140847B012B22F6828600AB1226D10E0012328463D
S2140847C0E169B0470246013009D1296839B11D2987
S2140847D001D016294ED12F600020BDE8F081A689A9
S2140847E006F004010BB22BB16068266B121A0EB1E4
S2140847F0E16B521AE1690023A66A2846B047411CB5
S21408480005D12A681AB11D2A01D0162A1FD1A389F4
S214084810002123F40062A28103F4805322696160B8
S21408482019B2226021B1421C01D12A6802B920655A
S214084830216B2F600029CFD004F14000814202D0BE
S214084840284600F0C7F900202063BDE8F081A38958
S21408485043F04001A181BDE8F0812669002EBBD057
S214084860920723680CBF62690022C6EB030826601D
S214084870A26012E0A38943F04000A0814FF0FF3009
S214084880BDE8F081676A2846E16932464346B8477C
S2140848900028EFDD3618C0EB0808B8F1000FF1DC89
S2140848A09AE7014620B904480449006800F0C4BBEA
S2140848B0034B1868FFF75EBF3863080075470800A3
S2140848C0200007200020704700207047014900F0AC
S2140848D092BB00BF1D5C0800002310B504460360A9
S2140848E04360836081814366C2810361436183615B
S2140848F01946082200F15C00FFF74DF904480549FF
S214084900054A064BE46120626162A262E36210BD5A
S2140849105159080077590800B3590800D7590800B4
S21408492070B568254D430E4605F10C0100F066FC8F
S214084930044640B100F10C00002184E84200A06063
S2140849402A46FFF728F9204670BD024B1868FFF77D
S214084950BDBF00BF3863080038B5836B0446EBB9A3
S2140849600F4A0125C0F8E032C263856304F53B713F
S21408497003201A46C4F8E402C4F8E8126068042162
S214084980FFF7AAFFA06809212A46FFF7A5FFE068F7
S21408499012210222BDE83840FFF79EBF38BD00BF8F
S2140849A0CD480800F8B51D4B07461E68B06B10B911
S2140849B03046FFF7D1FF06F53876B46871680139D6
S2140849C004D4B4F90C5085B16834F8E732680AB1F3
S2140849D03668F2E738460421FFF7A2FF3060002861
S2140849E0F6D10C243C60044615E04FF6FF73012010
S2140849F0A081E38165662560A560656025616561BF
S214084A00A56104F15C0029460822FFF7C4F825636F
S214084A1065636564A5642046F8BD00BF3863080072
S214084A207047704770477047024B0349186800F094
S214084A30E2BA00BF20000720C5480800024B034919
S214084A40186800F0D8BA00BF20000720C948080038
S214084A5093892DE9F341144603F40052804610B2B8
S214084A600E4630B9676E43F4005147F40053A181EF
S214084A70636600F029FB012806D12EB1FF2E03D865
S214084A808DF8046007460FE03246404601A904F157
S214084A905C0301F009F8421C074605D1A28942F0DA
S214084AA04000A081384631E00025BD422AD0A168E2
S214084AB001AB4A1E002AA2601ADAA06982420CDB01
S214084AC021685A5D0A70236819780A2903D00133C9
S214084AD00022236013E0404601E0595D4046224626
S214084AE000F088FFB0F1FF31484250EB010206E0C3
S214084AF02068595D01702268531C236000E01AB9CB
S214084B000135D2E7304601E04FF0FF30BDE8FC81C2
S214084B10F8B5084C074620680E4618B1856B0DB9DF
S214084B20FFF71AFF206839463246BDE8F840FFF717
S214084B308FBF00BF20000720F8B5234D0E46044659
S214084B4000F086FDAB685F6827F0030707F6EF708E
S214084B50811B21F47F6222F00F06A6F58056B6F573
S214084B60805F04DA204600F074FD0020F8BD0021BE
S214084B70204600F0DDFEAB68D9198842F2D17142B2
S214084B80204600F0D5FE013010D10021204600F066
S214084B90CFFEAB68C21A0F2AE4DD0C4942F00102C8
S214084BA009685A60401A0A490860DBE7084BA86893
S214084BB01A68BF1B47F001074760961B20461E6011
S214084BC000F047FD0120F8BDCC040720D4080720D4
S214084BD0E8AA0720F8B506460D46002900F0A68084
S214084BE000F036FD55F804CC514FA5F108032CF01B
S214084BF001029C18B96860688C4220F003000CF02B
S214084C0001011CD1821839B955F8081C5B1A986836
S214084C105218D968C1608860454842F00101596059
S214084C208360444B19688A4204D3434A3046116865
S214084C30FFF782FF3046BDE8F84000F00ABD606026
S214084C4059B955F8085C08375B1B52199D68BD4270
S214084C5005D0DF68EF60BD6002E0002100E00121BA
S214084C6025186D6815F0010F0FD1121849B9A068FC
S214084C70324DA84205D1EB60AB60D8609860012140
S214084C8003E0E068A468E060846042F001005860D1
S214084C909A500029CED1B2F5007F0CD2D2089010D7
S214084CA0012404FA00F4224948682043486001EBCE
S214084CB0C200816835E0540A042C02D894093834B6
S214084CC016E0142C01D85B3412E0542C02D8140BCE
S214084CD06E340DE0B4F5AA7F02D8D40B773407E01B
S214084CE040F25455AC4202D8940C7C3400E07E2442
S214084CF00F4D05EBC400816881420CD10122A41037
S214084D0002FA04F4686844EA00026A60084608E0A2
S214084D108968814204D04C6824F00304A242F7D381
S214084D20C868D86099608360CB6083E7F8BD00BF29
S214084D30CC040720D8080720E4AA0720D4040720B4
S214084D4093682DE9F74F06460C4691460BB90020A6
S214084D504FE1888900F008010AB20AB123695BB9F5
S214084D6030462146FFF752FC30B1A189092241F0AE
S214084D704000A08132603AE1B4F80CA0D9F800806F
S214084D800AF0020C0FFA8CF515B34FF0000A5746D6
S214084D9037B9D8F800A0D8F8047008F10808F7E77B
S214084DA0B7F5806F34BF3B464FF480633046E16901
S214084DB05246656AA847002840F31581D9F80810B6
S214084DC082443F1A081AC9F808000028E0D1BEE74E
S214084DD01AF0010A04D0AB4601952F46AA46C7E04A
S214084DE0554635B9D8F800A0D8F8045008F1080890
S214084DF0F7E7A289D4F808B002F4007003B2002BD3
S214084E0052D05D4540D312F4906F3BD063694FF0A3
S214084E10030B0BFB03F32169276802207F1A93FB19
S214084E20F0FC7B1C581902F48062844528BF604653
S214084E3013B2019030467BB1019900F0DFF9834642
S214084E4098B121693A46FEF79DFEA18921F4906043
S214084E5040F08002A2810BE0019A00F0FBFB83463B
S214084E6030B930462169FFF7B5FE0C233360BAE047
S214084E7001990BEB0703CF1BC4F810B023606161E0
S214084E80AB46A7605D4500D2AB465A4651462068F9
S214084E9000F0C4FBA0682368CBEB000203EB0B0111
S214084EA0A2602160AB462AE02068216988420FD9B3
S214084EB05D450DD951465A4600F0B0FB226821469A
S214084EC002EB0B0020603046FFF754FCB8B18AE0CE
S214084ED063699D4208D3676A3046E1695246B84717
S214084EE0B0F1000B0BDC7EE051462A4600F096FB3C
S214084EF0A2682368501B5919AB46A0602160D9F8F0
S214084F000800DA44CBEB0002CBEB0505C9F808200D
S214084F10002A7FF466AF1AE70198002832D0206886
S214084F202169D34534BF5B4653468842A568D4F802
S214084F3014E037D97544AB4234DD39462A4600F0CA
S214084F406DFB20682146431923603046FFF712FCA4
S214084F50002848D1BBEB050B3DD0D9F808207F19AF
S214084F60C5EB0A0A551BC9F80850002D3FF4EFAEEA
S214084F70BAF1000FD0D1002198E88004019108F119
S214084F800808F5E738460A21524600F039FB20B1F2
S214084F9000F10101C7EB010B01E00AF1010B012248
S214084FA00192BCE7734508DB656A3046E1693A4614
S214084FB07346A847051ECDDC15E01A463946009309
S214084FC000F02CFB009B2568A068E918C21AA260AE
S214084FD021601D46BEE730462146FFF7CBFB10B9D9
S214084FE0CDF804B0B9E7A28942F04003A3814FF098
S214084FF0FF30BDE8FE8F2DE9F04104468846FFF7EE
S2140850000FFD04F5387400268CB1A5686768013F63
S2140850100BD4B5F90C3033B1B5F90E00431C02D0E9
S2140850202846C04706436835F1E72468ECE7FFF7EB
S214085030F8FC3046BDE8F0812DE9F84380468946FD
S214085040FFF7EEFC08F53874002694B1A568676883
S214085050013F0CD4B5F90C303BB1B5F90E00431C32
S21408506003D040462946C84706436835F0E7246813
S214085070EBE7FFF7D6FC3046BDE8F88310B51446D4
S2140850800AB90C4810BD10460B4900F0A8FC0028C9
S214085090F7D02046074900F0A2FC0028F1D02046A9
S2140850A0064900F09CFC034B00280CBF184600205D
S2140850B010BD00BF3C6308008063080087630800D3
S2140850C00048704750040720014B186A704700BF15
S2140850D050040720004870477404072000207047D3
S2140850E000487047940407200A46034903460868A0
S2140850F01946FFF7C3BF00BF2000072000487047C7
S21408510094040720F0B58B890C4603F002010AB216
S21408511091B00646002A3FD1B4F90E1000290DDAE0
S214085120A78907F0800247F4006310B200280CBF76
S2140851304FF480654025A381002720E001AA00F0EF
S21408514075FD0028ECDB029800F47045B5F50053B1
S2140851505F425F41B5F5004F0BD1A16A1D4A9142E7
S21408516007D1A3894FF4806543F48061A181E56483
S21408517005E0A08940F40065A5814FF480653046B7
S214085180294600F03BF870B9A38903F4007210B200
S214085190E8B943F00201A18104F143030122236028
S2140851A02361626113E0A2890B4942F08003F16330
S2140851B0A3812060206165614FB13046B4F90E10B6
S2140851C000F046FD18B1A08940F00101A18111B098
S2140851D0F0BD00BFB3590800CD480800024B014691
S2140851E0186800F00BB800BF20000720024B0146E5
S2140851F01868FFF7EFBC00BF200007202DE9F0472E
S21408520001F10B04162C064603D934F0070401D521
S21408521002E010248C4202D20C253560D9E13046D3
S21408522000F016FAB4F5FC7F14D2A04DE10805EBA1
S214085230C100C568854205D105F108036D698A1C59
S2140852409D4244D0E868A9686A68C86022F00303EB
S214085250816059E0620A01D1E2081BE0042A02D8FC
S214085260A209383216E0142A01D85B3212E0542A12
S21408527002D8220B6E320DE0B2F5AA7F02D8E20BF6
S214085280773207E040F254539A4202D8A20C7C3296
S21408529000E07E22854800EBC203DD689D4215D0FB
S2140852A0696821F00301081B0F2801DD013A0DE0AB
S2140852B0002809DBEB68AA68D3609A606B185A68FE
S2140852C042F00100586090E1ED68E7E7013277495F
S2140852D00D6901F10807BD4268D0686820F003032D
S2140852E0181B0F280CDD2B194B610B6144F00104C9
S2140852F040F001016C60DF609F605960185074E1EF
S21408530000284F610F6101DBEB18D8E7B3F5007F83
S2140853100FD2DB089810012707FA00F748680743FA
S2140853204F6001EBC3018B68E960AB60DD608D60A0
S2140853303CE0580A042802D89809383016E01428A1
S21408534001D85B3012E0542802D8180B6E300DE0F6
S214085350B0F5AA7F02D8D80B773007E040F254574A
S214085360B84202D8980C7C3000E07E20DFF83CE19A
S2140853700EEBC007B968B9420ED18710012303FAAD
S21408538007F0DEF8047040EA0703CEF80430084653
S21408539008E08968B94204D0486820F003008342D0
S2140853A0F7D3C868E860A960CD60856095100120CD
S2140853B000FA05F33D4F79688B425DD80B4205D15C
S2140853C022F003025B0004320B42FBD0374D104636
S2140853D005EBC20E7746FD68BD422DD0696821F000
S2140853E0030CC4EB0C010F2913DD2B1944F0010440
S2140853F0EA686C6055F8080F5950C26090602B4AEE
S21408540041F00100536113610832DA609A6058600F
S2140854100CE000290EDB05EB0C004268E96842F058
S2140854200103436055F8080FC1608860304600F0F5
S21408543010F9DEE0ED68CFE70130810705F10807CF
S214085440C9D17146950705D1184A556825EA030556
S214085450556005E0A1F108070968013AB942F1D09C
S214085460124F5B007F68BB4206D82BB102463B4210
S214085470ACD104325B00FAE70C4B9F681946786893
S21408548020F00309A14504D3C4EB09000F2800F354
S214085490A280074AD1F808341568013307EB090AD1
S2140854A004EB050806D108F110080BE0CC04072029
S2140854B0E4AA072008F5805000F10F0121F47F6266
S2140854C022F00F083046414600F032FA421C0546E4
S2140854D071D0504502D2484B9F426CD1474855453B
S2140854E04168454A08EB0103436007D1290505D101
S2140854F09568C84448F00100686051E0D2F808048E
S214085500421C03D13C4AC2F8085405E0CAEB050A17
S21408551003EB0A01394B596015F007001CBFC0F1B0
S21408552008002D1805EB080C00F580514FEA0C5EB4
S214085530A1EB1E584146304600F0FAF92F4A431CA4
S214085540536808BF4FF0000808EB030108BF284659
S2140855505160401B284A00EB080343F001019742BC
S214085560956069601CD0B9F10F0F02D801226A60F5
S21408557021E07D68A9F10C0929F0070905F0010268
S214085580052107EB090349EA0200B9F10F0F786015
S2140855905960996004D9304607F10801FFF71AFBED
S2140855A0164A5368D16A156B8B4288BFD362AB42E2
S2140855B084BF124D2B6310488268536823F003019A
S2140855C0A142C4EB010001D30F2804DC304600F0EA
S2140855D040F800250DE0084A44F00103956840F0BD
S2140855E001012C196B6094606160304600F031F858
S2140855F008352846BDE8F087CC040720E4AA07202B
S21408560010B5C9B2034682189342184604D00478E7
S21408561001338C42F8D100E0002010BD814270B5FD
S2140856200ED28C18A0420BD28518134613F1FF33FE
S21408563005D351426618F65C6918CE54F6E770BD75
S2140856400023934203D0CC5CC4540133F9E770BD01
S214085650704770472DE9F84F814616460C4621B923
S2140856601146BDE8F84FFFF7C9BDFFF7F1FF06F191
S2140856700B0754F8045C162FA4F1080B25F0030852
S21408568003D937F0070701D502E01027B74204D23E
S2140856900C20C9F80000002645E1B84580F21A81BA
S2140856A0A24A0BEB080391688B4206D0586820F094
S2140856B0010298184268D00726D45A688B4222F00E
S2140856C0030000EB080A18D107F1100292451DDB0B
S2140856D0C7EB0A0A0BEB07054AF00101696054F8A4
S2140856E0042C924E02F001031F43B56044F8047C74
S2140856F04846FFF7AEFF264615E1BA4506DBDD68E5
S2140857009E68F560AE60E6E000200346EA0700F112
S214085710918054F8085CC5EB0B056A6822F0030212
S214085720002B51D002EB080A8B42824445D107F180
S21408573010039A4548DB2E46E96856F8083FA8F154
S2140857400402242AD9608B6025D8132A1BD921681D
S2140857501B2AA9606368EB6003D805F110000834BB
S21408576012E0A068242A2861E168696103D005F17F
S2140857701800103408E0226905F12000AA61636960
S2140857801834EB6100E030462168016062684260C8
S214085790A368836003E030462146FFF73FFFC7EB68
S2140857A00A0AE8194AF0010242606B685F49886095
S2140857B003F0010007436F6088E0BA4504DBD96848
S2140857C09868C160886003E002EB080ABA4531DBD6
S2140857D02846EB6850F8081FA8F10402242ACB6074
S2140857E0996023D8132A1AD920681B2AA8606668E5
S2140857F0EE6003D805F11000083410E0A368242AE8
S2140858002B61E168696103D005F11800103406E0E1
S2140858102269AA6160691834E86105F120002668E3
S214085820066063684360A168816055E02146FFF71B
S214085830F5FE51E031464846FFF7E0FC06460028EC
S21408584044D054F8041CA0F1080221F001030BEB25
S21408585003018A4206D150F8046C26F0030505EBCE
S214085860080A38E0A8F10402242A28D8132A1ED9E0
S21408587023681B2A03606168416004D800F10800A9
S21408588004F1080214E0A068242AB060E368F36014
S21408589004D006F1100004F1100209E0226906F1AE
S2140858A018003261616904F11802716100E022464D
S2140858B013680360516841609268826002E021467E
S2140858C0FFF7ACFE48462146FFF784F94846FFF73F
